{"contracts/ama.sol":{"SimpleAMA":{"abi":[{"inputs":[{"internalType":"address","name":"owner","type":"address"}],"stateMutability":"nonpayable","type":"constructor"},{"inputs":[],"name":"ERC725Y_DataKeysValuesEmptyArray","type":"error"},{"inputs":[],"name":"ERC725Y_DataKeysValuesLengthMismatch","type":"error"},{"inputs":[],"name":"ERC725Y_MsgValueDisallowed","type":"error"},{"inputs":[{"internalType":"bytes","name":"storedData","type":"bytes"}],"name":"InvalidExtensionAddress","type":"error"},{"inputs":[{"internalType":"bytes","name":"data","type":"bytes"}],"name":"InvalidFunctionSelector","type":"error"},{"inputs":[],"name":"LSP4TokenNameNotEditable","type":"error"},{"inputs":[],"name":"LSP4TokenSymbolNotEditable","type":"error"},{"inputs":[],"name":"LSP4TokenTypeNotEditable","type":"error"},{"inputs":[{"internalType":"address","name":"tokenOwner","type":"address"},{"internalType":"uint256","name":"authorizedAmount","type":"uint256"},{"internalType":"address","name":"operator","type":"address"},{"internalType":"uint256","name":"amount","type":"uint256"}],"name":"LSP7AmountExceedsAuthorizedAmount","type":"error"},{"inputs":[{"internalType":"uint256","name":"balance","type":"uint256"},{"internalType":"address","name":"tokenOwner","type":"address"},{"internalType":"uint256","name":"amount","type":"uint256"}],"name":"LSP7AmountExceedsBalance","type":"error"},{"inputs":[{"internalType":"uint256","name":"callIndex","type":"uint256"}],"name":"LSP7BatchCallFailed","type":"error"},{"inputs":[],"name":"LSP7CannotSendWithAddressZero","type":"error"},{"inputs":[],"name":"LSP7CannotUseAddressZeroAsOperator","type":"error"},{"inputs":[{"internalType":"address","name":"caller","type":"address"},{"internalType":"address","name":"tokenOwner","type":"address"},{"internalType":"address","name":"operator","type":"address"}],"name":"LSP7DecreaseAllowanceNotAuthorized","type":"error"},{"inputs":[],"name":"LSP7DecreasedAllowanceBelowZero","type":"error"},{"inputs":[],"name":"LSP7InvalidTransferBatch","type":"error"},{"inputs":[{"internalType":"address","name":"tokenReceiver","type":"address"}],"name":"LSP7NotifyTokenReceiverContractMissingLSP1Interface","type":"error"},{"inputs":[{"internalType":"address","name":"tokenReceiver","type":"address"}],"name":"LSP7NotifyTokenReceiverIsEOA","type":"error"},{"inputs":[{"internalType":"address","name":"caller","type":"address"},{"internalType":"address","name":"tokenOwner","type":"address"},{"internalType":"address","name":"operator","type":"address"}],"name":"LSP7RevokeOperatorNotAuthorized","type":"error"},{"inputs":[],"name":"LSP7TokenContractCannotHoldValue","type":"error"},{"inputs":[],"name":"LSP7TokenOwnerCannotBeOperator","type":"error"},{"inputs":[{"internalType":"bytes4","name":"functionSelector","type":"bytes4"}],"name":"NoExtensionFoundForFunctionSelector","type":"error"},{"inputs":[{"internalType":"address","name":"operator","type":"address"}],"name":"OperatorAllowanceCannotBeIncreasedFromZero","type":"error"},{"inputs":[],"name":"OwnableCannotSetZeroAddressAsOwner","type":"error"},{"anonymous":false,"inputs":[{"indexed":true,"internalType":"bytes32","name":"dataKey","type":"bytes32"},{"indexed":false,"internalType":"bytes","name":"dataValue","type":"bytes"}],"name":"DataChanged","type":"event"},{"anonymous":false,"inputs":[{"indexed":true,"internalType":"address","name":"operator","type":"address"},{"indexed":true,"internalType":"address","name":"tokenOwner","type":"address"},{"indexed":true,"internalType":"uint256","name":"amount","type":"uint256"},{"indexed":false,"internalType":"bytes","name":"operatorNotificationData","type":"bytes"}],"name":"OperatorAuthorizationChanged","type":"event"},{"anonymous":false,"inputs":[{"indexed":true,"internalType":"address","name":"operator","type":"address"},{"indexed":true,"internalType":"address","name":"tokenOwner","type":"address"},{"indexed":true,"internalType":"bool","name":"notified","type":"bool"},{"indexed":false,"internalType":"bytes","name":"operatorNotificationData","type":"bytes"}],"name":"OperatorRevoked","type":"event"},{"anonymous":false,"inputs":[{"indexed":true,"internalType":"address","name":"previousOwner","type":"address"},{"indexed":true,"internalType":"address","name":"newOwner","type":"address"}],"name":"OwnershipTransferred","type":"event"},{"anonymous":false,"inputs":[{"indexed":true,"internalType":"address","name":"operator","type":"address"},{"indexed":true,"internalType":"address","name":"from","type":"address"},{"indexed":true,"internalType":"address","name":"to","type":"address"},{"indexed":false,"internalType":"uint256","name":"amount","type":"uint256"},{"indexed":false,"internalType":"bool","name":"force","type":"bool"},{"indexed":false,"internalType":"bytes","name":"data","type":"bytes"}],"name":"Transfer","type":"event"},{"stateMutability":"payable","type":"fallback"},{"inputs":[{"internalType":"uint256","name":"_questionId","type":"uint256"},{"internalType":"string","name":"_answerText","type":"string"}],"name":"answerQuestion","outputs":[],"stateMutability":"nonpayable","type":"function"},{"inputs":[{"internalType":"address","name":"operator","type":"address"},{"internalType":"uint256","name":"amount","type":"uint256"},{"internalType":"bytes","name":"operatorNotificationData","type":"bytes"}],"name":"authorizeOperator","outputs":[],"stateMutability":"nonpayable","type":"function"},{"inputs":[{"internalType":"address","name":"operator","type":"address"},{"internalType":"address","name":"tokenOwner","type":"address"}],"name":"authorizedAmountFor","outputs":[{"internalType":"uint256","name":"","type":"uint256"}],"stateMutability":"view","type":"function"},{"inputs":[{"internalType":"address","name":"tokenOwner","type":"address"}],"name":"balanceOf","outputs":[{"internalType":"uint256","name":"","type":"uint256"}],"stateMutability":"view","type":"function"},{"inputs":[{"internalType":"bytes[]","name":"data","type":"bytes[]"}],"name":"batchCalls","outputs":[{"internalType":"bytes[]","name":"results","type":"bytes[]"}],"stateMutability":"nonpayable","type":"function"},{"inputs":[{"internalType":"address","name":"_profileOwner","type":"address"}],"name":"claimFreeToken","outputs":[],"stateMutability":"nonpayable","type":"function"},{"inputs":[],"name":"createProfile","outputs":[],"stateMutability":"nonpayable","type":"function"},{"inputs":[],"name":"decimals","outputs":[{"internalType":"uint8","name":"","type":"uint8"}],"stateMutability":"view","type":"function"},{"inputs":[{"internalType":"address","name":"operator","type":"address"},{"internalType":"address","name":"tokenOwner","type":"address"},{"internalType":"uint256","name":"subtractedAmount","type":"uint256"},{"internalType":"bytes","name":"operatorNotificationData","type":"bytes"}],"name":"decreaseAllowance","outputs":[],"stateMutability":"nonpayable","type":"function"},{"inputs":[{"internalType":"address","name":"_profileOwner","type":"address"}],"name":"getAllQuestions","outputs":[{"components":[{"internalType":"address","name":"sender","type":"address"},{"internalType":"string","name":"questionText","type":"string"},{"internalType":"string","name":"answerText","type":"string"},{"internalType":"bool","name":"answered","type":"bool"}],"internalType":"struct SimpleAMA.Question[]","name":"","type":"tuple[]"}],"stateMutability":"view","type":"function"},{"inputs":[{"internalType":"bytes32","name":"dataKey","type":"bytes32"}],"name":"getData","outputs":[{"internalType":"bytes","name":"dataValue","type":"bytes"}],"stateMutability":"view","type":"function"},{"inputs":[{"internalType":"bytes32[]","name":"dataKeys","type":"bytes32[]"}],"name":"getDataBatch","outputs":[{"internalType":"bytes[]","name":"dataValues","type":"bytes[]"}],"stateMutability":"view","type":"function"},{"inputs":[{"internalType":"address","name":"user","type":"address"}],"name":"getFQTBalance","outputs":[{"internalType":"uint256","name":"","type":"uint256"}],"stateMutability":"view","type":"function"},{"inputs":[{"internalType":"address","name":"tokenOwner","type":"address"}],"name":"getOperatorsOf","outputs":[{"internalType":"address[]","name":"","type":"address[]"}],"stateMutability":"view","type":"function"},{"inputs":[{"internalType":"address","name":"_profileOwner","type":"address"},{"internalType":"address","name":"user","type":"address"}],"name":"hasAskedQuestion","outputs":[{"internalType":"bool","name":"","type":"bool"}],"stateMutability":"view","type":"function"},{"inputs":[{"internalType":"address","name":"user","type":"address"}],"name":"hasProfile","outputs":[{"internalType":"bool","name":"","type":"bool"}],"stateMutability":"view","type":"function"},{"inputs":[{"internalType":"address","name":"_profileOwner","type":"address"},{"internalType":"address","name":"user","type":"address"}],"name":"hasReceivedToken","outputs":[{"internalType":"bool","name":"","type":"bool"}],"stateMutability":"view","type":"function"},{"inputs":[{"internalType":"address","name":"operator","type":"address"},{"internalType":"uint256","name":"addedAmount","type":"uint256"},{"internalType":"bytes","name":"operatorNotificationData","type":"bytes"}],"name":"increaseAllowance","outputs":[],"stateMutability":"nonpayable","type":"function"},{"inputs":[],"name":"owner","outputs":[{"internalType":"address","name":"","type":"address"}],"stateMutability":"view","type":"function"},{"inputs":[{"internalType":"address","name":"","type":"address"}],"name":"profiles","outputs":[{"internalType":"address","name":"owner","type":"address"},{"internalType":"uint256","name":"questionCounter","type":"uint256"}],"stateMutability":"view","type":"function"},{"inputs":[],"name":"renounceOwnership","outputs":[],"stateMutability":"nonpayable","type":"function"},{"inputs":[{"internalType":"address","name":"operator","type":"address"},{"internalType":"address","name":"tokenOwner","type":"address"},{"internalType":"bool","name":"notify","type":"bool"},{"internalType":"bytes","name":"operatorNotificationData","type":"bytes"}],"name":"revokeOperator","outputs":[],"stateMutability":"nonpayable","type":"function"},{"inputs":[{"internalType":"bytes32","name":"dataKey","type":"bytes32"},{"internalType":"bytes","name":"dataValue","type":"bytes"}],"name":"setData","outputs":[],"stateMutability":"payable","type":"function"},{"inputs":[{"internalType":"bytes32[]","name":"dataKeys","type":"bytes32[]"},{"internalType":"bytes[]","name":"dataValues","type":"bytes[]"}],"name":"setDataBatch","outputs":[],"stateMutability":"payable","type":"function"},{"inputs":[{"internalType":"address","name":"_profileOwner","type":"address"},{"internalType":"string","name":"_questionText","type":"string"}],"name":"submitQuestion","outputs":[],"stateMutability":"nonpayable","type":"function"},{"inputs":[{"internalType":"bytes4","name":"interfaceId","type":"bytes4"}],"name":"supportsInterface","outputs":[{"internalType":"bool","name":"","type":"bool"}],"stateMutability":"view","type":"function"},{"inputs":[],"name":"totalSupply","outputs":[{"internalType":"uint256","name":"","type":"uint256"}],"stateMutability":"view","type":"function"},{"inputs":[{"internalType":"address","name":"from","type":"address"},{"internalType":"address","name":"to","type":"address"},{"internalType":"uint256","name":"amount","type":"uint256"},{"internalType":"bool","name":"force","type":"bool"},{"internalType":"bytes","name":"data","type":"bytes"}],"name":"transfer","outputs":[],"stateMutability":"nonpayable","type":"function"},{"inputs":[{"internalType":"address[]","name":"from","type":"address[]"},{"internalType":"address[]","name":"to","type":"address[]"},{"internalType":"uint256[]","name":"amount","type":"uint256[]"},{"internalType":"bool[]","name":"force","type":"bool[]"},{"internalType":"bytes[]","name":"data","type":"bytes[]"}],"name":"transferBatch","outputs":[],"stateMutability":"nonpayable","type":"function"},{"inputs":[{"internalType":"address","name":"newOwner","type":"address"}],"name":"transferOwnership","outputs":[],"stateMutability":"nonpayable","type":"function"},{"stateMutability":"payable","type":"receive"}],"evm":{"bytecode":{"linkReferences":{},"object":"60806040523480156200001157600080fd5b50604051620065c7380380620065c7833981810160405281019062000037919062000430565b6040518060400160405280601381526020017f46726565205175657374696f6e20546f6b656e000000000000000000000000008152506040518060400160405280600381526020017f4651540000000000000000000000000000000000000000000000000000000000815250336000808484848481620000cc620000c06200029960201b60201c565b620002a160201b60201c565b600073ffffffffffffffffffffffffffffffffffffffff168173ffffffffffffffffffffffffffffffffffffffff160362000133576040517f1ad8836c00000000000000000000000000000000000000000000000000000000815260040160405180910390fd5b6200014481620002a160201b60201c565b50620001af7feafec4d89fa9619884b60000a4d96624a38f7ac2d8d9a604ecf07c12c77e480c60001b6040518060400160405280600481526020017fa4d96624000000000000000000000000000000000000000000000000000000008152506200036560201b60201c565b620001e47fdeba1e292f8ba88238e10ab3c7f88bd4be4fac56cad5194b6ecceaf653468af160001b856200036560201b60201c565b620002197f2f0a68ab07768e01943a599e73362a0e17a63a72e94dd2e384d2c1d4db93275660001b846200036560201b60201c565b6200026f7fe0261fa95db2eb3b5439bd033cda66d56b96f92f243a8228fd87550ed7bdfdb360001b826040516020016200025491906200047d565b6040516020818303038152906040526200036560201b60201c565b5050505080600260006101000a81548160ff021916908315150217905550505050505050620008a4565b600033905090565b60008060009054906101000a900473ffffffffffffffffffffffffffffffffffffffff169050816000806101000a81548173ffffffffffffffffffffffffffffffffffffffff021916908373ffffffffffffffffffffffffffffffffffffffff1602179055508173ffffffffffffffffffffffffffffffffffffffff168173ffffffffffffffffffffffffffffffffffffffff167f8be0079c531659141344cd1fd0a4f28419497f9722a3daafe3b4186f6b6457e060405160405180910390a35050565b806001600084815260200190815260200160002090816200038791906200070a565b50817fece574603820d07bc9b91f2a932baadf4628aabcb8afba49776529c14a6104b282604051620003ba919062000880565b60405180910390a25050565b600080fd5b600073ffffffffffffffffffffffffffffffffffffffff82169050919050565b6000620003f882620003cb565b9050919050565b6200040a81620003eb565b81146200041657600080fd5b50565b6000815190506200042a81620003ff565b92915050565b600060208284031215620004495762000448620003c6565b5b6000620004598482850162000419565b91505092915050565b6000819050919050565b620004778162000462565b82525050565b60006020820190506200049460008301846200046c565b92915050565b600081519050919050565b7f4e487b7100000000000000000000000000000000000000000000000000000000600052604160045260246000fd5b7f4e487b7100000000000000000000000000000000000000000000000000000000600052602260045260246000fd5b600060028204905060018216806200051c57607f821691505b602082108103620005325762000531620004d4565b5b50919050565b60008190508160005260206000209050919050565b60006020601f8301049050919050565b600082821b905092915050565b6000600883026200059c7fffffffffffffffffffffffffffffffffffffffffffffffffffffffffffffffff826200055d565b620005a886836200055d565b95508019841693508086168417925050509392505050565b6000819050919050565b6000620005eb620005e5620005df8462000462565b620005c0565b62000462565b9050919050565b6000819050919050565b6200060783620005ca565b6200061f6200061682620005f2565b8484546200056a565b825550505050565b600090565b6200063662000627565b62000643818484620005fc565b505050565b5b818110156200066b576200065f6000826200062c565b60018101905062000649565b5050565b601f821115620006ba57620006848162000538565b6200068f846200054d565b810160208510156200069f578190505b620006b7620006ae856200054d565b83018262000648565b50505b505050565b600082821c905092915050565b6000620006df60001984600802620006bf565b1980831691505092915050565b6000620006fa8383620006cc565b9150826002028217905092915050565b62000715826200049a565b67ffffffffffffffff811115620007315762000730620004a5565b5b6200073d825462000503565b6200074a8282856200066f565b600060209050601f8311600181146200078257600084156200076d578287015190505b620007798582620006ec565b865550620007e9565b601f198416620007928662000538565b60005b82811015620007bc5784890151825560018201915060208501945060208101905062000795565b86831015620007dc5784890151620007d8601f891682620006cc565b8355505b6001600288020188555050505b505050505050565b600082825260208201905092915050565b60005b838110156200082257808201518184015260208101905062000805565b60008484015250505050565b6000601f19601f8301169050919050565b60006200084c826200049a565b620008588185620007f1565b93506200086a81856020860162000802565b62000875816200082e565b840191505092915050565b600060208201905081810360008301526200089c81846200083f565b905092915050565b615d1380620008b46000396000f3fe6080604052600436106101d05760003560e01c8063760d9bba116100f7578063b49506fd11610095578063dedff9c611610064578063dedff9c61461076d578063ef6cc0ea146107aa578063f2fde38b146107e7578063f87fd04a146108105761024a565b8063b49506fd1461068c578063b4b29fe5146106b5578063bbe15627146106f2578063d72fc29a146107305761024a565b8063821dc5d1116100d1578063821dc5d1146105cb5780638da5cb5b146106085780639790242114610633578063a787c80b1461064f5761024a565b8063760d9bba1461055d57806378381670146105865780637f23690c146105af5761024a565b8063447e52a01161016f57806365aeaa951161013e57806365aeaa951461048f5780636963d438146104cc57806370a0823114610509578063715018a6146105465761024a565b8063447e52a0146103d7578063507431761461040057806354f6127f146104295780635bf4c7da146104665761024a565b80632bc1da82116101ab5780632bc1da82146103315780632d7667c91461035a57806330d0dc3714610383578063313ce567146103ac5761024a565b8062547664146102b257806301ffc9a7146102c957806318160ddd146103065761024a565b3661024a5760003403610218576040517fe5099ee300000000000000000000000000000000000000000000000000000000815260040161020f906138ec565b60405180910390fd5b6040517f388f5adc00000000000000000000000000000000000000000000000000000000815260040160405180910390fd5b600036606060046000369050101561029b5782826040517fe5099ee3000000000000000000000000000000000000000000000000000000008152600401610292929190613959565b60405180910390fd5b6102a5838361084d565b9050915050805190602001f35b3480156102be57600080fd5b506102c76109cb565b005b3480156102d557600080fd5b506102f060048036038101906102eb91906139e9565b610b1f565b6040516102fd9190613a31565b60405180910390f35b34801561031257600080fd5b5061031b610b90565b6040516103289190613a65565b60405180910390f35b34801561033d57600080fd5b5061035860048036038101906103539190613c30565b610b9a565b005b34801561036657600080fd5b50610381600480360381019061037c9190613ffa565b610c45565b005b34801561038f57600080fd5b506103aa60048036038101906103a59190614101565b610d59565b005b3480156103b857600080fd5b506103c1610e56565b6040516103ce91906141a0565b60405180910390f35b3480156103e357600080fd5b506103fe60048036038101906103f9919061425c565b610e7b565b005b34801561040c57600080fd5b50610427600480360381019061042291906142b8565b610fe5565b005b34801561043557600080fd5b50610450600480360381019061044b919061434a565b611356565b60405161045d91906143e5565b60405180910390f35b34801561047257600080fd5b5061048d60048036038101906104889190614407565b611368565b005b34801561049b57600080fd5b506104b660048036038101906104b19190614434565b611575565b6040516104c39190613a65565b60405180910390f35b3480156104d857600080fd5b506104f360048036038101906104ee91906144cf565b611677565b6040516105009190614628565b60405180910390f35b34801561051557600080fd5b50610530600480360381019061052b9190614407565b6117f3565b60405161053d9190613a65565b60405180910390f35b34801561055257600080fd5b5061055b61183c565b005b34801561056957600080fd5b50610584600480360381019061057f919061464a565b611850565b005b34801561059257600080fd5b506105ad60048036038101906105a891906146e1565b6118a3565b005b6105c960048036038101906105c49190614764565b6119e9565b005b3480156105d757600080fd5b506105f260048036038101906105ed9190614407565b611a39565b6040516105ff9190613a65565b60405180910390f35b34801561061457600080fd5b5061061d611a4b565b60405161062a91906147cf565b60405180910390f35b61064d600480360381019061064891906148ad565b611a74565b005b34801561065b57600080fd5b5061067660048036038101906106719190614407565b611ac4565b6040516106839190613a31565b60405180910390f35b34801561069857600080fd5b506106b360048036038101906106ae9190613c30565b611b5f565b005b3480156106c157600080fd5b506106dc60048036038101906106d79190614434565b611ba5565b6040516106e99190613a31565b60405180910390f35b3480156106fe57600080fd5b5061071960048036038101906107149190614407565b611cd4565b604051610727929190614925565b60405180910390f35b34801561073c57600080fd5b5061075760048036038101906107529190614407565b611d18565b6040516107649190614a0c565b60405180910390f35b34801561077957600080fd5b50610794600480360381019061078f9190614a2e565b611d68565b6040516107a19190614628565b60405180910390f35b3480156107b657600080fd5b506107d160048036038101906107cc9190614407565b611e19565b6040516107de9190614c07565b60405180910390f35b3480156107f357600080fd5b5061080e60048036038101906108099190614407565b61215c565b005b34801561081c57600080fd5b5061083760048036038101906108329190614434565b6121df565b6040516108449190613a31565b60405180910390f35b6060600061087e6000357fffffffff000000000000000000000000000000000000000000000000000000001661230e565b509050600073ffffffffffffffffffffffffffffffffffffffff168173ffffffffffffffffffffffffffffffffffffffff1603610916576000357fffffffff00000000000000000000000000000000000000000000000000000000166040517fbb370b2b00000000000000000000000000000000000000000000000000000000815260040161090d9190614c38565b60405180910390fd5b6000808273ffffffffffffffffffffffffffffffffffffffff1634878733346040516020016109489493929190614cec565b6040516020818303038152906040526040516109649190614d58565b60006040518083038185875af1925050503d80600081146109a1576040519150601f19603f3d011682016040523d82523d6000602084013e6109a6565b606091505b509150915081156109bc578093505050506109c5565b80518060208301fd5b92915050565b600073ffffffffffffffffffffffffffffffffffffffff16600760003373ffffffffffffffffffffffffffffffffffffffff1673ffffffffffffffffffffffffffffffffffffffff16815260200190815260200160002060000160009054906101000a900473ffffffffffffffffffffffffffffffffffffffff1673ffffffffffffffffffffffffffffffffffffffff1614610a9c576040517f08c379a0000000000000000000000000000000000000000000000000000000008152600401610a9390614dcc565b60405180910390fd5b33600760003373ffffffffffffffffffffffffffffffffffffffff1673ffffffffffffffffffffffffffffffffffffffff16815260200190815260200160002060000160006101000a81548173ffffffffffffffffffffffffffffffffffffffff021916908373ffffffffffffffffffffffffffffffffffffffff160217905550565b600063c52d600860e01b7bffffffffffffffffffffffffffffffffffffffffffffffffffffffff1916827bffffffffffffffffffffffffffffffffffffffffffffffffffffffff19161480610b795750610b78826123c8565b5b80610b895750610b8882612429565b5b9050919050565b6000600354905090565b6000610ba68433611575565b905060008103610bed57836040517fcba6e977000000000000000000000000000000000000000000000000000000008152600401610be491906147cf565b60405180910390fd5b60008382610bfb9190614e1b565b9050610c0b338683600187612490565b6000338285604051602001610c2293929190614e4f565b6040516020818303038152906040529050610c3d8682612763565b505050505050565b600085519050845181141580610c5c575083518114155b80610c68575082518114155b80610c74575081518114155b15610cab576040517f263eee8d00000000000000000000000000000000000000000000000000000000815260040160405180910390fd5b60005b81811015610d5057610d45878281518110610ccc57610ccb614e8d565b5b6020026020010151878381518110610ce757610ce6614e8d565b5b6020026020010151878481518110610d0257610d01614e8d565b5b6020026020010151878581518110610d1d57610d1c614e8d565b5b6020026020010151878681518110610d3857610d37614e8d565b5b6020026020010151611850565b806001019050610cae565b50505050505050565b8273ffffffffffffffffffffffffffffffffffffffff163373ffffffffffffffffffffffffffffffffffffffff1614158015610dc157508373ffffffffffffffffffffffffffffffffffffffff163373ffffffffffffffffffffffffffffffffffffffff1614155b15610e07573383856040517f1a525b32000000000000000000000000000000000000000000000000000000008152600401610dfe93929190614ebc565b60405180910390fd5b610e15838560008585612490565b8115610e5057600083600083604051602001610e3393929190614f38565b6040516020818303038152906040529050610e4e8582612763565b505b50505050565b6000600260009054906101000a900460ff16610e73576012610e76565b60005b905090565b6000600760003373ffffffffffffffffffffffffffffffffffffffff1673ffffffffffffffffffffffffffffffffffffffff16815260200190815260200160002090503373ffffffffffffffffffffffffffffffffffffffff168160000160009054906101000a900473ffffffffffffffffffffffffffffffffffffffff1673ffffffffffffffffffffffffffffffffffffffff1614610f50576040517f08c379a0000000000000000000000000000000000000000000000000000000008152600401610f4790614fc2565b60405180910390fd5b8060010154831115610f97576040517f08c379a0000000000000000000000000000000000000000000000000000000008152600401610f8e9061502e565b60405180910390fd5b6000816002016000858152602001908152602001600020905082816002019081610fc19190615250565b5060018160030160006101000a81548160ff02191690831515021790555050505050565b670de0b6b3a7640000610ff7336117f3565b1015611038576040517f08c379a000000000000000000000000000000000000000000000000000000000815260040161102f90615394565b60405180910390fd5b6000600760008473ffffffffffffffffffffffffffffffffffffffff1673ffffffffffffffffffffffffffffffffffffffff1681526020019081526020016000209050600073ffffffffffffffffffffffffffffffffffffffff168160000160009054906101000a900473ffffffffffffffffffffffffffffffffffffffff1673ffffffffffffffffffffffffffffffffffffffff160361110e576040517f08c379a000000000000000000000000000000000000000000000000000000000815260040161110590615400565b60405180910390fd5b8060030160003373ffffffffffffffffffffffffffffffffffffffff1673ffffffffffffffffffffffffffffffffffffffff16815260200190815260200160002060009054906101000a900460ff161561119d576040517f08c379a000000000000000000000000000000000000000000000000000000000815260040161119490615492565b60405180910390fd5b8060010160008154809291906111b2906154b2565b919050555060405180608001604052803373ffffffffffffffffffffffffffffffffffffffff168152602001838152602001604051806020016040528060008152508152602001600015158152508160020160008360010154815260200190815260200160002060008201518160000160006101000a81548173ffffffffffffffffffffffffffffffffffffffff021916908373ffffffffffffffffffffffffffffffffffffffff16021790555060208201518160010190816112759190615250565b50604082015181600201908161128b9190615250565b5060608201518160030160006101000a81548160ff02191690831515021790555090505060018160030160003373ffffffffffffffffffffffffffffffffffffffff1673ffffffffffffffffffffffffffffffffffffffff16815260200190815260200160002060006101000a81548160ff02191690831515021790555061135133670de0b6b3a76400006040518060400160405280601f81526020017f4275726e20746f6b656e20746f207375626d69742061207175657374696f6e00815250612795565b505050565b606061136182612865565b9050919050565b6000600760008373ffffffffffffffffffffffffffffffffffffffff1673ffffffffffffffffffffffffffffffffffffffff1681526020019081526020016000209050600073ffffffffffffffffffffffffffffffffffffffff168160000160009054906101000a900473ffffffffffffffffffffffffffffffffffffffff1673ffffffffffffffffffffffffffffffffffffffff160361143e576040517f08c379a000000000000000000000000000000000000000000000000000000000815260040161143590615400565b60405180910390fd5b8060040160003373ffffffffffffffffffffffffffffffffffffffff1673ffffffffffffffffffffffffffffffffffffffff16815260200190815260200160002060009054906101000a900460ff16156114cd576040517f08c379a00000000000000000000000000000000000000000000000000000000081526004016114c49061556c565b60405180910390fd5b60018160040160003373ffffffffffffffffffffffffffffffffffffffff1673ffffffffffffffffffffffffffffffffffffffff16815260200190815260200160002060006101000a81548160ff02191690831515021790555061157133670de0b6b3a764000060016040518060400160405280601b81526020017f4672656520746f6b656e20666f7220414d41207175657374696f6e000000000081525061290a565b5050565b60008273ffffffffffffffffffffffffffffffffffffffff168273ffffffffffffffffffffffffffffffffffffffff16036115f157600460008373ffffffffffffffffffffffffffffffffffffffff1673ffffffffffffffffffffffffffffffffffffffff168152602001908152602001600020549050611671565b600660008373ffffffffffffffffffffffffffffffffffffffff1673ffffffffffffffffffffffffffffffffffffffff16815260200190815260200160002060008473ffffffffffffffffffffffffffffffffffffffff1673ffffffffffffffffffffffffffffffffffffffff1681526020019081526020016000205490505b92915050565b60608282905067ffffffffffffffff81111561169657611695613b14565b5b6040519080825280602002602001820160405280156116c957816020015b60608152602001906001900390816116b45790505b50905060005b838390508110156117ec576000803073ffffffffffffffffffffffffffffffffffffffff1686868581811061170757611706614e8d565b5b9050602002810190611719919061559b565b6040516117279291906155fe565b600060405180830381855af49150503d8060008114611762576040519150601f19603f3d011682016040523d82523d6000602084013e611767565b606091505b5091509150816117c05760008151146117835780518082602001fd5b826040517fb774c2840000000000000000000000000000000000000000000000000000000081526004016117b79190613a65565b60405180910390fd5b808484815181106117d4576117d3614e8d565b5b602002602001018190525082600101925050506116cf565b5092915050565b6000600460008373ffffffffffffffffffffffffffffffffffffffff1673ffffffffffffffffffffffffffffffffffffffff168152602001908152602001600020549050919050565b6118446129d9565b61184e6000612a57565b565b8473ffffffffffffffffffffffffffffffffffffffff163373ffffffffffffffffffffffffffffffffffffffff161461188f5761188e338685612b1b565b5b61189c8585858585612c20565b5050505050565b8273ffffffffffffffffffffffffffffffffffffffff163373ffffffffffffffffffffffffffffffffffffffff161415801561190b57508373ffffffffffffffffffffffffffffffffffffffff163373ffffffffffffffffffffffffffffffffffffffff1614155b15611951573383856040517f98ce294500000000000000000000000000000000000000000000000000000000815260040161194893929190614ebc565b60405180910390fd5b600061195d8585611575565b905082811015611999576040517f0ef76c3500000000000000000000000000000000000000000000000000000000815260040160405180910390fd5b600083820390506119ae858783600187612490565b60008582856040516020016119c593929190614e4f565b60405160208183030381529060405290506119e08782612763565b50505050505050565b6119f16129d9565b60003414611a2b576040517ff36ba73700000000000000000000000000000000000000000000000000000000815260040160405180910390fd5b611a358282612d2e565b5050565b6000611a44826117f3565b9050919050565b60008060009054906101000a900473ffffffffffffffffffffffffffffffffffffffff16905090565b611a7c6129d9565b60003414611ab6576040517ff36ba73700000000000000000000000000000000000000000000000000000000815260040160405180910390fd5b611ac08282612e9f565b5050565b60008073ffffffffffffffffffffffffffffffffffffffff16600760008473ffffffffffffffffffffffffffffffffffffffff1673ffffffffffffffffffffffffffffffffffffffff16815260200190815260200160002060000160009054906101000a900473ffffffffffffffffffffffffffffffffffffffff1673ffffffffffffffffffffffffffffffffffffffff1614159050919050565b611b6d338484600185612490565b6000338383604051602001611b8493929190614e4f565b6040516020818303038152906040529050611b9f8482612763565b50505050565b600080600760008573ffffffffffffffffffffffffffffffffffffffff1673ffffffffffffffffffffffffffffffffffffffff1681526020019081526020016000209050600073ffffffffffffffffffffffffffffffffffffffff168160000160009054906101000a900473ffffffffffffffffffffffffffffffffffffffff1673ffffffffffffffffffffffffffffffffffffffff1603611c7c576040517f08c379a0000000000000000000000000000000000000000000000000000000008152600401611c7390615400565b60405180910390fd5b8060030160008473ffffffffffffffffffffffffffffffffffffffff1673ffffffffffffffffffffffffffffffffffffffff16815260200190815260200160002060009054906101000a900460ff1691505092915050565b60076020528060005260406000206000915090508060000160009054906101000a900473ffffffffffffffffffffffffffffffffffffffff16908060010154905082565b6060611d61600560008473ffffffffffffffffffffffffffffffffffffffff1673ffffffffffffffffffffffffffffffffffffffff168152602001908152602001600020612f6f565b9050919050565b6060815167ffffffffffffffff811115611d8557611d84613b14565b5b604051908082528060200260200182016040528015611db857816020015b6060815260200190600190039081611da35790505b50905060005b8251811015611e1357611dea838281518110611ddd57611ddc614e8d565b5b6020026020010151612865565b828281518110611dfd57611dfc614e8d565b5b6020026020010181905250806001019050611dbe565b50919050565b60606000600760008473ffffffffffffffffffffffffffffffffffffffff1673ffffffffffffffffffffffffffffffffffffffff1681526020019081526020016000209050600073ffffffffffffffffffffffffffffffffffffffff168160000160009054906101000a900473ffffffffffffffffffffffffffffffffffffffff1673ffffffffffffffffffffffffffffffffffffffff1603611ef1576040517f08c379a0000000000000000000000000000000000000000000000000000000008152600401611ee890615400565b60405180910390fd5b6000816001015467ffffffffffffffff811115611f1157611f10613b14565b5b604051908082528060200260200182016040528015611f4a57816020015b611f3761386f565b815260200190600190039081611f2f5790505b5090506000600190505b82600101548111612151578260020160008281526020019081526020016000206040518060800160405290816000820160009054906101000a900473ffffffffffffffffffffffffffffffffffffffff1673ffffffffffffffffffffffffffffffffffffffff1673ffffffffffffffffffffffffffffffffffffffff168152602001600182018054611fe59061507d565b80601f01602080910402602001604051908101604052809291908181526020018280546120119061507d565b801561205e5780601f106120335761010080835404028352916020019161205e565b820191906000526020600020905b81548152906001019060200180831161204157829003601f168201915b505050505081526020016002820180546120779061507d565b80601f01602080910402602001604051908101604052809291908181526020018280546120a39061507d565b80156120f05780601f106120c5576101008083540402835291602001916120f0565b820191906000526020600020905b8154815290600101906020018083116120d357829003601f168201915b505050505081526020016003820160009054906101000a900460ff161515151581525050826001836121229190615617565b8151811061213357612132614e8d565b5b60200260200101819052508080612149906154b2565b915050611f54565b508092505050919050565b6121646129d9565b600073ffffffffffffffffffffffffffffffffffffffff168173ffffffffffffffffffffffffffffffffffffffff16036121d3576040517f08c379a00000000000000000000000000000000000000000000000000000000081526004016121ca906156bd565b60405180910390fd5b6121dc81612a57565b50565b600080600760008573ffffffffffffffffffffffffffffffffffffffff1673ffffffffffffffffffffffffffffffffffffffff1681526020019081526020016000209050600073ffffffffffffffffffffffffffffffffffffffff168160000160009054906101000a900473ffffffffffffffffffffffffffffffffffffffff1673ffffffffffffffffffffffffffffffffffffffff16036122b6576040517f08c379a00000000000000000000000000000000000000000000000000000000081526004016122ad90615400565b60405180910390fd5b8060040160008473ffffffffffffffffffffffffffffffffffffffff1673ffffffffffffffffffffffffffffffffffffffff16815260200190815260200160002060009054906101000a900460ff1691505092915050565b600080600061234969cee78b4094da8601109660b01b857bffffffffffffffffffffffffffffffffffffffffffffffffffffffff1916612f90565b9050600061235682612865565b9050601481511415801561236c57506000815114155b156123ae57806040517f42bfe79f0000000000000000000000000000000000000000000000000000000081526004016123a591906143e5565b60405180910390fd5b806123b89061572e565b60601c6001935093505050915091565b600063a918fa6b60e01b7bffffffffffffffffffffffffffffffffffffffffffffffffffffffff1916827bffffffffffffffffffffffffffffffffffffffffffffffffffffffff19161480612422575061242182612fd0565b5b9050919050565b60008061243c6301ffc9a760e01b61230e565b509050600073ffffffffffffffffffffffffffffffffffffffff168173ffffffffffffffffffffffffffffffffffffffff160361247d57600091505061248b565b6124878184613031565b9150505b919050565b600073ffffffffffffffffffffffffffffffffffffffff168473ffffffffffffffffffffffffffffffffffffffff16036124f6576040517f6355e76600000000000000000000000000000000000000000000000000000000815260040160405180910390fd5b8473ffffffffffffffffffffffffffffffffffffffff168473ffffffffffffffffffffffffffffffffffffffff160361255b576040517fdab7504700000000000000000000000000000000000000000000000000000000815260040160405180910390fd5b82600660008773ffffffffffffffffffffffffffffffffffffffff1673ffffffffffffffffffffffffffffffffffffffff16815260200190815260200160002060008673ffffffffffffffffffffffffffffffffffffffff1673ffffffffffffffffffffffffffffffffffffffff16815260200190815260200160002081905550600083146126a15761263584600560008873ffffffffffffffffffffffffffffffffffffffff1673ffffffffffffffffffffffffffffffffffffffff1681526020019081526020016000206130f090919063ffffffff16565b50828573ffffffffffffffffffffffffffffffffffffffff168573ffffffffffffffffffffffffffffffffffffffff167ff772a43bfdf4729b196e3fb54a818b91a2ca6c49d10b2e16278752f9f515c25d8460405161269491906143e5565b60405180910390a461275c565b6126f284600560008873ffffffffffffffffffffffffffffffffffffffff1673ffffffffffffffffffffffffffffffffffffffff16815260200190815260200160002061312090919063ffffffff16565b508115158573ffffffffffffffffffffffffffffffffffffffff168573ffffffffffffffffffffffffffffffffffffffff167f0ebf5762d8855cbe012d2ca42fb33a81175e17c8a8751f8859931ba453bd41678460405161275391906143e5565b60405180910390a45b5050505050565b612791827f386072cc5a58e61263b434c722725f21031cd06e7c552cfaa06db5de8a320dbc60001b83613150565b5050565b600073ffffffffffffffffffffffffffffffffffffffff168373ffffffffffffffffffffffffffffffffffffffff16036127fb576040517fd2d5ec3000000000000000000000000000000000000000000000000000000000815260040160405180910390fd5b61280a8360008460008561320f565b61281983600084600085613216565b6128288360008460008561345b565b6000338460008585604051602001612844959493929190615795565b604051602081830303815290604052905061285f8482613462565b50505050565b60606001600083815260200190815260200160002080546128859061507d565b80601f01602080910402602001604051908101604052809291908181526020018280546128b19061507d565b80156128fe5780601f106128d3576101008083540402835291602001916128fe565b820191906000526020600020905b8154815290600101906020018083116128e157829003601f168201915b50505050509050919050565b600073ffffffffffffffffffffffffffffffffffffffff168473ffffffffffffffffffffffffffffffffffffffff1603612970576040517fd2d5ec3000000000000000000000000000000000000000000000000000000000815260040160405180910390fd5b61297e60008585858561320f565b61298c600085858585613216565b61299a60008585858561345b565b60003360008686856040516020016129b6959493929190615795565b60405160208183030381529060405290506129d2858483613494565b5050505050565b6129e16135fa565b73ffffffffffffffffffffffffffffffffffffffff166129ff611a4b565b73ffffffffffffffffffffffffffffffffffffffff1614612a55576040517f08c379a0000000000000000000000000000000000000000000000000000000008152600401612a4c9061583b565b60405180910390fd5b565b60008060009054906101000a900473ffffffffffffffffffffffffffffffffffffffff169050816000806101000a81548173ffffffffffffffffffffffffffffffffffffffff021916908373ffffffffffffffffffffffffffffffffffffffff1602179055508173ffffffffffffffffffffffffffffffffffffffff168173ffffffffffffffffffffffffffffffffffffffff167f8be0079c531659141344cd1fd0a4f28419497f9722a3daafe3b4186f6b6457e060405160405180910390a35050565b6000600660008473ffffffffffffffffffffffffffffffffffffffff1673ffffffffffffffffffffffffffffffffffffffff16815260200190815260200160002060008573ffffffffffffffffffffffffffffffffffffffff1673ffffffffffffffffffffffffffffffffffffffff1681526020019081526020016000205490506000811480612baa57508082115b15612bf257828185846040517ff3a6b691000000000000000000000000000000000000000000000000000000008152600401612be9949392919061585b565b60405180910390fd5b612c1a83858484612c039190615617565b600060405180602001604052806000815250612490565b50505050565b600073ffffffffffffffffffffffffffffffffffffffff168573ffffffffffffffffffffffffffffffffffffffff161480612c875750600073ffffffffffffffffffffffffffffffffffffffff168473ffffffffffffffffffffffffffffffffffffffff16145b15612cbe576040517fd2d5ec3000000000000000000000000000000000000000000000000000000000815260040160405180910390fd5b612ccb858585858561320f565b612cd88585858585613216565b612ce5858585858561345b565b60003386868685604051602001612d00959493929190615795565b6040516020818303038152906040529050612d1b8682613462565b612d26858483613494565b505050505050565b7fdeba1e292f8ba88238e10ab3c7f88bd4be4fac56cad5194b6ecceaf653468af160001b8203612d8a576040517f85c169bd00000000000000000000000000000000000000000000000000000000815260040160405180910390fd5b7f2f0a68ab07768e01943a599e73362a0e17a63a72e94dd2e384d2c1d4db93275660001b8203612de6576040517f76755b3800000000000000000000000000000000000000000000000000000000815260040160405180910390fd5b7fe0261fa95db2eb3b5439bd033cda66d56b96f92f243a8228fd87550ed7bdfdb360001b8203612e42576040517f4ef6d7fb00000000000000000000000000000000000000000000000000000000815260040160405180910390fd5b80600160008481526020019081526020016000209081612e6291906158fb565b50817fece574603820d07bc9b91f2a932baadf4628aabcb8afba49776529c14a6104b282604051612e9391906143e5565b60405180910390a25050565b8051825114612eda576040517f3bcc897900000000000000000000000000000000000000000000000000000000815260040160405180910390fd5b6000825103612f15576040517f97da5f9500000000000000000000000000000000000000000000000000000000815260040160405180910390fd5b60005b8251811015612f6a57612f5f838281518110612f3757612f36614e8d565b5b6020026020010151838381518110612f5257612f51614e8d565b5b6020026020010151612d2e565b806001019050612f18565b505050565b60606000612f7f83600001613602565b905060608190508092505050919050565b60008083600060f01b84604051602001612fac93929190615a88565b604051602081830303815290604052905080612fc790615ada565b91505092915050565b600063629aa69460e01b7bffffffffffffffffffffffffffffffffffffffffffffffffffffffff1916827bffffffffffffffffffffffffffffffffffffffffffffffffffffffff1916148061302a57506130298261365e565b5b9050919050565b6000806301ffc9a760e01b8360405160240161304d9190614c38565b604051602081830303815290604052907bffffffffffffffffffffffffffffffffffffffffffffffffffffffff19166020820180517bffffffffffffffffffffffffffffffffffffffffffffffffffffffff838183161783525050505090506000806000602060008551602087018a617530fa92503d915060005190508280156130d8575060208210155b80156130e45750600081115b94505050505092915050565b6000613118836000018373ffffffffffffffffffffffffffffffffffffffff1660001b6136c8565b905092915050565b6000613148836000018373ffffffffffffffffffffffffffffffffffffffff1660001b613738565b905092915050565b613180636bb56a1460e01b8473ffffffffffffffffffffffffffffffffffffffff1661303190919063ffffffff16565b1561320a578273ffffffffffffffffffffffffffffffffffffffff16636bb56a1483836040518363ffffffff1660e01b81526004016131c0929190615b50565b6000604051808303816000875af11580156131df573d6000803e3d6000fd5b505050506040513d6000823e3d601f19601f820116820180604052508101906132089190615bf0565b505b505050565b5050505050565b600073ffffffffffffffffffffffffffffffffffffffff168573ffffffffffffffffffffffffffffffffffffffff160361326857826003600082825461325c9190614e1b565b9250508190555061333d565b6000600460008773ffffffffffffffffffffffffffffffffffffffff1673ffffffffffffffffffffffffffffffffffffffff168152602001908152602001600020549050838110156132f5578086856040517f08d479490000000000000000000000000000000000000000000000000000000081526004016132ec93929190615c39565b60405180910390fd5b838103600460008873ffffffffffffffffffffffffffffffffffffffff1673ffffffffffffffffffffffffffffffffffffffff16815260200190815260200160002081905550505b600073ffffffffffffffffffffffffffffffffffffffff168473ffffffffffffffffffffffffffffffffffffffff160361338657826003600082825403925050819055506133d4565b82600460008673ffffffffffffffffffffffffffffffffffffffff1673ffffffffffffffffffffffffffffffffffffffff168152602001908152602001600020600082825401925050819055505b8373ffffffffffffffffffffffffffffffffffffffff168573ffffffffffffffffffffffffffffffffffffffff163373ffffffffffffffffffffffffffffffffffffffff167f3997e418d2cef0b3b0e907b1e39605c3f7d32dbd061e82ea5b4a770d46a160a686868660405161344c93929190615c70565b60405180910390a45050505050565b5050505050565b613490827f429ac7a06903dbc9c13dfcb3c9d11df8194581fa047c96d7a4171fc7402958ea60001b83613150565b5050565b6134a583636bb56a1460e01b613031565b15613556578273ffffffffffffffffffffffffffffffffffffffff16636bb56a147f20804611b3e2ea21c480dc465142210acf4a2485947541770ec1fb87dee4a55c60001b836040518363ffffffff1660e01b8152600401613508929190615b50565b6000604051808303816000875af1158015613527573d6000803e3d6000fd5b505050506040513d6000823e3d601f19601f820116820180604052508101906135509190615bf0565b506135f5565b816135f45760008373ffffffffffffffffffffffffffffffffffffffff163b146135b757826040517fa608fbb60000000000000000000000000000000000000000000000000000000081526004016135ae91906147cf565b60405180910390fd5b826040517f26c247f40000000000000000000000000000000000000000000000000000000081526004016135eb91906147cf565b60405180910390fd5b5b505050565b600033905090565b60608160000180548060200260200160405190810160405280929190818152602001828054801561365257602002820191906000526020600020905b81548152602001906001019080831161363e575b50505050509050919050565b60007f01ffc9a7000000000000000000000000000000000000000000000000000000007bffffffffffffffffffffffffffffffffffffffffffffffffffffffff1916827bffffffffffffffffffffffffffffffffffffffffffffffffffffffff1916149050919050565b60006136d4838361384c565b61372d578260000182908060018154018082558091505060019003906000526020600020016000909190919091505582600001805490508360010160008481526020019081526020016000208190555060019050613732565b600090505b92915050565b6000808360010160008481526020019081526020016000205490506000811461384057600060018261376a9190615617565b90506000600186600001805490506137829190615617565b90508181146137f15760008660000182815481106137a3576137a2614e8d565b5b90600052602060002001549050808760000184815481106137c7576137c6614e8d565b5b90600052602060002001819055508387600101600083815260200190815260200160002081905550505b8560000180548061380557613804615cae565b5b600190038181906000526020600020016000905590558560010160008681526020019081526020016000206000905560019350505050613846565b60009150505b92915050565b600080836001016000848152602001908152602001600020541415905092915050565b6040518060800160405280600073ffffffffffffffffffffffffffffffffffffffff16815260200160608152602001606081526020016000151581525090565b600082825260208201905092915050565b60008082015250565b60006138d66004836138af565b91506138e1826138c0565b602082019050919050565b60006020820190508181036000830152613905816138c9565b9050919050565b82818337600083830152505050565b6000601f19601f8301169050919050565b600061393883856138af565b935061394583858461390c565b61394e8361391b565b840190509392505050565b6000602082019050818103600083015261397481848661392c565b90509392505050565b6000604051905090565b600080fd5b600080fd5b60007fffffffff0000000000000000000000000000000000000000000000000000000082169050919050565b6139c681613991565b81146139d157600080fd5b50565b6000813590506139e3816139bd565b92915050565b6000602082840312156139ff576139fe613987565b5b6000613a0d848285016139d4565b91505092915050565b60008115159050919050565b613a2b81613a16565b82525050565b6000602082019050613a466000830184613a22565b92915050565b6000819050919050565b613a5f81613a4c565b82525050565b6000602082019050613a7a6000830184613a56565b92915050565b600073ffffffffffffffffffffffffffffffffffffffff82169050919050565b6000613aab82613a80565b9050919050565b613abb81613aa0565b8114613ac657600080fd5b50565b600081359050613ad881613ab2565b92915050565b613ae781613a4c565b8114613af257600080fd5b50565b600081359050613b0481613ade565b92915050565b600080fd5b600080fd5b7f4e487b7100000000000000000000000000000000000000000000000000000000600052604160045260246000fd5b613b4c8261391b565b810181811067ffffffffffffffff82111715613b6b57613b6a613b14565b5b80604052505050565b6000613b7e61397d565b9050613b8a8282613b43565b919050565b600067ffffffffffffffff821115613baa57613ba9613b14565b5b613bb38261391b565b9050602081019050919050565b6000613bd3613bce84613b8f565b613b74565b905082815260208101848484011115613bef57613bee613b0f565b5b613bfa84828561390c565b509392505050565b600082601f830112613c1757613c16613b0a565b5b8135613c27848260208601613bc0565b91505092915050565b600080600060608486031215613c4957613c48613987565b5b6000613c5786828701613ac9565b9350506020613c6886828701613af5565b925050604084013567ffffffffffffffff811115613c8957613c8861398c565b5b613c9586828701613c02565b9150509250925092565b600067ffffffffffffffff821115613cba57613cb9613b14565b5b602082029050602081019050919050565b600080fd5b6000613ce3613cde84613c9f565b613b74565b90508083825260208201905060208402830185811115613d0657613d05613ccb565b5b835b81811015613d2f5780613d1b8882613ac9565b845260208401935050602081019050613d08565b5050509392505050565b600082601f830112613d4e57613d4d613b0a565b5b8135613d5e848260208601613cd0565b91505092915050565b600067ffffffffffffffff821115613d8257613d81613b14565b5b602082029050602081019050919050565b6000613da6613da184613d67565b613b74565b90508083825260208201905060208402830185811115613dc957613dc8613ccb565b5b835b81811015613df25780613dde8882613af5565b845260208401935050602081019050613dcb565b5050509392505050565b600082601f830112613e1157613e10613b0a565b5b8135613e21848260208601613d93565b91505092915050565b600067ffffffffffffffff821115613e4557613e44613b14565b5b602082029050602081019050919050565b613e5f81613a16565b8114613e6a57600080fd5b50565b600081359050613e7c81613e56565b92915050565b6000613e95613e9084613e2a565b613b74565b90508083825260208201905060208402830185811115613eb857613eb7613ccb565b5b835b81811015613ee15780613ecd8882613e6d565b845260208401935050602081019050613eba565b5050509392505050565b600082601f830112613f0057613eff613b0a565b5b8135613f10848260208601613e82565b91505092915050565b600067ffffffffffffffff821115613f3457613f33613b14565b5b602082029050602081019050919050565b6000613f58613f5384613f19565b613b74565b90508083825260208201905060208402830185811115613f7b57613f7a613ccb565b5b835b81811015613fc257803567ffffffffffffffff811115613fa057613f9f613b0a565b5b808601613fad8982613c02565b85526020850194505050602081019050613f7d565b5050509392505050565b600082601f830112613fe157613fe0613b0a565b5b8135613ff1848260208601613f45565b91505092915050565b600080600080600060a0868803121561401657614015613987565b5b600086013567ffffffffffffffff8111156140345761403361398c565b5b61404088828901613d39565b955050602086013567ffffffffffffffff8111156140615761406061398c565b5b61406d88828901613d39565b945050604086013567ffffffffffffffff81111561408e5761408d61398c565b5b61409a88828901613dfc565b935050606086013567ffffffffffffffff8111156140bb576140ba61398c565b5b6140c788828901613eeb565b925050608086013567ffffffffffffffff8111156140e8576140e761398c565b5b6140f488828901613fcc565b9150509295509295909350565b6000806000806080858703121561411b5761411a613987565b5b600061412987828801613ac9565b945050602061413a87828801613ac9565b935050604061414b87828801613e6d565b925050606085013567ffffffffffffffff81111561416c5761416b61398c565b5b61417887828801613c02565b91505092959194509250565b600060ff82169050919050565b61419a81614184565b82525050565b60006020820190506141b56000830184614191565b92915050565b600067ffffffffffffffff8211156141d6576141d5613b14565b5b6141df8261391b565b9050602081019050919050565b60006141ff6141fa846141bb565b613b74565b90508281526020810184848401111561421b5761421a613b0f565b5b61422684828561390c565b509392505050565b600082601f83011261424357614242613b0a565b5b81356142538482602086016141ec565b91505092915050565b6000806040838503121561427357614272613987565b5b600061428185828601613af5565b925050602083013567ffffffffffffffff8111156142a2576142a161398c565b5b6142ae8582860161422e565b9150509250929050565b600080604083850312156142cf576142ce613987565b5b60006142dd85828601613ac9565b925050602083013567ffffffffffffffff8111156142fe576142fd61398c565b5b61430a8582860161422e565b9150509250929050565b6000819050919050565b61432781614314565b811461433257600080fd5b50565b6000813590506143448161431e565b92915050565b6000602082840312156143605761435f613987565b5b600061436e84828501614335565b91505092915050565b600081519050919050565b60005b838110156143a0578082015181840152602081019050614385565b60008484015250505050565b60006143b782614377565b6143c181856138af565b93506143d1818560208601614382565b6143da8161391b565b840191505092915050565b600060208201905081810360008301526143ff81846143ac565b905092915050565b60006020828403121561441d5761441c613987565b5b600061442b84828501613ac9565b91505092915050565b6000806040838503121561444b5761444a613987565b5b600061445985828601613ac9565b925050602061446a85828601613ac9565b9150509250929050565b600080fd5b60008083601f84011261448f5761448e613b0a565b5b8235905067ffffffffffffffff8111156144ac576144ab614474565b5b6020830191508360208202830111156144c8576144c7613ccb565b5b9250929050565b600080602083850312156144e6576144e5613987565b5b600083013567ffffffffffffffff8111156145045761450361398c565b5b61451085828601614479565b92509250509250929050565b600081519050919050565b600082825260208201905092915050565b6000819050602082019050919050565b600082825260208201905092915050565b600061456482614377565b61456e8185614548565b935061457e818560208601614382565b6145878161391b565b840191505092915050565b600061459e8383614559565b905092915050565b6000602082019050919050565b60006145be8261451c565b6145c88185614527565b9350836020820285016145da85614538565b8060005b8581101561461657848403895281516145f78582614592565b9450614602836145a6565b925060208a019950506001810190506145de565b50829750879550505050505092915050565b6000602082019050818103600083015261464281846145b3565b905092915050565b600080600080600060a0868803121561466657614665613987565b5b600061467488828901613ac9565b955050602061468588828901613ac9565b945050604061469688828901613af5565b93505060606146a788828901613e6d565b925050608086013567ffffffffffffffff8111156146c8576146c761398c565b5b6146d488828901613c02565b9150509295509295909350565b600080600080608085870312156146fb576146fa613987565b5b600061470987828801613ac9565b945050602061471a87828801613ac9565b935050604061472b87828801613af5565b925050606085013567ffffffffffffffff81111561474c5761474b61398c565b5b61475887828801613c02565b91505092959194509250565b6000806040838503121561477b5761477a613987565b5b600061478985828601614335565b925050602083013567ffffffffffffffff8111156147aa576147a961398c565b5b6147b685828601613c02565b9150509250929050565b6147c981613aa0565b82525050565b60006020820190506147e460008301846147c0565b92915050565b600067ffffffffffffffff82111561480557614804613b14565b5b602082029050602081019050919050565b6000614829614824846147ea565b613b74565b9050808382526020820190506020840283018581111561484c5761484b613ccb565b5b835b8181101561487557806148618882614335565b84526020840193505060208101905061484e565b5050509392505050565b600082601f83011261489457614893613b0a565b5b81356148a4848260208601614816565b91505092915050565b600080604083850312156148c4576148c3613987565b5b600083013567ffffffffffffffff8111156148e2576148e161398c565b5b6148ee8582860161487f565b925050602083013567ffffffffffffffff81111561490f5761490e61398c565b5b61491b85828601613fcc565b9150509250929050565b600060408201905061493a60008301856147c0565b6149476020830184613a56565b9392505050565b600081519050919050565b600082825260208201905092915050565b6000819050602082019050919050565b61498381613aa0565b82525050565b6000614995838361497a565b60208301905092915050565b6000602082019050919050565b60006149b98261494e565b6149c38185614959565b93506149ce8361496a565b8060005b838110156149ff5781516149e68882614989565b97506149f1836149a1565b9250506001810190506149d2565b5085935050505092915050565b60006020820190508181036000830152614a2681846149ae565b905092915050565b600060208284031215614a4457614a43613987565b5b600082013567ffffffffffffffff811115614a6257614a6161398c565b5b614a6e8482850161487f565b91505092915050565b600081519050919050565b600082825260208201905092915050565b6000819050602082019050919050565b600081519050919050565b600082825260208201905092915050565b6000614aca82614aa3565b614ad48185614aae565b9350614ae4818560208601614382565b614aed8161391b565b840191505092915050565b614b0181613a16565b82525050565b6000608083016000830151614b1f600086018261497a565b5060208301518482036020860152614b378282614abf565b91505060408301518482036040860152614b518282614abf565b9150506060830151614b666060860182614af8565b508091505092915050565b6000614b7d8383614b07565b905092915050565b6000602082019050919050565b6000614b9d82614a77565b614ba78185614a82565b935083602082028501614bb985614a93565b8060005b85811015614bf55784840389528151614bd68582614b71565b9450614be183614b85565b925060208a01995050600181019050614bbd565b50829750879550505050505092915050565b60006020820190508181036000830152614c218184614b92565b905092915050565b614c3281613991565b82525050565b6000602082019050614c4d6000830184614c29565b92915050565b600081905092915050565b6000614c6a8385614c53565b9350614c7783858461390c565b82840190509392505050565b60008160601b9050919050565b6000614c9b82614c83565b9050919050565b6000614cad82614c90565b9050919050565b614cc5614cc082613aa0565b614ca2565b82525050565b6000819050919050565b614ce6614ce182613a4c565b614ccb565b82525050565b6000614cf9828688614c5e565b9150614d058285614cb4565b601482019150614d158284614cd5565b60208201915081905095945050505050565b6000614d3282614377565b614d3c8185614c53565b9350614d4c818560208601614382565b80840191505092915050565b6000614d648284614d27565b915081905092915050565b600082825260208201905092915050565b7f50726f66696c6520616c72656164792065786973747300000000000000000000600082015250565b6000614db6601683614d6f565b9150614dc182614d80565b602082019050919050565b60006020820190508181036000830152614de581614da9565b9050919050565b7f4e487b7100000000000000000000000000000000000000000000000000000000600052601160045260246000fd5b6000614e2682613a4c565b9150614e3183613a4c565b9250828201905080821115614e4957614e48614dec565b5b92915050565b6000606082019050614e6460008301866147c0565b614e716020830185613a56565b8181036040830152614e8381846143ac565b9050949350505050565b7f4e487b7100000000000000000000000000000000000000000000000000000000600052603260045260246000fd5b6000606082019050614ed160008301866147c0565b614ede60208301856147c0565b614eeb60408301846147c0565b949350505050565b6000819050919050565b6000819050919050565b6000614f22614f1d614f1884614ef3565b614efd565b614184565b9050919050565b614f3281614f07565b82525050565b6000606082019050614f4d60008301866147c0565b614f5a6020830185614f29565b8181036040830152614f6c81846143ac565b9050949350505050565b7f4f6e6c792070726f66696c65206f776e65722063616e20616e73776572000000600082015250565b6000614fac601d83614d6f565b9150614fb782614f76565b602082019050919050565b60006020820190508181036000830152614fdb81614f9f565b9050919050565b7f496e76616c6964207175657374696f6e20494400000000000000000000000000600082015250565b6000615018601383614d6f565b915061502382614fe2565b602082019050919050565b600060208201905081810360008301526150478161500b565b9050919050565b7f4e487b7100000000000000000000000000000000000000000000000000000000600052602260045260246000fd5b6000600282049050600182168061509557607f821691505b6020821081036150a8576150a761504e565b5b50919050565b60008190508160005260206000209050919050565b60006020601f8301049050919050565b600082821b905092915050565b6000600883026151107fffffffffffffffffffffffffffffffffffffffffffffffffffffffffffffffff826150d3565b61511a86836150d3565b95508019841693508086168417925050509392505050565b600061514d61514861514384613a4c565b614efd565b613a4c565b9050919050565b6000819050919050565b61516783615132565b61517b61517382615154565b8484546150e0565b825550505050565b600090565b615190615183565b61519b81848461515e565b505050565b5b818110156151bf576151b4600082615188565b6001810190506151a1565b5050565b601f821115615204576151d5816150ae565b6151de846150c3565b810160208510156151ed578190505b6152016151f9856150c3565b8301826151a0565b50505b505050565b600082821c905092915050565b600061522760001984600802615209565b1980831691505092915050565b60006152408383615216565b9150826002028217905092915050565b61525982614aa3565b67ffffffffffffffff81111561527257615271613b14565b5b61527c825461507d565b6152878282856151c3565b600060209050601f8311600181146152ba57600084156152a8578287015190505b6152b28582615234565b86555061531a565b601f1984166152c8866150ae565b60005b828110156152f0578489015182556001820191506020850194506020810190506152cb565b8683101561530d5784890151615309601f891682615216565b8355505b6001600288020188555050505b505050505050565b7f596f75206e65656420616e2046515420746f207375626d69742061207175657360008201527f74696f6e00000000000000000000000000000000000000000000000000000000602082015250565b600061537e602483614d6f565b915061538982615322565b604082019050919050565b600060208201905081810360008301526153ad81615371565b9050919050565b7f50726f66696c6520646f6573206e6f7420657869737400000000000000000000600082015250565b60006153ea601683614d6f565b91506153f5826153b4565b602082019050919050565b60006020820190508181036000830152615419816153dd565b9050919050565b7f596f75206861766520616c72656164792061736b65642061207175657374696f60008201527f6e20666f7220746869732070726f66696c650000000000000000000000000000602082015250565b600061547c603283614d6f565b915061548782615420565b604082019050919050565b600060208201905081810360008301526154ab8161546f565b9050919050565b60006154bd82613a4c565b91507fffffffffffffffffffffffffffffffffffffffffffffffffffffffffffffffff82036154ef576154ee614dec565b5b600182019050919050565b7f596f75206861766520616c726561647920636c61696d6564206120746f6b656e60008201527f2066726f6d20746869732070726f66696c650000000000000000000000000000602082015250565b6000615556603283614d6f565b9150615561826154fa565b604082019050919050565b6000602082019050818103600083015261558581615549565b9050919050565b600080fd5b600080fd5b600080fd5b600080833560016020038436030381126155b8576155b761558c565b5b80840192508235915067ffffffffffffffff8211156155da576155d9615591565b5b6020830192506001820236038313156155f6576155f5615596565b5b509250929050565b600061560b828486614c5e565b91508190509392505050565b600061562282613a4c565b915061562d83613a4c565b925082820390508181111561564557615644614dec565b5b92915050565b7f4f776e61626c653a206e6577206f776e657220697320746865207a65726f206160008201527f6464726573730000000000000000000000000000000000000000000000000000602082015250565b60006156a7602683614d6f565b91506156b28261564b565b604082019050919050565b600060208201905081810360008301526156d68161569a565b9050919050565b6000819050602082019050919050565b60007fffffffffffffffffffffffffffffffffffffffff00000000000000000000000082169050919050565b600061572582516156ed565b80915050919050565b600061573982614377565b82615743846156dd565b905061574e81615719565b9250601482101561578e576157897fffffffffffffffffffffffffffffffffffffffff000000000000000000000000836014036008026150d3565b831692505b5050919050565b600060a0820190506157aa60008301886147c0565b6157b760208301876147c0565b6157c460408301866147c0565b6157d16060830185613a56565b81810360808301526157e381846143ac565b90509695505050505050565b7f4f776e61626c653a2063616c6c6572206973206e6f7420746865206f776e6572600082015250565b6000615825602083614d6f565b9150615830826157ef565b602082019050919050565b6000602082019050818103600083015261585481615818565b9050919050565b600060808201905061587060008301876147c0565b61587d6020830186613a56565b61588a60408301856147c0565b6158976060830184613a56565b95945050505050565b60008190508160005260206000209050919050565b601f8211156158f6576158c7816158a0565b6158d0846150c3565b810160208510156158df578190505b6158f36158eb856150c3565b8301826151a0565b50505b505050565b61590482614377565b67ffffffffffffffff81111561591d5761591c613b14565b5b615927825461507d565b6159328282856158b5565b600060209050601f8311600181146159655760008415615953578287015190505b61595d8582615234565b8655506159c5565b601f198416615973866158a0565b60005b8281101561599b57848901518255600182019150602085019450602081019050615976565b868310156159b857848901516159b4601f891682615216565b8355505b6001600288020188555050505b505050505050565b60007fffffffffffffffffffff0000000000000000000000000000000000000000000082169050919050565b6000819050919050565b615a14615a0f826159cd565b6159f9565b82525050565b60007fffff00000000000000000000000000000000000000000000000000000000000082169050919050565b6000819050919050565b615a61615a5c82615a1a565b615a46565b82525050565b6000819050919050565b615a82615a7d826156ed565b615a67565b82525050565b6000615a948286615a03565b600a82019150615aa48285615a50565b600282019150615ab48284615a71565b601482019150819050949350505050565b6000615ad18251614314565b80915050919050565b6000615ae582614377565b82615aef846156dd565b9050615afa81615ac5565b92506020821015615b3a57615b357fffffffffffffffffffffffffffffffffffffffffffffffffffffffffffffffff836020036008026150d3565b831692505b5050919050565b615b4a81614314565b82525050565b6000604082019050615b656000830185615b41565b8181036020830152615b7781846143ac565b90509392505050565b6000615b93615b8e84613b8f565b613b74565b905082815260208101848484011115615baf57615bae613b0f565b5b615bba848285614382565b509392505050565b600082601f830112615bd757615bd6613b0a565b5b8151615be7848260208601615b80565b91505092915050565b600060208284031215615c0657615c05613987565b5b600082015167ffffffffffffffff811115615c2457615c2361398c565b5b615c3084828501615bc2565b91505092915050565b6000606082019050615c4e6000830186613a56565b615c5b60208301856147c0565b615c686040830184613a56565b949350505050565b6000606082019050615c856000830186613a56565b615c926020830185613a22565b8181036040830152615ca481846143ac565b9050949350505050565b7f4e487b7100000000000000000000000000000000000000000000000000000000600052603160045260246000fdfea264697066735822122018c51c686579725a99fa24ac1cbbe746fc6d6df3ee6db735d94038ceafcb184264736f6c63430008130033","opcodes":"PUSH1 0x80 PUSH1 0x40 MSTORE CALLVALUE DUP1 ISZERO PUSH3 0x11 JUMPI PUSH1 0x0 DUP1 REVERT JUMPDEST POP PUSH1 0x40 MLOAD PUSH3 0x65C7 CODESIZE SUB DUP1 PUSH3 0x65C7 DUP4 CODECOPY DUP2 DUP2 ADD PUSH1 0x40 MSTORE DUP2 ADD SWAP1 PUSH3 0x37 SWAP2 SWAP1 PUSH3 0x430 JUMP JUMPDEST PUSH1 0x40 MLOAD DUP1 PUSH1 0x40 ADD PUSH1 0x40 MSTORE DUP1 PUSH1 0x13 DUP2 MSTORE PUSH1 0x20 ADD PUSH32 0x46726565205175657374696F6E20546F6B656E00000000000000000000000000 DUP2 MSTORE POP PUSH1 0x40 MLOAD DUP1 PUSH1 0x40 ADD PUSH1 0x40 MSTORE DUP1 PUSH1 0x3 DUP2 MSTORE PUSH1 0x20 ADD PUSH32 0x4651540000000000000000000000000000000000000000000000000000000000 DUP2 MSTORE POP CALLER PUSH1 0x0 DUP1 DUP5 DUP5 DUP5 DUP5 DUP2 PUSH3 0xCC PUSH3 0xC0 PUSH3 0x299 PUSH1 0x20 SHL PUSH1 0x20 SHR JUMP JUMPDEST PUSH3 0x2A1 PUSH1 0x20 SHL PUSH1 0x20 SHR JUMP JUMPDEST PUSH1 0x0 PUSH20 0xFFFFFFFFFFFFFFFFFFFFFFFFFFFFFFFFFFFFFFFF AND DUP2 PUSH20 0xFFFFFFFFFFFFFFFFFFFFFFFFFFFFFFFFFFFFFFFF AND SUB PUSH3 0x133 JUMPI PUSH1 0x40 MLOAD PUSH32 0x1AD8836C00000000000000000000000000000000000000000000000000000000 DUP2 MSTORE PUSH1 0x4 ADD PUSH1 0x40 MLOAD DUP1 SWAP2 SUB SWAP1 REVERT JUMPDEST PUSH3 0x144 DUP2 PUSH3 0x2A1 PUSH1 0x20 SHL PUSH1 0x20 SHR JUMP JUMPDEST POP PUSH3 0x1AF PUSH32 0xEAFEC4D89FA9619884B60000A4D96624A38F7AC2D8D9A604ECF07C12C77E480C PUSH1 0x0 SHL PUSH1 0x40 MLOAD DUP1 PUSH1 0x40 ADD PUSH1 0x40 MSTORE DUP1 PUSH1 0x4 DUP2 MSTORE PUSH1 0x20 ADD PUSH32 0xA4D9662400000000000000000000000000000000000000000000000000000000 DUP2 MSTORE POP PUSH3 0x365 PUSH1 0x20 SHL PUSH1 0x20 SHR JUMP JUMPDEST PUSH3 0x1E4 PUSH32 0xDEBA1E292F8BA88238E10AB3C7F88BD4BE4FAC56CAD5194B6ECCEAF653468AF1 PUSH1 0x0 SHL DUP6 PUSH3 0x365 PUSH1 0x20 SHL PUSH1 0x20 SHR JUMP JUMPDEST PUSH3 0x219 PUSH32 0x2F0A68AB07768E01943A599E73362A0E17A63A72E94DD2E384D2C1D4DB932756 PUSH1 0x0 SHL DUP5 PUSH3 0x365 PUSH1 0x20 SHL PUSH1 0x20 SHR JUMP JUMPDEST PUSH3 0x26F PUSH32 0xE0261FA95DB2EB3B5439BD033CDA66D56B96F92F243A8228FD87550ED7BDFDB3 PUSH1 0x0 SHL DUP3 PUSH1 0x40 MLOAD PUSH1 0x20 ADD PUSH3 0x254 SWAP2 SWAP1 PUSH3 0x47D JUMP JUMPDEST PUSH1 0x40 MLOAD PUSH1 0x20 DUP2 DUP4 SUB SUB DUP2 MSTORE SWAP1 PUSH1 0x40 MSTORE PUSH3 0x365 PUSH1 0x20 SHL PUSH1 0x20 SHR JUMP JUMPDEST POP POP POP POP DUP1 PUSH1 0x2 PUSH1 0x0 PUSH2 0x100 EXP DUP2 SLOAD DUP2 PUSH1 0xFF MUL NOT AND SWAP1 DUP4 ISZERO ISZERO MUL OR SWAP1 SSTORE POP POP POP POP POP POP POP PUSH3 0x8A4 JUMP JUMPDEST PUSH1 0x0 CALLER SWAP1 POP SWAP1 JUMP JUMPDEST PUSH1 0x0 DUP1 PUSH1 0x0 SWAP1 SLOAD SWAP1 PUSH2 0x100 EXP SWAP1 DIV PUSH20 0xFFFFFFFFFFFFFFFFFFFFFFFFFFFFFFFFFFFFFFFF AND SWAP1 POP DUP2 PUSH1 0x0 DUP1 PUSH2 0x100 EXP DUP2 SLOAD DUP2 PUSH20 0xFFFFFFFFFFFFFFFFFFFFFFFFFFFFFFFFFFFFFFFF MUL NOT AND SWAP1 DUP4 PUSH20 0xFFFFFFFFFFFFFFFFFFFFFFFFFFFFFFFFFFFFFFFF AND MUL OR SWAP1 SSTORE POP DUP2 PUSH20 0xFFFFFFFFFFFFFFFFFFFFFFFFFFFFFFFFFFFFFFFF AND DUP2 PUSH20 0xFFFFFFFFFFFFFFFFFFFFFFFFFFFFFFFFFFFFFFFF AND PUSH32 0x8BE0079C531659141344CD1FD0A4F28419497F9722A3DAAFE3B4186F6B6457E0 PUSH1 0x40 MLOAD PUSH1 0x40 MLOAD DUP1 SWAP2 SUB SWAP1 LOG3 POP POP JUMP JUMPDEST DUP1 PUSH1 0x1 PUSH1 0x0 DUP5 DUP2 MSTORE PUSH1 0x20 ADD SWAP1 DUP2 MSTORE PUSH1 0x20 ADD PUSH1 0x0 KECCAK256 SWAP1 DUP2 PUSH3 0x387 SWAP2 SWAP1 PUSH3 0x70A JUMP JUMPDEST POP DUP2 PUSH32 0xECE574603820D07BC9B91F2A932BAADF4628AABCB8AFBA49776529C14A6104B2 DUP3 PUSH1 0x40 MLOAD PUSH3 0x3BA SWAP2 SWAP1 PUSH3 0x880 JUMP JUMPDEST PUSH1 0x40 MLOAD DUP1 SWAP2 SUB SWAP1 LOG2 POP POP JUMP JUMPDEST PUSH1 0x0 DUP1 REVERT JUMPDEST PUSH1 0x0 PUSH20 0xFFFFFFFFFFFFFFFFFFFFFFFFFFFFFFFFFFFFFFFF DUP3 AND SWAP1 POP SWAP2 SWAP1 POP JUMP JUMPDEST PUSH1 0x0 PUSH3 0x3F8 DUP3 PUSH3 0x3CB JUMP JUMPDEST SWAP1 POP SWAP2 SWAP1 POP JUMP JUMPDEST PUSH3 0x40A DUP2 PUSH3 0x3EB JUMP JUMPDEST DUP2 EQ PUSH3 0x416 JUMPI PUSH1 0x0 DUP1 REVERT JUMPDEST POP JUMP JUMPDEST PUSH1 0x0 DUP2 MLOAD SWAP1 POP PUSH3 0x42A DUP2 PUSH3 0x3FF JUMP JUMPDEST SWAP3 SWAP2 POP POP JUMP JUMPDEST PUSH1 0x0 PUSH1 0x20 DUP3 DUP5 SUB SLT ISZERO PUSH3 0x449 JUMPI PUSH3 0x448 PUSH3 0x3C6 JUMP JUMPDEST JUMPDEST PUSH1 0x0 PUSH3 0x459 DUP5 DUP3 DUP6 ADD PUSH3 0x419 JUMP JUMPDEST SWAP2 POP POP SWAP3 SWAP2 POP POP JUMP JUMPDEST PUSH1 0x0 DUP2 SWAP1 POP SWAP2 SWAP1 POP JUMP JUMPDEST PUSH3 0x477 DUP2 PUSH3 0x462 JUMP JUMPDEST DUP3 MSTORE POP POP JUMP JUMPDEST PUSH1 0x0 PUSH1 0x20 DUP3 ADD SWAP1 POP PUSH3 0x494 PUSH1 0x0 DUP4 ADD DUP5 PUSH3 0x46C JUMP JUMPDEST SWAP3 SWAP2 POP POP JUMP JUMPDEST PUSH1 0x0 DUP2 MLOAD SWAP1 POP SWAP2 SWAP1 POP JUMP JUMPDEST PUSH32 0x4E487B7100000000000000000000000000000000000000000000000000000000 PUSH1 0x0 MSTORE PUSH1 0x41 PUSH1 0x4 MSTORE PUSH1 0x24 PUSH1 0x0 REVERT JUMPDEST PUSH32 0x4E487B7100000000000000000000000000000000000000000000000000000000 PUSH1 0x0 MSTORE PUSH1 0x22 PUSH1 0x4 MSTORE PUSH1 0x24 PUSH1 0x0 REVERT JUMPDEST PUSH1 0x0 PUSH1 0x2 DUP3 DIV SWAP1 POP PUSH1 0x1 DUP3 AND DUP1 PUSH3 0x51C JUMPI PUSH1 0x7F DUP3 AND SWAP2 POP JUMPDEST PUSH1 0x20 DUP3 LT DUP2 SUB PUSH3 0x532 JUMPI PUSH3 0x531 PUSH3 0x4D4 JUMP JUMPDEST JUMPDEST POP SWAP2 SWAP1 POP JUMP JUMPDEST PUSH1 0x0 DUP2 SWAP1 POP DUP2 PUSH1 0x0 MSTORE PUSH1 0x20 PUSH1 0x0 KECCAK256 SWAP1 POP SWAP2 SWAP1 POP JUMP JUMPDEST PUSH1 0x0 PUSH1 0x20 PUSH1 0x1F DUP4 ADD DIV SWAP1 POP SWAP2 SWAP1 POP JUMP JUMPDEST PUSH1 0x0 DUP3 DUP3 SHL SWAP1 POP SWAP3 SWAP2 POP POP JUMP JUMPDEST PUSH1 0x0 PUSH1 0x8 DUP4 MUL PUSH3 0x59C PUSH32 0xFFFFFFFFFFFFFFFFFFFFFFFFFFFFFFFFFFFFFFFFFFFFFFFFFFFFFFFFFFFFFFFF DUP3 PUSH3 0x55D JUMP JUMPDEST PUSH3 0x5A8 DUP7 DUP4 PUSH3 0x55D JUMP JUMPDEST SWAP6 POP DUP1 NOT DUP5 AND SWAP4 POP DUP1 DUP7 AND DUP5 OR SWAP3 POP POP POP SWAP4 SWAP3 POP POP POP JUMP JUMPDEST PUSH1 0x0 DUP2 SWAP1 POP SWAP2 SWAP1 POP JUMP JUMPDEST PUSH1 0x0 PUSH3 0x5EB PUSH3 0x5E5 PUSH3 0x5DF DUP5 PUSH3 0x462 JUMP JUMPDEST PUSH3 0x5C0 JUMP JUMPDEST PUSH3 0x462 JUMP JUMPDEST SWAP1 POP SWAP2 SWAP1 POP JUMP JUMPDEST PUSH1 0x0 DUP2 SWAP1 POP SWAP2 SWAP1 POP JUMP JUMPDEST PUSH3 0x607 DUP4 PUSH3 0x5CA JUMP JUMPDEST PUSH3 0x61F PUSH3 0x616 DUP3 PUSH3 0x5F2 JUMP JUMPDEST DUP5 DUP5 SLOAD PUSH3 0x56A JUMP JUMPDEST DUP3 SSTORE POP POP POP POP JUMP JUMPDEST PUSH1 0x0 SWAP1 JUMP JUMPDEST PUSH3 0x636 PUSH3 0x627 JUMP JUMPDEST PUSH3 0x643 DUP2 DUP5 DUP5 PUSH3 0x5FC JUMP JUMPDEST POP POP POP JUMP JUMPDEST JUMPDEST DUP2 DUP2 LT ISZERO PUSH3 0x66B JUMPI PUSH3 0x65F PUSH1 0x0 DUP3 PUSH3 0x62C JUMP JUMPDEST PUSH1 0x1 DUP2 ADD SWAP1 POP PUSH3 0x649 JUMP JUMPDEST POP POP JUMP JUMPDEST PUSH1 0x1F DUP3 GT ISZERO PUSH3 0x6BA JUMPI PUSH3 0x684 DUP2 PUSH3 0x538 JUMP JUMPDEST PUSH3 0x68F DUP5 PUSH3 0x54D JUMP JUMPDEST DUP2 ADD PUSH1 0x20 DUP6 LT ISZERO PUSH3 0x69F JUMPI DUP2 SWAP1 POP JUMPDEST PUSH3 0x6B7 PUSH3 0x6AE DUP6 PUSH3 0x54D JUMP JUMPDEST DUP4 ADD DUP3 PUSH3 0x648 JUMP JUMPDEST POP POP JUMPDEST POP POP POP JUMP JUMPDEST PUSH1 0x0 DUP3 DUP3 SHR SWAP1 POP SWAP3 SWAP2 POP POP JUMP JUMPDEST PUSH1 0x0 PUSH3 0x6DF PUSH1 0x0 NOT DUP5 PUSH1 0x8 MUL PUSH3 0x6BF JUMP JUMPDEST NOT DUP1 DUP4 AND SWAP2 POP POP SWAP3 SWAP2 POP POP JUMP JUMPDEST PUSH1 0x0 PUSH3 0x6FA DUP4 DUP4 PUSH3 0x6CC JUMP JUMPDEST SWAP2 POP DUP3 PUSH1 0x2 MUL DUP3 OR SWAP1 POP SWAP3 SWAP2 POP POP JUMP JUMPDEST PUSH3 0x715 DUP3 PUSH3 0x49A JUMP JUMPDEST PUSH8 0xFFFFFFFFFFFFFFFF DUP2 GT ISZERO PUSH3 0x731 JUMPI PUSH3 0x730 PUSH3 0x4A5 JUMP JUMPDEST JUMPDEST PUSH3 0x73D DUP3 SLOAD PUSH3 0x503 JUMP JUMPDEST PUSH3 0x74A DUP3 DUP3 DUP6 PUSH3 0x66F JUMP JUMPDEST PUSH1 0x0 PUSH1 0x20 SWAP1 POP PUSH1 0x1F DUP4 GT PUSH1 0x1 DUP2 EQ PUSH3 0x782 JUMPI PUSH1 0x0 DUP5 ISZERO PUSH3 0x76D JUMPI DUP3 DUP8 ADD MLOAD SWAP1 POP JUMPDEST PUSH3 0x779 DUP6 DUP3 PUSH3 0x6EC JUMP JUMPDEST DUP7 SSTORE POP PUSH3 0x7E9 JUMP JUMPDEST PUSH1 0x1F NOT DUP5 AND PUSH3 0x792 DUP7 PUSH3 0x538 JUMP JUMPDEST PUSH1 0x0 JUMPDEST DUP3 DUP2 LT ISZERO PUSH3 0x7BC JUMPI DUP5 DUP10 ADD MLOAD DUP3 SSTORE PUSH1 0x1 DUP3 ADD SWAP2 POP PUSH1 0x20 DUP6 ADD SWAP5 POP PUSH1 0x20 DUP2 ADD SWAP1 POP PUSH3 0x795 JUMP JUMPDEST DUP7 DUP4 LT ISZERO PUSH3 0x7DC JUMPI DUP5 DUP10 ADD MLOAD PUSH3 0x7D8 PUSH1 0x1F DUP10 AND DUP3 PUSH3 0x6CC JUMP JUMPDEST DUP4 SSTORE POP JUMPDEST PUSH1 0x1 PUSH1 0x2 DUP9 MUL ADD DUP9 SSTORE POP POP POP JUMPDEST POP POP POP POP POP POP JUMP JUMPDEST PUSH1 0x0 DUP3 DUP3 MSTORE PUSH1 0x20 DUP3 ADD SWAP1 POP SWAP3 SWAP2 POP POP JUMP JUMPDEST PUSH1 0x0 JUMPDEST DUP4 DUP2 LT ISZERO PUSH3 0x822 JUMPI DUP1 DUP3 ADD MLOAD DUP2 DUP5 ADD MSTORE PUSH1 0x20 DUP2 ADD SWAP1 POP PUSH3 0x805 JUMP JUMPDEST PUSH1 0x0 DUP5 DUP5 ADD MSTORE POP POP POP POP JUMP JUMPDEST PUSH1 0x0 PUSH1 0x1F NOT PUSH1 0x1F DUP4 ADD AND SWAP1 POP SWAP2 SWAP1 POP JUMP JUMPDEST PUSH1 0x0 PUSH3 0x84C DUP3 PUSH3 0x49A JUMP JUMPDEST PUSH3 0x858 DUP2 DUP6 PUSH3 0x7F1 JUMP JUMPDEST SWAP4 POP PUSH3 0x86A DUP2 DUP6 PUSH1 0x20 DUP7 ADD PUSH3 0x802 JUMP JUMPDEST PUSH3 0x875 DUP2 PUSH3 0x82E JUMP JUMPDEST DUP5 ADD SWAP2 POP POP SWAP3 SWAP2 POP POP JUMP JUMPDEST PUSH1 0x0 PUSH1 0x20 DUP3 ADD SWAP1 POP DUP2 DUP2 SUB PUSH1 0x0 DUP4 ADD MSTORE PUSH3 0x89C DUP2 DUP5 PUSH3 0x83F JUMP JUMPDEST SWAP1 POP SWAP3 SWAP2 POP POP JUMP JUMPDEST PUSH2 0x5D13 DUP1 PUSH3 0x8B4 PUSH1 0x0 CODECOPY PUSH1 0x0 RETURN INVALID PUSH1 0x80 PUSH1 0x40 MSTORE PUSH1 0x4 CALLDATASIZE LT PUSH2 0x1D0 JUMPI PUSH1 0x0 CALLDATALOAD PUSH1 0xE0 SHR DUP1 PUSH4 0x760D9BBA GT PUSH2 0xF7 JUMPI DUP1 PUSH4 0xB49506FD GT PUSH2 0x95 JUMPI DUP1 PUSH4 0xDEDFF9C6 GT PUSH2 0x64 JUMPI DUP1 PUSH4 0xDEDFF9C6 EQ PUSH2 0x76D JUMPI DUP1 PUSH4 0xEF6CC0EA EQ PUSH2 0x7AA JUMPI DUP1 PUSH4 0xF2FDE38B EQ PUSH2 0x7E7 JUMPI DUP1 PUSH4 0xF87FD04A EQ PUSH2 0x810 JUMPI PUSH2 0x24A JUMP JUMPDEST DUP1 PUSH4 0xB49506FD EQ PUSH2 0x68C JUMPI DUP1 PUSH4 0xB4B29FE5 EQ PUSH2 0x6B5 JUMPI DUP1 PUSH4 0xBBE15627 EQ PUSH2 0x6F2 JUMPI DUP1 PUSH4 0xD72FC29A EQ PUSH2 0x730 JUMPI PUSH2 0x24A JUMP JUMPDEST DUP1 PUSH4 0x821DC5D1 GT PUSH2 0xD1 JUMPI DUP1 PUSH4 0x821DC5D1 EQ PUSH2 0x5CB JUMPI DUP1 PUSH4 0x8DA5CB5B EQ PUSH2 0x608 JUMPI DUP1 PUSH4 0x97902421 EQ PUSH2 0x633 JUMPI DUP1 PUSH4 0xA787C80B EQ PUSH2 0x64F JUMPI PUSH2 0x24A JUMP JUMPDEST DUP1 PUSH4 0x760D9BBA EQ PUSH2 0x55D JUMPI DUP1 PUSH4 0x78381670 EQ PUSH2 0x586 JUMPI DUP1 PUSH4 0x7F23690C EQ PUSH2 0x5AF JUMPI PUSH2 0x24A JUMP JUMPDEST DUP1 PUSH4 0x447E52A0 GT PUSH2 0x16F JUMPI DUP1 PUSH4 0x65AEAA95 GT PUSH2 0x13E JUMPI DUP1 PUSH4 0x65AEAA95 EQ PUSH2 0x48F JUMPI DUP1 PUSH4 0x6963D438 EQ PUSH2 0x4CC JUMPI DUP1 PUSH4 0x70A08231 EQ PUSH2 0x509 JUMPI DUP1 PUSH4 0x715018A6 EQ PUSH2 0x546 JUMPI PUSH2 0x24A JUMP JUMPDEST DUP1 PUSH4 0x447E52A0 EQ PUSH2 0x3D7 JUMPI DUP1 PUSH4 0x50743176 EQ PUSH2 0x400 JUMPI DUP1 PUSH4 0x54F6127F EQ PUSH2 0x429 JUMPI DUP1 PUSH4 0x5BF4C7DA EQ PUSH2 0x466 JUMPI PUSH2 0x24A JUMP JUMPDEST DUP1 PUSH4 0x2BC1DA82 GT PUSH2 0x1AB JUMPI DUP1 PUSH4 0x2BC1DA82 EQ PUSH2 0x331 JUMPI DUP1 PUSH4 0x2D7667C9 EQ PUSH2 0x35A JUMPI DUP1 PUSH4 0x30D0DC37 EQ PUSH2 0x383 JUMPI DUP1 PUSH4 0x313CE567 EQ PUSH2 0x3AC JUMPI PUSH2 0x24A JUMP JUMPDEST DUP1 PUSH3 0x547664 EQ PUSH2 0x2B2 JUMPI DUP1 PUSH4 0x1FFC9A7 EQ PUSH2 0x2C9 JUMPI DUP1 PUSH4 0x18160DDD EQ PUSH2 0x306 JUMPI PUSH2 0x24A JUMP JUMPDEST CALLDATASIZE PUSH2 0x24A JUMPI PUSH1 0x0 CALLVALUE SUB PUSH2 0x218 JUMPI PUSH1 0x40 MLOAD PUSH32 0xE5099EE300000000000000000000000000000000000000000000000000000000 DUP2 MSTORE PUSH1 0x4 ADD PUSH2 0x20F SWAP1 PUSH2 0x38EC JUMP JUMPDEST PUSH1 0x40 MLOAD DUP1 SWAP2 SUB SWAP1 REVERT JUMPDEST PUSH1 0x40 MLOAD PUSH32 0x388F5ADC00000000000000000000000000000000000000000000000000000000 DUP2 MSTORE PUSH1 0x4 ADD PUSH1 0x40 MLOAD DUP1 SWAP2 SUB SWAP1 REVERT JUMPDEST PUSH1 0x0 CALLDATASIZE PUSH1 0x60 PUSH1 0x4 PUSH1 0x0 CALLDATASIZE SWAP1 POP LT ISZERO PUSH2 0x29B JUMPI DUP3 DUP3 PUSH1 0x40 MLOAD PUSH32 0xE5099EE300000000000000000000000000000000000000000000000000000000 DUP2 MSTORE PUSH1 0x4 ADD PUSH2 0x292 SWAP3 SWAP2 SWAP1 PUSH2 0x3959 JUMP JUMPDEST PUSH1 0x40 MLOAD DUP1 SWAP2 SUB SWAP1 REVERT JUMPDEST PUSH2 0x2A5 DUP4 DUP4 PUSH2 0x84D JUMP JUMPDEST SWAP1 POP SWAP2 POP POP DUP1 MLOAD SWAP1 PUSH1 0x20 ADD RETURN JUMPDEST CALLVALUE DUP1 ISZERO PUSH2 0x2BE JUMPI PUSH1 0x0 DUP1 REVERT JUMPDEST POP PUSH2 0x2C7 PUSH2 0x9CB JUMP JUMPDEST STOP JUMPDEST CALLVALUE DUP1 ISZERO PUSH2 0x2D5 JUMPI PUSH1 0x0 DUP1 REVERT JUMPDEST POP PUSH2 0x2F0 PUSH1 0x4 DUP1 CALLDATASIZE SUB DUP2 ADD SWAP1 PUSH2 0x2EB SWAP2 SWAP1 PUSH2 0x39E9 JUMP JUMPDEST PUSH2 0xB1F JUMP JUMPDEST PUSH1 0x40 MLOAD PUSH2 0x2FD SWAP2 SWAP1 PUSH2 0x3A31 JUMP JUMPDEST PUSH1 0x40 MLOAD DUP1 SWAP2 SUB SWAP1 RETURN JUMPDEST CALLVALUE DUP1 ISZERO PUSH2 0x312 JUMPI PUSH1 0x0 DUP1 REVERT JUMPDEST POP PUSH2 0x31B PUSH2 0xB90 JUMP JUMPDEST PUSH1 0x40 MLOAD PUSH2 0x328 SWAP2 SWAP1 PUSH2 0x3A65 JUMP JUMPDEST PUSH1 0x40 MLOAD DUP1 SWAP2 SUB SWAP1 RETURN JUMPDEST CALLVALUE DUP1 ISZERO PUSH2 0x33D JUMPI PUSH1 0x0 DUP1 REVERT JUMPDEST POP PUSH2 0x358 PUSH1 0x4 DUP1 CALLDATASIZE SUB DUP2 ADD SWAP1 PUSH2 0x353 SWAP2 SWAP1 PUSH2 0x3C30 JUMP JUMPDEST PUSH2 0xB9A JUMP JUMPDEST STOP JUMPDEST CALLVALUE DUP1 ISZERO PUSH2 0x366 JUMPI PUSH1 0x0 DUP1 REVERT JUMPDEST POP PUSH2 0x381 PUSH1 0x4 DUP1 CALLDATASIZE SUB DUP2 ADD SWAP1 PUSH2 0x37C SWAP2 SWAP1 PUSH2 0x3FFA JUMP JUMPDEST PUSH2 0xC45 JUMP JUMPDEST STOP JUMPDEST CALLVALUE DUP1 ISZERO PUSH2 0x38F JUMPI PUSH1 0x0 DUP1 REVERT JUMPDEST POP PUSH2 0x3AA PUSH1 0x4 DUP1 CALLDATASIZE SUB DUP2 ADD SWAP1 PUSH2 0x3A5 SWAP2 SWAP1 PUSH2 0x4101 JUMP JUMPDEST PUSH2 0xD59 JUMP JUMPDEST STOP JUMPDEST CALLVALUE DUP1 ISZERO PUSH2 0x3B8 JUMPI PUSH1 0x0 DUP1 REVERT JUMPDEST POP PUSH2 0x3C1 PUSH2 0xE56 JUMP JUMPDEST PUSH1 0x40 MLOAD PUSH2 0x3CE SWAP2 SWAP1 PUSH2 0x41A0 JUMP JUMPDEST PUSH1 0x40 MLOAD DUP1 SWAP2 SUB SWAP1 RETURN JUMPDEST CALLVALUE DUP1 ISZERO PUSH2 0x3E3 JUMPI PUSH1 0x0 DUP1 REVERT JUMPDEST POP PUSH2 0x3FE PUSH1 0x4 DUP1 CALLDATASIZE SUB DUP2 ADD SWAP1 PUSH2 0x3F9 SWAP2 SWAP1 PUSH2 0x425C JUMP JUMPDEST PUSH2 0xE7B JUMP JUMPDEST STOP JUMPDEST CALLVALUE DUP1 ISZERO PUSH2 0x40C JUMPI PUSH1 0x0 DUP1 REVERT JUMPDEST POP PUSH2 0x427 PUSH1 0x4 DUP1 CALLDATASIZE SUB DUP2 ADD SWAP1 PUSH2 0x422 SWAP2 SWAP1 PUSH2 0x42B8 JUMP JUMPDEST PUSH2 0xFE5 JUMP JUMPDEST STOP JUMPDEST CALLVALUE DUP1 ISZERO PUSH2 0x435 JUMPI PUSH1 0x0 DUP1 REVERT JUMPDEST POP PUSH2 0x450 PUSH1 0x4 DUP1 CALLDATASIZE SUB DUP2 ADD SWAP1 PUSH2 0x44B SWAP2 SWAP1 PUSH2 0x434A JUMP JUMPDEST PUSH2 0x1356 JUMP JUMPDEST PUSH1 0x40 MLOAD PUSH2 0x45D SWAP2 SWAP1 PUSH2 0x43E5 JUMP JUMPDEST PUSH1 0x40 MLOAD DUP1 SWAP2 SUB SWAP1 RETURN JUMPDEST CALLVALUE DUP1 ISZERO PUSH2 0x472 JUMPI PUSH1 0x0 DUP1 REVERT JUMPDEST POP PUSH2 0x48D PUSH1 0x4 DUP1 CALLDATASIZE SUB DUP2 ADD SWAP1 PUSH2 0x488 SWAP2 SWAP1 PUSH2 0x4407 JUMP JUMPDEST PUSH2 0x1368 JUMP JUMPDEST STOP JUMPDEST CALLVALUE DUP1 ISZERO PUSH2 0x49B JUMPI PUSH1 0x0 DUP1 REVERT JUMPDEST POP PUSH2 0x4B6 PUSH1 0x4 DUP1 CALLDATASIZE SUB DUP2 ADD SWAP1 PUSH2 0x4B1 SWAP2 SWAP1 PUSH2 0x4434 JUMP JUMPDEST PUSH2 0x1575 JUMP JUMPDEST PUSH1 0x40 MLOAD PUSH2 0x4C3 SWAP2 SWAP1 PUSH2 0x3A65 JUMP JUMPDEST PUSH1 0x40 MLOAD DUP1 SWAP2 SUB SWAP1 RETURN JUMPDEST CALLVALUE DUP1 ISZERO PUSH2 0x4D8 JUMPI PUSH1 0x0 DUP1 REVERT JUMPDEST POP PUSH2 0x4F3 PUSH1 0x4 DUP1 CALLDATASIZE SUB DUP2 ADD SWAP1 PUSH2 0x4EE SWAP2 SWAP1 PUSH2 0x44CF JUMP JUMPDEST PUSH2 0x1677 JUMP JUMPDEST PUSH1 0x40 MLOAD PUSH2 0x500 SWAP2 SWAP1 PUSH2 0x4628 JUMP JUMPDEST PUSH1 0x40 MLOAD DUP1 SWAP2 SUB SWAP1 RETURN JUMPDEST CALLVALUE DUP1 ISZERO PUSH2 0x515 JUMPI PUSH1 0x0 DUP1 REVERT JUMPDEST POP PUSH2 0x530 PUSH1 0x4 DUP1 CALLDATASIZE SUB DUP2 ADD SWAP1 PUSH2 0x52B SWAP2 SWAP1 PUSH2 0x4407 JUMP JUMPDEST PUSH2 0x17F3 JUMP JUMPDEST PUSH1 0x40 MLOAD PUSH2 0x53D SWAP2 SWAP1 PUSH2 0x3A65 JUMP JUMPDEST PUSH1 0x40 MLOAD DUP1 SWAP2 SUB SWAP1 RETURN JUMPDEST CALLVALUE DUP1 ISZERO PUSH2 0x552 JUMPI PUSH1 0x0 DUP1 REVERT JUMPDEST POP PUSH2 0x55B PUSH2 0x183C JUMP JUMPDEST STOP JUMPDEST CALLVALUE DUP1 ISZERO PUSH2 0x569 JUMPI PUSH1 0x0 DUP1 REVERT JUMPDEST POP PUSH2 0x584 PUSH1 0x4 DUP1 CALLDATASIZE SUB DUP2 ADD SWAP1 PUSH2 0x57F SWAP2 SWAP1 PUSH2 0x464A JUMP JUMPDEST PUSH2 0x1850 JUMP JUMPDEST STOP JUMPDEST CALLVALUE DUP1 ISZERO PUSH2 0x592 JUMPI PUSH1 0x0 DUP1 REVERT JUMPDEST POP PUSH2 0x5AD PUSH1 0x4 DUP1 CALLDATASIZE SUB DUP2 ADD SWAP1 PUSH2 0x5A8 SWAP2 SWAP1 PUSH2 0x46E1 JUMP JUMPDEST PUSH2 0x18A3 JUMP JUMPDEST STOP JUMPDEST PUSH2 0x5C9 PUSH1 0x4 DUP1 CALLDATASIZE SUB DUP2 ADD SWAP1 PUSH2 0x5C4 SWAP2 SWAP1 PUSH2 0x4764 JUMP JUMPDEST PUSH2 0x19E9 JUMP JUMPDEST STOP JUMPDEST CALLVALUE DUP1 ISZERO PUSH2 0x5D7 JUMPI PUSH1 0x0 DUP1 REVERT JUMPDEST POP PUSH2 0x5F2 PUSH1 0x4 DUP1 CALLDATASIZE SUB DUP2 ADD SWAP1 PUSH2 0x5ED SWAP2 SWAP1 PUSH2 0x4407 JUMP JUMPDEST PUSH2 0x1A39 JUMP JUMPDEST PUSH1 0x40 MLOAD PUSH2 0x5FF SWAP2 SWAP1 PUSH2 0x3A65 JUMP JUMPDEST PUSH1 0x40 MLOAD DUP1 SWAP2 SUB SWAP1 RETURN JUMPDEST CALLVALUE DUP1 ISZERO PUSH2 0x614 JUMPI PUSH1 0x0 DUP1 REVERT JUMPDEST POP PUSH2 0x61D PUSH2 0x1A4B JUMP JUMPDEST PUSH1 0x40 MLOAD PUSH2 0x62A SWAP2 SWAP1 PUSH2 0x47CF JUMP JUMPDEST PUSH1 0x40 MLOAD DUP1 SWAP2 SUB SWAP1 RETURN JUMPDEST PUSH2 0x64D PUSH1 0x4 DUP1 CALLDATASIZE SUB DUP2 ADD SWAP1 PUSH2 0x648 SWAP2 SWAP1 PUSH2 0x48AD JUMP JUMPDEST PUSH2 0x1A74 JUMP JUMPDEST STOP JUMPDEST CALLVALUE DUP1 ISZERO PUSH2 0x65B JUMPI PUSH1 0x0 DUP1 REVERT JUMPDEST POP PUSH2 0x676 PUSH1 0x4 DUP1 CALLDATASIZE SUB DUP2 ADD SWAP1 PUSH2 0x671 SWAP2 SWAP1 PUSH2 0x4407 JUMP JUMPDEST PUSH2 0x1AC4 JUMP JUMPDEST PUSH1 0x40 MLOAD PUSH2 0x683 SWAP2 SWAP1 PUSH2 0x3A31 JUMP JUMPDEST PUSH1 0x40 MLOAD DUP1 SWAP2 SUB SWAP1 RETURN JUMPDEST CALLVALUE DUP1 ISZERO PUSH2 0x698 JUMPI PUSH1 0x0 DUP1 REVERT JUMPDEST POP PUSH2 0x6B3 PUSH1 0x4 DUP1 CALLDATASIZE SUB DUP2 ADD SWAP1 PUSH2 0x6AE SWAP2 SWAP1 PUSH2 0x3C30 JUMP JUMPDEST PUSH2 0x1B5F JUMP JUMPDEST STOP JUMPDEST CALLVALUE DUP1 ISZERO PUSH2 0x6C1 JUMPI PUSH1 0x0 DUP1 REVERT JUMPDEST POP PUSH2 0x6DC PUSH1 0x4 DUP1 CALLDATASIZE SUB DUP2 ADD SWAP1 PUSH2 0x6D7 SWAP2 SWAP1 PUSH2 0x4434 JUMP JUMPDEST PUSH2 0x1BA5 JUMP JUMPDEST PUSH1 0x40 MLOAD PUSH2 0x6E9 SWAP2 SWAP1 PUSH2 0x3A31 JUMP JUMPDEST PUSH1 0x40 MLOAD DUP1 SWAP2 SUB SWAP1 RETURN JUMPDEST CALLVALUE DUP1 ISZERO PUSH2 0x6FE JUMPI PUSH1 0x0 DUP1 REVERT JUMPDEST POP PUSH2 0x719 PUSH1 0x4 DUP1 CALLDATASIZE SUB DUP2 ADD SWAP1 PUSH2 0x714 SWAP2 SWAP1 PUSH2 0x4407 JUMP JUMPDEST PUSH2 0x1CD4 JUMP JUMPDEST PUSH1 0x40 MLOAD PUSH2 0x727 SWAP3 SWAP2 SWAP1 PUSH2 0x4925 JUMP JUMPDEST PUSH1 0x40 MLOAD DUP1 SWAP2 SUB SWAP1 RETURN JUMPDEST CALLVALUE DUP1 ISZERO PUSH2 0x73C JUMPI PUSH1 0x0 DUP1 REVERT JUMPDEST POP PUSH2 0x757 PUSH1 0x4 DUP1 CALLDATASIZE SUB DUP2 ADD SWAP1 PUSH2 0x752 SWAP2 SWAP1 PUSH2 0x4407 JUMP JUMPDEST PUSH2 0x1D18 JUMP JUMPDEST PUSH1 0x40 MLOAD PUSH2 0x764 SWAP2 SWAP1 PUSH2 0x4A0C JUMP JUMPDEST PUSH1 0x40 MLOAD DUP1 SWAP2 SUB SWAP1 RETURN JUMPDEST CALLVALUE DUP1 ISZERO PUSH2 0x779 JUMPI PUSH1 0x0 DUP1 REVERT JUMPDEST POP PUSH2 0x794 PUSH1 0x4 DUP1 CALLDATASIZE SUB DUP2 ADD SWAP1 PUSH2 0x78F SWAP2 SWAP1 PUSH2 0x4A2E JUMP JUMPDEST PUSH2 0x1D68 JUMP JUMPDEST PUSH1 0x40 MLOAD PUSH2 0x7A1 SWAP2 SWAP1 PUSH2 0x4628 JUMP JUMPDEST PUSH1 0x40 MLOAD DUP1 SWAP2 SUB SWAP1 RETURN JUMPDEST CALLVALUE DUP1 ISZERO PUSH2 0x7B6 JUMPI PUSH1 0x0 DUP1 REVERT JUMPDEST POP PUSH2 0x7D1 PUSH1 0x4 DUP1 CALLDATASIZE SUB DUP2 ADD SWAP1 PUSH2 0x7CC SWAP2 SWAP1 PUSH2 0x4407 JUMP JUMPDEST PUSH2 0x1E19 JUMP JUMPDEST PUSH1 0x40 MLOAD PUSH2 0x7DE SWAP2 SWAP1 PUSH2 0x4C07 JUMP JUMPDEST PUSH1 0x40 MLOAD DUP1 SWAP2 SUB SWAP1 RETURN JUMPDEST CALLVALUE DUP1 ISZERO PUSH2 0x7F3 JUMPI PUSH1 0x0 DUP1 REVERT JUMPDEST POP PUSH2 0x80E PUSH1 0x4 DUP1 CALLDATASIZE SUB DUP2 ADD SWAP1 PUSH2 0x809 SWAP2 SWAP1 PUSH2 0x4407 JUMP JUMPDEST PUSH2 0x215C JUMP JUMPDEST STOP JUMPDEST CALLVALUE DUP1 ISZERO PUSH2 0x81C JUMPI PUSH1 0x0 DUP1 REVERT JUMPDEST POP PUSH2 0x837 PUSH1 0x4 DUP1 CALLDATASIZE SUB DUP2 ADD SWAP1 PUSH2 0x832 SWAP2 SWAP1 PUSH2 0x4434 JUMP JUMPDEST PUSH2 0x21DF JUMP JUMPDEST PUSH1 0x40 MLOAD PUSH2 0x844 SWAP2 SWAP1 PUSH2 0x3A31 JUMP JUMPDEST PUSH1 0x40 MLOAD DUP1 SWAP2 SUB SWAP1 RETURN JUMPDEST PUSH1 0x60 PUSH1 0x0 PUSH2 0x87E PUSH1 0x0 CALLDATALOAD PUSH32 0xFFFFFFFF00000000000000000000000000000000000000000000000000000000 AND PUSH2 0x230E JUMP JUMPDEST POP SWAP1 POP PUSH1 0x0 PUSH20 0xFFFFFFFFFFFFFFFFFFFFFFFFFFFFFFFFFFFFFFFF AND DUP2 PUSH20 0xFFFFFFFFFFFFFFFFFFFFFFFFFFFFFFFFFFFFFFFF AND SUB PUSH2 0x916 JUMPI PUSH1 0x0 CALLDATALOAD PUSH32 0xFFFFFFFF00000000000000000000000000000000000000000000000000000000 AND PUSH1 0x40 MLOAD PUSH32 0xBB370B2B00000000000000000000000000000000000000000000000000000000 DUP2 MSTORE PUSH1 0x4 ADD PUSH2 0x90D SWAP2 SWAP1 PUSH2 0x4C38 JUMP JUMPDEST PUSH1 0x40 MLOAD DUP1 SWAP2 SUB SWAP1 REVERT JUMPDEST PUSH1 0x0 DUP1 DUP3 PUSH20 0xFFFFFFFFFFFFFFFFFFFFFFFFFFFFFFFFFFFFFFFF AND CALLVALUE DUP8 DUP8 CALLER CALLVALUE PUSH1 0x40 MLOAD PUSH1 0x20 ADD PUSH2 0x948 SWAP5 SWAP4 SWAP3 SWAP2 SWAP1 PUSH2 0x4CEC JUMP JUMPDEST PUSH1 0x40 MLOAD PUSH1 0x20 DUP2 DUP4 SUB SUB DUP2 MSTORE SWAP1 PUSH1 0x40 MSTORE PUSH1 0x40 MLOAD PUSH2 0x964 SWAP2 SWAP1 PUSH2 0x4D58 JUMP JUMPDEST PUSH1 0x0 PUSH1 0x40 MLOAD DUP1 DUP4 SUB DUP2 DUP6 DUP8 GAS CALL SWAP3 POP POP POP RETURNDATASIZE DUP1 PUSH1 0x0 DUP2 EQ PUSH2 0x9A1 JUMPI PUSH1 0x40 MLOAD SWAP2 POP PUSH1 0x1F NOT PUSH1 0x3F RETURNDATASIZE ADD AND DUP3 ADD PUSH1 0x40 MSTORE RETURNDATASIZE DUP3 MSTORE RETURNDATASIZE PUSH1 0x0 PUSH1 0x20 DUP5 ADD RETURNDATACOPY PUSH2 0x9A6 JUMP JUMPDEST PUSH1 0x60 SWAP2 POP JUMPDEST POP SWAP2 POP SWAP2 POP DUP2 ISZERO PUSH2 0x9BC JUMPI DUP1 SWAP4 POP POP POP POP PUSH2 0x9C5 JUMP JUMPDEST DUP1 MLOAD DUP1 PUSH1 0x20 DUP4 ADD REVERT JUMPDEST SWAP3 SWAP2 POP POP JUMP JUMPDEST PUSH1 0x0 PUSH20 0xFFFFFFFFFFFFFFFFFFFFFFFFFFFFFFFFFFFFFFFF AND PUSH1 0x7 PUSH1 0x0 CALLER PUSH20 0xFFFFFFFFFFFFFFFFFFFFFFFFFFFFFFFFFFFFFFFF AND PUSH20 0xFFFFFFFFFFFFFFFFFFFFFFFFFFFFFFFFFFFFFFFF AND DUP2 MSTORE PUSH1 0x20 ADD SWAP1 DUP2 MSTORE PUSH1 0x20 ADD PUSH1 0x0 KECCAK256 PUSH1 0x0 ADD PUSH1 0x0 SWAP1 SLOAD SWAP1 PUSH2 0x100 EXP SWAP1 DIV PUSH20 0xFFFFFFFFFFFFFFFFFFFFFFFFFFFFFFFFFFFFFFFF AND PUSH20 0xFFFFFFFFFFFFFFFFFFFFFFFFFFFFFFFFFFFFFFFF AND EQ PUSH2 0xA9C JUMPI PUSH1 0x40 MLOAD PUSH32 0x8C379A000000000000000000000000000000000000000000000000000000000 DUP2 MSTORE PUSH1 0x4 ADD PUSH2 0xA93 SWAP1 PUSH2 0x4DCC JUMP JUMPDEST PUSH1 0x40 MLOAD DUP1 SWAP2 SUB SWAP1 REVERT JUMPDEST CALLER PUSH1 0x7 PUSH1 0x0 CALLER PUSH20 0xFFFFFFFFFFFFFFFFFFFFFFFFFFFFFFFFFFFFFFFF AND PUSH20 0xFFFFFFFFFFFFFFFFFFFFFFFFFFFFFFFFFFFFFFFF AND DUP2 MSTORE PUSH1 0x20 ADD SWAP1 DUP2 MSTORE PUSH1 0x20 ADD PUSH1 0x0 KECCAK256 PUSH1 0x0 ADD PUSH1 0x0 PUSH2 0x100 EXP DUP2 SLOAD DUP2 PUSH20 0xFFFFFFFFFFFFFFFFFFFFFFFFFFFFFFFFFFFFFFFF MUL NOT AND SWAP1 DUP4 PUSH20 0xFFFFFFFFFFFFFFFFFFFFFFFFFFFFFFFFFFFFFFFF AND MUL OR SWAP1 SSTORE POP JUMP JUMPDEST PUSH1 0x0 PUSH4 0xC52D6008 PUSH1 0xE0 SHL PUSH28 0xFFFFFFFFFFFFFFFFFFFFFFFFFFFFFFFFFFFFFFFFFFFFFFFFFFFFFFFF NOT AND DUP3 PUSH28 0xFFFFFFFFFFFFFFFFFFFFFFFFFFFFFFFFFFFFFFFFFFFFFFFFFFFFFFFF NOT AND EQ DUP1 PUSH2 0xB79 JUMPI POP PUSH2 0xB78 DUP3 PUSH2 0x23C8 JUMP JUMPDEST JUMPDEST DUP1 PUSH2 0xB89 JUMPI POP PUSH2 0xB88 DUP3 PUSH2 0x2429 JUMP JUMPDEST JUMPDEST SWAP1 POP SWAP2 SWAP1 POP JUMP JUMPDEST PUSH1 0x0 PUSH1 0x3 SLOAD SWAP1 POP SWAP1 JUMP JUMPDEST PUSH1 0x0 PUSH2 0xBA6 DUP5 CALLER PUSH2 0x1575 JUMP JUMPDEST SWAP1 POP PUSH1 0x0 DUP2 SUB PUSH2 0xBED JUMPI DUP4 PUSH1 0x40 MLOAD PUSH32 0xCBA6E97700000000000000000000000000000000000000000000000000000000 DUP2 MSTORE PUSH1 0x4 ADD PUSH2 0xBE4 SWAP2 SWAP1 PUSH2 0x47CF JUMP JUMPDEST PUSH1 0x40 MLOAD DUP1 SWAP2 SUB SWAP1 REVERT JUMPDEST PUSH1 0x0 DUP4 DUP3 PUSH2 0xBFB SWAP2 SWAP1 PUSH2 0x4E1B JUMP JUMPDEST SWAP1 POP PUSH2 0xC0B CALLER DUP7 DUP4 PUSH1 0x1 DUP8 PUSH2 0x2490 JUMP JUMPDEST PUSH1 0x0 CALLER DUP3 DUP6 PUSH1 0x40 MLOAD PUSH1 0x20 ADD PUSH2 0xC22 SWAP4 SWAP3 SWAP2 SWAP1 PUSH2 0x4E4F JUMP JUMPDEST PUSH1 0x40 MLOAD PUSH1 0x20 DUP2 DUP4 SUB SUB DUP2 MSTORE SWAP1 PUSH1 0x40 MSTORE SWAP1 POP PUSH2 0xC3D DUP7 DUP3 PUSH2 0x2763 JUMP JUMPDEST POP POP POP POP POP POP JUMP JUMPDEST PUSH1 0x0 DUP6 MLOAD SWAP1 POP DUP5 MLOAD DUP2 EQ ISZERO DUP1 PUSH2 0xC5C JUMPI POP DUP4 MLOAD DUP2 EQ ISZERO JUMPDEST DUP1 PUSH2 0xC68 JUMPI POP DUP3 MLOAD DUP2 EQ ISZERO JUMPDEST DUP1 PUSH2 0xC74 JUMPI POP DUP2 MLOAD DUP2 EQ ISZERO JUMPDEST ISZERO PUSH2 0xCAB JUMPI PUSH1 0x40 MLOAD PUSH32 0x263EEE8D00000000000000000000000000000000000000000000000000000000 DUP2 MSTORE PUSH1 0x4 ADD PUSH1 0x40 MLOAD DUP1 SWAP2 SUB SWAP1 REVERT JUMPDEST PUSH1 0x0 JUMPDEST DUP2 DUP2 LT ISZERO PUSH2 0xD50 JUMPI PUSH2 0xD45 DUP8 DUP3 DUP2 MLOAD DUP2 LT PUSH2 0xCCC JUMPI PUSH2 0xCCB PUSH2 0x4E8D JUMP JUMPDEST JUMPDEST PUSH1 0x20 MUL PUSH1 0x20 ADD ADD MLOAD DUP8 DUP4 DUP2 MLOAD DUP2 LT PUSH2 0xCE7 JUMPI PUSH2 0xCE6 PUSH2 0x4E8D JUMP JUMPDEST JUMPDEST PUSH1 0x20 MUL PUSH1 0x20 ADD ADD MLOAD DUP8 DUP5 DUP2 MLOAD DUP2 LT PUSH2 0xD02 JUMPI PUSH2 0xD01 PUSH2 0x4E8D JUMP JUMPDEST JUMPDEST PUSH1 0x20 MUL PUSH1 0x20 ADD ADD MLOAD DUP8 DUP6 DUP2 MLOAD DUP2 LT PUSH2 0xD1D JUMPI PUSH2 0xD1C PUSH2 0x4E8D JUMP JUMPDEST JUMPDEST PUSH1 0x20 MUL PUSH1 0x20 ADD ADD MLOAD DUP8 DUP7 DUP2 MLOAD DUP2 LT PUSH2 0xD38 JUMPI PUSH2 0xD37 PUSH2 0x4E8D JUMP JUMPDEST JUMPDEST PUSH1 0x20 MUL PUSH1 0x20 ADD ADD MLOAD PUSH2 0x1850 JUMP JUMPDEST DUP1 PUSH1 0x1 ADD SWAP1 POP PUSH2 0xCAE JUMP JUMPDEST POP POP POP POP POP POP POP JUMP JUMPDEST DUP3 PUSH20 0xFFFFFFFFFFFFFFFFFFFFFFFFFFFFFFFFFFFFFFFF AND CALLER PUSH20 0xFFFFFFFFFFFFFFFFFFFFFFFFFFFFFFFFFFFFFFFF AND EQ ISZERO DUP1 ISZERO PUSH2 0xDC1 JUMPI POP DUP4 PUSH20 0xFFFFFFFFFFFFFFFFFFFFFFFFFFFFFFFFFFFFFFFF AND CALLER PUSH20 0xFFFFFFFFFFFFFFFFFFFFFFFFFFFFFFFFFFFFFFFF AND EQ ISZERO JUMPDEST ISZERO PUSH2 0xE07 JUMPI CALLER DUP4 DUP6 PUSH1 0x40 MLOAD PUSH32 0x1A525B3200000000000000000000000000000000000000000000000000000000 DUP2 MSTORE PUSH1 0x4 ADD PUSH2 0xDFE SWAP4 SWAP3 SWAP2 SWAP1 PUSH2 0x4EBC JUMP JUMPDEST PUSH1 0x40 MLOAD DUP1 SWAP2 SUB SWAP1 REVERT JUMPDEST PUSH2 0xE15 DUP4 DUP6 PUSH1 0x0 DUP6 DUP6 PUSH2 0x2490 JUMP JUMPDEST DUP2 ISZERO PUSH2 0xE50 JUMPI PUSH1 0x0 DUP4 PUSH1 0x0 DUP4 PUSH1 0x40 MLOAD PUSH1 0x20 ADD PUSH2 0xE33 SWAP4 SWAP3 SWAP2 SWAP1 PUSH2 0x4F38 JUMP JUMPDEST PUSH1 0x40 MLOAD PUSH1 0x20 DUP2 DUP4 SUB SUB DUP2 MSTORE SWAP1 PUSH1 0x40 MSTORE SWAP1 POP PUSH2 0xE4E DUP6 DUP3 PUSH2 0x2763 JUMP JUMPDEST POP JUMPDEST POP POP POP POP JUMP JUMPDEST PUSH1 0x0 PUSH1 0x2 PUSH1 0x0 SWAP1 SLOAD SWAP1 PUSH2 0x100 EXP SWAP1 DIV PUSH1 0xFF AND PUSH2 0xE73 JUMPI PUSH1 0x12 PUSH2 0xE76 JUMP JUMPDEST PUSH1 0x0 JUMPDEST SWAP1 POP SWAP1 JUMP JUMPDEST PUSH1 0x0 PUSH1 0x7 PUSH1 0x0 CALLER PUSH20 0xFFFFFFFFFFFFFFFFFFFFFFFFFFFFFFFFFFFFFFFF AND PUSH20 0xFFFFFFFFFFFFFFFFFFFFFFFFFFFFFFFFFFFFFFFF AND DUP2 MSTORE PUSH1 0x20 ADD SWAP1 DUP2 MSTORE PUSH1 0x20 ADD PUSH1 0x0 KECCAK256 SWAP1 POP CALLER PUSH20 0xFFFFFFFFFFFFFFFFFFFFFFFFFFFFFFFFFFFFFFFF AND DUP2 PUSH1 0x0 ADD PUSH1 0x0 SWAP1 SLOAD SWAP1 PUSH2 0x100 EXP SWAP1 DIV PUSH20 0xFFFFFFFFFFFFFFFFFFFFFFFFFFFFFFFFFFFFFFFF AND PUSH20 0xFFFFFFFFFFFFFFFFFFFFFFFFFFFFFFFFFFFFFFFF AND EQ PUSH2 0xF50 JUMPI PUSH1 0x40 MLOAD PUSH32 0x8C379A000000000000000000000000000000000000000000000000000000000 DUP2 MSTORE PUSH1 0x4 ADD PUSH2 0xF47 SWAP1 PUSH2 0x4FC2 JUMP JUMPDEST PUSH1 0x40 MLOAD DUP1 SWAP2 SUB SWAP1 REVERT JUMPDEST DUP1 PUSH1 0x1 ADD SLOAD DUP4 GT ISZERO PUSH2 0xF97 JUMPI PUSH1 0x40 MLOAD PUSH32 0x8C379A000000000000000000000000000000000000000000000000000000000 DUP2 MSTORE PUSH1 0x4 ADD PUSH2 0xF8E SWAP1 PUSH2 0x502E JUMP JUMPDEST PUSH1 0x40 MLOAD DUP1 SWAP2 SUB SWAP1 REVERT JUMPDEST PUSH1 0x0 DUP2 PUSH1 0x2 ADD PUSH1 0x0 DUP6 DUP2 MSTORE PUSH1 0x20 ADD SWAP1 DUP2 MSTORE PUSH1 0x20 ADD PUSH1 0x0 KECCAK256 SWAP1 POP DUP3 DUP2 PUSH1 0x2 ADD SWAP1 DUP2 PUSH2 0xFC1 SWAP2 SWAP1 PUSH2 0x5250 JUMP JUMPDEST POP PUSH1 0x1 DUP2 PUSH1 0x3 ADD PUSH1 0x0 PUSH2 0x100 EXP DUP2 SLOAD DUP2 PUSH1 0xFF MUL NOT AND SWAP1 DUP4 ISZERO ISZERO MUL OR SWAP1 SSTORE POP POP POP POP POP JUMP JUMPDEST PUSH8 0xDE0B6B3A7640000 PUSH2 0xFF7 CALLER PUSH2 0x17F3 JUMP JUMPDEST LT ISZERO PUSH2 0x1038 JUMPI PUSH1 0x40 MLOAD PUSH32 0x8C379A000000000000000000000000000000000000000000000000000000000 DUP2 MSTORE PUSH1 0x4 ADD PUSH2 0x102F SWAP1 PUSH2 0x5394 JUMP JUMPDEST PUSH1 0x40 MLOAD DUP1 SWAP2 SUB SWAP1 REVERT JUMPDEST PUSH1 0x0 PUSH1 0x7 PUSH1 0x0 DUP5 PUSH20 0xFFFFFFFFFFFFFFFFFFFFFFFFFFFFFFFFFFFFFFFF AND PUSH20 0xFFFFFFFFFFFFFFFFFFFFFFFFFFFFFFFFFFFFFFFF AND DUP2 MSTORE PUSH1 0x20 ADD SWAP1 DUP2 MSTORE PUSH1 0x20 ADD PUSH1 0x0 KECCAK256 SWAP1 POP PUSH1 0x0 PUSH20 0xFFFFFFFFFFFFFFFFFFFFFFFFFFFFFFFFFFFFFFFF AND DUP2 PUSH1 0x0 ADD PUSH1 0x0 SWAP1 SLOAD SWAP1 PUSH2 0x100 EXP SWAP1 DIV PUSH20 0xFFFFFFFFFFFFFFFFFFFFFFFFFFFFFFFFFFFFFFFF AND PUSH20 0xFFFFFFFFFFFFFFFFFFFFFFFFFFFFFFFFFFFFFFFF AND SUB PUSH2 0x110E JUMPI PUSH1 0x40 MLOAD PUSH32 0x8C379A000000000000000000000000000000000000000000000000000000000 DUP2 MSTORE PUSH1 0x4 ADD PUSH2 0x1105 SWAP1 PUSH2 0x5400 JUMP JUMPDEST PUSH1 0x40 MLOAD DUP1 SWAP2 SUB SWAP1 REVERT JUMPDEST DUP1 PUSH1 0x3 ADD PUSH1 0x0 CALLER PUSH20 0xFFFFFFFFFFFFFFFFFFFFFFFFFFFFFFFFFFFFFFFF AND PUSH20 0xFFFFFFFFFFFFFFFFFFFFFFFFFFFFFFFFFFFFFFFF AND DUP2 MSTORE PUSH1 0x20 ADD SWAP1 DUP2 MSTORE PUSH1 0x20 ADD PUSH1 0x0 KECCAK256 PUSH1 0x0 SWAP1 SLOAD SWAP1 PUSH2 0x100 EXP SWAP1 DIV PUSH1 0xFF AND ISZERO PUSH2 0x119D JUMPI PUSH1 0x40 MLOAD PUSH32 0x8C379A000000000000000000000000000000000000000000000000000000000 DUP2 MSTORE PUSH1 0x4 ADD PUSH2 0x1194 SWAP1 PUSH2 0x5492 JUMP JUMPDEST PUSH1 0x40 MLOAD DUP1 SWAP2 SUB SWAP1 REVERT JUMPDEST DUP1 PUSH1 0x1 ADD PUSH1 0x0 DUP2 SLOAD DUP1 SWAP3 SWAP2 SWAP1 PUSH2 0x11B2 SWAP1 PUSH2 0x54B2 JUMP JUMPDEST SWAP2 SWAP1 POP SSTORE POP PUSH1 0x40 MLOAD DUP1 PUSH1 0x80 ADD PUSH1 0x40 MSTORE DUP1 CALLER PUSH20 0xFFFFFFFFFFFFFFFFFFFFFFFFFFFFFFFFFFFFFFFF AND DUP2 MSTORE PUSH1 0x20 ADD DUP4 DUP2 MSTORE PUSH1 0x20 ADD PUSH1 0x40 MLOAD DUP1 PUSH1 0x20 ADD PUSH1 0x40 MSTORE DUP1 PUSH1 0x0 DUP2 MSTORE POP DUP2 MSTORE PUSH1 0x20 ADD PUSH1 0x0 ISZERO ISZERO DUP2 MSTORE POP DUP2 PUSH1 0x2 ADD PUSH1 0x0 DUP4 PUSH1 0x1 ADD SLOAD DUP2 MSTORE PUSH1 0x20 ADD SWAP1 DUP2 MSTORE PUSH1 0x20 ADD PUSH1 0x0 KECCAK256 PUSH1 0x0 DUP3 ADD MLOAD DUP2 PUSH1 0x0 ADD PUSH1 0x0 PUSH2 0x100 EXP DUP2 SLOAD DUP2 PUSH20 0xFFFFFFFFFFFFFFFFFFFFFFFFFFFFFFFFFFFFFFFF MUL NOT AND SWAP1 DUP4 PUSH20 0xFFFFFFFFFFFFFFFFFFFFFFFFFFFFFFFFFFFFFFFF AND MUL OR SWAP1 SSTORE POP PUSH1 0x20 DUP3 ADD MLOAD DUP2 PUSH1 0x1 ADD SWAP1 DUP2 PUSH2 0x1275 SWAP2 SWAP1 PUSH2 0x5250 JUMP JUMPDEST POP PUSH1 0x40 DUP3 ADD MLOAD DUP2 PUSH1 0x2 ADD SWAP1 DUP2 PUSH2 0x128B SWAP2 SWAP1 PUSH2 0x5250 JUMP JUMPDEST POP PUSH1 0x60 DUP3 ADD MLOAD DUP2 PUSH1 0x3 ADD PUSH1 0x0 PUSH2 0x100 EXP DUP2 SLOAD DUP2 PUSH1 0xFF MUL NOT AND SWAP1 DUP4 ISZERO ISZERO MUL OR SWAP1 SSTORE POP SWAP1 POP POP PUSH1 0x1 DUP2 PUSH1 0x3 ADD PUSH1 0x0 CALLER PUSH20 0xFFFFFFFFFFFFFFFFFFFFFFFFFFFFFFFFFFFFFFFF AND PUSH20 0xFFFFFFFFFFFFFFFFFFFFFFFFFFFFFFFFFFFFFFFF AND DUP2 MSTORE PUSH1 0x20 ADD SWAP1 DUP2 MSTORE PUSH1 0x20 ADD PUSH1 0x0 KECCAK256 PUSH1 0x0 PUSH2 0x100 EXP DUP2 SLOAD DUP2 PUSH1 0xFF MUL NOT AND SWAP1 DUP4 ISZERO ISZERO MUL OR SWAP1 SSTORE POP PUSH2 0x1351 CALLER PUSH8 0xDE0B6B3A7640000 PUSH1 0x40 MLOAD DUP1 PUSH1 0x40 ADD PUSH1 0x40 MSTORE DUP1 PUSH1 0x1F DUP2 MSTORE PUSH1 0x20 ADD PUSH32 0x4275726E20746F6B656E20746F207375626D69742061207175657374696F6E00 DUP2 MSTORE POP PUSH2 0x2795 JUMP JUMPDEST POP POP POP JUMP JUMPDEST PUSH1 0x60 PUSH2 0x1361 DUP3 PUSH2 0x2865 JUMP JUMPDEST SWAP1 POP SWAP2 SWAP1 POP JUMP JUMPDEST PUSH1 0x0 PUSH1 0x7 PUSH1 0x0 DUP4 PUSH20 0xFFFFFFFFFFFFFFFFFFFFFFFFFFFFFFFFFFFFFFFF AND PUSH20 0xFFFFFFFFFFFFFFFFFFFFFFFFFFFFFFFFFFFFFFFF AND DUP2 MSTORE PUSH1 0x20 ADD SWAP1 DUP2 MSTORE PUSH1 0x20 ADD PUSH1 0x0 KECCAK256 SWAP1 POP PUSH1 0x0 PUSH20 0xFFFFFFFFFFFFFFFFFFFFFFFFFFFFFFFFFFFFFFFF AND DUP2 PUSH1 0x0 ADD PUSH1 0x0 SWAP1 SLOAD SWAP1 PUSH2 0x100 EXP SWAP1 DIV PUSH20 0xFFFFFFFFFFFFFFFFFFFFFFFFFFFFFFFFFFFFFFFF AND PUSH20 0xFFFFFFFFFFFFFFFFFFFFFFFFFFFFFFFFFFFFFFFF AND SUB PUSH2 0x143E JUMPI PUSH1 0x40 MLOAD PUSH32 0x8C379A000000000000000000000000000000000000000000000000000000000 DUP2 MSTORE PUSH1 0x4 ADD PUSH2 0x1435 SWAP1 PUSH2 0x5400 JUMP JUMPDEST PUSH1 0x40 MLOAD DUP1 SWAP2 SUB SWAP1 REVERT JUMPDEST DUP1 PUSH1 0x4 ADD PUSH1 0x0 CALLER PUSH20 0xFFFFFFFFFFFFFFFFFFFFFFFFFFFFFFFFFFFFFFFF AND PUSH20 0xFFFFFFFFFFFFFFFFFFFFFFFFFFFFFFFFFFFFFFFF AND DUP2 MSTORE PUSH1 0x20 ADD SWAP1 DUP2 MSTORE PUSH1 0x20 ADD PUSH1 0x0 KECCAK256 PUSH1 0x0 SWAP1 SLOAD SWAP1 PUSH2 0x100 EXP SWAP1 DIV PUSH1 0xFF AND ISZERO PUSH2 0x14CD JUMPI PUSH1 0x40 MLOAD PUSH32 0x8C379A000000000000000000000000000000000000000000000000000000000 DUP2 MSTORE PUSH1 0x4 ADD PUSH2 0x14C4 SWAP1 PUSH2 0x556C JUMP JUMPDEST PUSH1 0x40 MLOAD DUP1 SWAP2 SUB SWAP1 REVERT JUMPDEST PUSH1 0x1 DUP2 PUSH1 0x4 ADD PUSH1 0x0 CALLER PUSH20 0xFFFFFFFFFFFFFFFFFFFFFFFFFFFFFFFFFFFFFFFF AND PUSH20 0xFFFFFFFFFFFFFFFFFFFFFFFFFFFFFFFFFFFFFFFF AND DUP2 MSTORE PUSH1 0x20 ADD SWAP1 DUP2 MSTORE PUSH1 0x20 ADD PUSH1 0x0 KECCAK256 PUSH1 0x0 PUSH2 0x100 EXP DUP2 SLOAD DUP2 PUSH1 0xFF MUL NOT AND SWAP1 DUP4 ISZERO ISZERO MUL OR SWAP1 SSTORE POP PUSH2 0x1571 CALLER PUSH8 0xDE0B6B3A7640000 PUSH1 0x1 PUSH1 0x40 MLOAD DUP1 PUSH1 0x40 ADD PUSH1 0x40 MSTORE DUP1 PUSH1 0x1B DUP2 MSTORE PUSH1 0x20 ADD PUSH32 0x4672656520746F6B656E20666F7220414D41207175657374696F6E0000000000 DUP2 MSTORE POP PUSH2 0x290A JUMP JUMPDEST POP POP JUMP JUMPDEST PUSH1 0x0 DUP3 PUSH20 0xFFFFFFFFFFFFFFFFFFFFFFFFFFFFFFFFFFFFFFFF AND DUP3 PUSH20 0xFFFFFFFFFFFFFFFFFFFFFFFFFFFFFFFFFFFFFFFF AND SUB PUSH2 0x15F1 JUMPI PUSH1 0x4 PUSH1 0x0 DUP4 PUSH20 0xFFFFFFFFFFFFFFFFFFFFFFFFFFFFFFFFFFFFFFFF AND PUSH20 0xFFFFFFFFFFFFFFFFFFFFFFFFFFFFFFFFFFFFFFFF AND DUP2 MSTORE PUSH1 0x20 ADD SWAP1 DUP2 MSTORE PUSH1 0x20 ADD PUSH1 0x0 KECCAK256 SLOAD SWAP1 POP PUSH2 0x1671 JUMP JUMPDEST PUSH1 0x6 PUSH1 0x0 DUP4 PUSH20 0xFFFFFFFFFFFFFFFFFFFFFFFFFFFFFFFFFFFFFFFF AND PUSH20 0xFFFFFFFFFFFFFFFFFFFFFFFFFFFFFFFFFFFFFFFF AND DUP2 MSTORE PUSH1 0x20 ADD SWAP1 DUP2 MSTORE PUSH1 0x20 ADD PUSH1 0x0 KECCAK256 PUSH1 0x0 DUP5 PUSH20 0xFFFFFFFFFFFFFFFFFFFFFFFFFFFFFFFFFFFFFFFF AND PUSH20 0xFFFFFFFFFFFFFFFFFFFFFFFFFFFFFFFFFFFFFFFF AND DUP2 MSTORE PUSH1 0x20 ADD SWAP1 DUP2 MSTORE PUSH1 0x20 ADD PUSH1 0x0 KECCAK256 SLOAD SWAP1 POP JUMPDEST SWAP3 SWAP2 POP POP JUMP JUMPDEST PUSH1 0x60 DUP3 DUP3 SWAP1 POP PUSH8 0xFFFFFFFFFFFFFFFF DUP2 GT ISZERO PUSH2 0x1696 JUMPI PUSH2 0x1695 PUSH2 0x3B14 JUMP JUMPDEST JUMPDEST PUSH1 0x40 MLOAD SWAP1 DUP1 DUP3 MSTORE DUP1 PUSH1 0x20 MUL PUSH1 0x20 ADD DUP3 ADD PUSH1 0x40 MSTORE DUP1 ISZERO PUSH2 0x16C9 JUMPI DUP2 PUSH1 0x20 ADD JUMPDEST PUSH1 0x60 DUP2 MSTORE PUSH1 0x20 ADD SWAP1 PUSH1 0x1 SWAP1 SUB SWAP1 DUP2 PUSH2 0x16B4 JUMPI SWAP1 POP JUMPDEST POP SWAP1 POP PUSH1 0x0 JUMPDEST DUP4 DUP4 SWAP1 POP DUP2 LT ISZERO PUSH2 0x17EC JUMPI PUSH1 0x0 DUP1 ADDRESS PUSH20 0xFFFFFFFFFFFFFFFFFFFFFFFFFFFFFFFFFFFFFFFF AND DUP7 DUP7 DUP6 DUP2 DUP2 LT PUSH2 0x1707 JUMPI PUSH2 0x1706 PUSH2 0x4E8D JUMP JUMPDEST JUMPDEST SWAP1 POP PUSH1 0x20 MUL DUP2 ADD SWAP1 PUSH2 0x1719 SWAP2 SWAP1 PUSH2 0x559B JUMP JUMPDEST PUSH1 0x40 MLOAD PUSH2 0x1727 SWAP3 SWAP2 SWAP1 PUSH2 0x55FE JUMP JUMPDEST PUSH1 0x0 PUSH1 0x40 MLOAD DUP1 DUP4 SUB DUP2 DUP6 GAS DELEGATECALL SWAP2 POP POP RETURNDATASIZE DUP1 PUSH1 0x0 DUP2 EQ PUSH2 0x1762 JUMPI PUSH1 0x40 MLOAD SWAP2 POP PUSH1 0x1F NOT PUSH1 0x3F RETURNDATASIZE ADD AND DUP3 ADD PUSH1 0x40 MSTORE RETURNDATASIZE DUP3 MSTORE RETURNDATASIZE PUSH1 0x0 PUSH1 0x20 DUP5 ADD RETURNDATACOPY PUSH2 0x1767 JUMP JUMPDEST PUSH1 0x60 SWAP2 POP JUMPDEST POP SWAP2 POP SWAP2 POP DUP2 PUSH2 0x17C0 JUMPI PUSH1 0x0 DUP2 MLOAD EQ PUSH2 0x1783 JUMPI DUP1 MLOAD DUP1 DUP3 PUSH1 0x20 ADD REVERT JUMPDEST DUP3 PUSH1 0x40 MLOAD PUSH32 0xB774C28400000000000000000000000000000000000000000000000000000000 DUP2 MSTORE PUSH1 0x4 ADD PUSH2 0x17B7 SWAP2 SWAP1 PUSH2 0x3A65 JUMP JUMPDEST PUSH1 0x40 MLOAD DUP1 SWAP2 SUB SWAP1 REVERT JUMPDEST DUP1 DUP5 DUP5 DUP2 MLOAD DUP2 LT PUSH2 0x17D4 JUMPI PUSH2 0x17D3 PUSH2 0x4E8D JUMP JUMPDEST JUMPDEST PUSH1 0x20 MUL PUSH1 0x20 ADD ADD DUP2 SWAP1 MSTORE POP DUP3 PUSH1 0x1 ADD SWAP3 POP POP POP PUSH2 0x16CF JUMP JUMPDEST POP SWAP3 SWAP2 POP POP JUMP JUMPDEST PUSH1 0x0 PUSH1 0x4 PUSH1 0x0 DUP4 PUSH20 0xFFFFFFFFFFFFFFFFFFFFFFFFFFFFFFFFFFFFFFFF AND PUSH20 0xFFFFFFFFFFFFFFFFFFFFFFFFFFFFFFFFFFFFFFFF AND DUP2 MSTORE PUSH1 0x20 ADD SWAP1 DUP2 MSTORE PUSH1 0x20 ADD PUSH1 0x0 KECCAK256 SLOAD SWAP1 POP SWAP2 SWAP1 POP JUMP JUMPDEST PUSH2 0x1844 PUSH2 0x29D9 JUMP JUMPDEST PUSH2 0x184E PUSH1 0x0 PUSH2 0x2A57 JUMP JUMPDEST JUMP JUMPDEST DUP5 PUSH20 0xFFFFFFFFFFFFFFFFFFFFFFFFFFFFFFFFFFFFFFFF AND CALLER PUSH20 0xFFFFFFFFFFFFFFFFFFFFFFFFFFFFFFFFFFFFFFFF AND EQ PUSH2 0x188F JUMPI PUSH2 0x188E CALLER DUP7 DUP6 PUSH2 0x2B1B JUMP JUMPDEST JUMPDEST PUSH2 0x189C DUP6 DUP6 DUP6 DUP6 DUP6 PUSH2 0x2C20 JUMP JUMPDEST POP POP POP POP POP JUMP JUMPDEST DUP3 PUSH20 0xFFFFFFFFFFFFFFFFFFFFFFFFFFFFFFFFFFFFFFFF AND CALLER PUSH20 0xFFFFFFFFFFFFFFFFFFFFFFFFFFFFFFFFFFFFFFFF AND EQ ISZERO DUP1 ISZERO PUSH2 0x190B JUMPI POP DUP4 PUSH20 0xFFFFFFFFFFFFFFFFFFFFFFFFFFFFFFFFFFFFFFFF AND CALLER PUSH20 0xFFFFFFFFFFFFFFFFFFFFFFFFFFFFFFFFFFFFFFFF AND EQ ISZERO JUMPDEST ISZERO PUSH2 0x1951 JUMPI CALLER DUP4 DUP6 PUSH1 0x40 MLOAD PUSH32 0x98CE294500000000000000000000000000000000000000000000000000000000 DUP2 MSTORE PUSH1 0x4 ADD PUSH2 0x1948 SWAP4 SWAP3 SWAP2 SWAP1 PUSH2 0x4EBC JUMP JUMPDEST PUSH1 0x40 MLOAD DUP1 SWAP2 SUB SWAP1 REVERT JUMPDEST PUSH1 0x0 PUSH2 0x195D DUP6 DUP6 PUSH2 0x1575 JUMP JUMPDEST SWAP1 POP DUP3 DUP2 LT ISZERO PUSH2 0x1999 JUMPI PUSH1 0x40 MLOAD PUSH32 0xEF76C3500000000000000000000000000000000000000000000000000000000 DUP2 MSTORE PUSH1 0x4 ADD PUSH1 0x40 MLOAD DUP1 SWAP2 SUB SWAP1 REVERT JUMPDEST PUSH1 0x0 DUP4 DUP3 SUB SWAP1 POP PUSH2 0x19AE DUP6 DUP8 DUP4 PUSH1 0x1 DUP8 PUSH2 0x2490 JUMP JUMPDEST PUSH1 0x0 DUP6 DUP3 DUP6 PUSH1 0x40 MLOAD PUSH1 0x20 ADD PUSH2 0x19C5 SWAP4 SWAP3 SWAP2 SWAP1 PUSH2 0x4E4F JUMP JUMPDEST PUSH1 0x40 MLOAD PUSH1 0x20 DUP2 DUP4 SUB SUB DUP2 MSTORE SWAP1 PUSH1 0x40 MSTORE SWAP1 POP PUSH2 0x19E0 DUP8 DUP3 PUSH2 0x2763 JUMP JUMPDEST POP POP POP POP POP POP POP JUMP JUMPDEST PUSH2 0x19F1 PUSH2 0x29D9 JUMP JUMPDEST PUSH1 0x0 CALLVALUE EQ PUSH2 0x1A2B JUMPI PUSH1 0x40 MLOAD PUSH32 0xF36BA73700000000000000000000000000000000000000000000000000000000 DUP2 MSTORE PUSH1 0x4 ADD PUSH1 0x40 MLOAD DUP1 SWAP2 SUB SWAP1 REVERT JUMPDEST PUSH2 0x1A35 DUP3 DUP3 PUSH2 0x2D2E JUMP JUMPDEST POP POP JUMP JUMPDEST PUSH1 0x0 PUSH2 0x1A44 DUP3 PUSH2 0x17F3 JUMP JUMPDEST SWAP1 POP SWAP2 SWAP1 POP JUMP JUMPDEST PUSH1 0x0 DUP1 PUSH1 0x0 SWAP1 SLOAD SWAP1 PUSH2 0x100 EXP SWAP1 DIV PUSH20 0xFFFFFFFFFFFFFFFFFFFFFFFFFFFFFFFFFFFFFFFF AND SWAP1 POP SWAP1 JUMP JUMPDEST PUSH2 0x1A7C PUSH2 0x29D9 JUMP JUMPDEST PUSH1 0x0 CALLVALUE EQ PUSH2 0x1AB6 JUMPI PUSH1 0x40 MLOAD PUSH32 0xF36BA73700000000000000000000000000000000000000000000000000000000 DUP2 MSTORE PUSH1 0x4 ADD PUSH1 0x40 MLOAD DUP1 SWAP2 SUB SWAP1 REVERT JUMPDEST PUSH2 0x1AC0 DUP3 DUP3 PUSH2 0x2E9F JUMP JUMPDEST POP POP JUMP JUMPDEST PUSH1 0x0 DUP1 PUSH20 0xFFFFFFFFFFFFFFFFFFFFFFFFFFFFFFFFFFFFFFFF AND PUSH1 0x7 PUSH1 0x0 DUP5 PUSH20 0xFFFFFFFFFFFFFFFFFFFFFFFFFFFFFFFFFFFFFFFF AND PUSH20 0xFFFFFFFFFFFFFFFFFFFFFFFFFFFFFFFFFFFFFFFF AND DUP2 MSTORE PUSH1 0x20 ADD SWAP1 DUP2 MSTORE PUSH1 0x20 ADD PUSH1 0x0 KECCAK256 PUSH1 0x0 ADD PUSH1 0x0 SWAP1 SLOAD SWAP1 PUSH2 0x100 EXP SWAP1 DIV PUSH20 0xFFFFFFFFFFFFFFFFFFFFFFFFFFFFFFFFFFFFFFFF AND PUSH20 0xFFFFFFFFFFFFFFFFFFFFFFFFFFFFFFFFFFFFFFFF AND EQ ISZERO SWAP1 POP SWAP2 SWAP1 POP JUMP JUMPDEST PUSH2 0x1B6D CALLER DUP5 DUP5 PUSH1 0x1 DUP6 PUSH2 0x2490 JUMP JUMPDEST PUSH1 0x0 CALLER DUP4 DUP4 PUSH1 0x40 MLOAD PUSH1 0x20 ADD PUSH2 0x1B84 SWAP4 SWAP3 SWAP2 SWAP1 PUSH2 0x4E4F JUMP JUMPDEST PUSH1 0x40 MLOAD PUSH1 0x20 DUP2 DUP4 SUB SUB DUP2 MSTORE SWAP1 PUSH1 0x40 MSTORE SWAP1 POP PUSH2 0x1B9F DUP5 DUP3 PUSH2 0x2763 JUMP JUMPDEST POP POP POP POP JUMP JUMPDEST PUSH1 0x0 DUP1 PUSH1 0x7 PUSH1 0x0 DUP6 PUSH20 0xFFFFFFFFFFFFFFFFFFFFFFFFFFFFFFFFFFFFFFFF AND PUSH20 0xFFFFFFFFFFFFFFFFFFFFFFFFFFFFFFFFFFFFFFFF AND DUP2 MSTORE PUSH1 0x20 ADD SWAP1 DUP2 MSTORE PUSH1 0x20 ADD PUSH1 0x0 KECCAK256 SWAP1 POP PUSH1 0x0 PUSH20 0xFFFFFFFFFFFFFFFFFFFFFFFFFFFFFFFFFFFFFFFF AND DUP2 PUSH1 0x0 ADD PUSH1 0x0 SWAP1 SLOAD SWAP1 PUSH2 0x100 EXP SWAP1 DIV PUSH20 0xFFFFFFFFFFFFFFFFFFFFFFFFFFFFFFFFFFFFFFFF AND PUSH20 0xFFFFFFFFFFFFFFFFFFFFFFFFFFFFFFFFFFFFFFFF AND SUB PUSH2 0x1C7C JUMPI PUSH1 0x40 MLOAD PUSH32 0x8C379A000000000000000000000000000000000000000000000000000000000 DUP2 MSTORE PUSH1 0x4 ADD PUSH2 0x1C73 SWAP1 PUSH2 0x5400 JUMP JUMPDEST PUSH1 0x40 MLOAD DUP1 SWAP2 SUB SWAP1 REVERT JUMPDEST DUP1 PUSH1 0x3 ADD PUSH1 0x0 DUP5 PUSH20 0xFFFFFFFFFFFFFFFFFFFFFFFFFFFFFFFFFFFFFFFF AND PUSH20 0xFFFFFFFFFFFFFFFFFFFFFFFFFFFFFFFFFFFFFFFF AND DUP2 MSTORE PUSH1 0x20 ADD SWAP1 DUP2 MSTORE PUSH1 0x20 ADD PUSH1 0x0 KECCAK256 PUSH1 0x0 SWAP1 SLOAD SWAP1 PUSH2 0x100 EXP SWAP1 DIV PUSH1 0xFF AND SWAP2 POP POP SWAP3 SWAP2 POP POP JUMP JUMPDEST PUSH1 0x7 PUSH1 0x20 MSTORE DUP1 PUSH1 0x0 MSTORE PUSH1 0x40 PUSH1 0x0 KECCAK256 PUSH1 0x0 SWAP2 POP SWAP1 POP DUP1 PUSH1 0x0 ADD PUSH1 0x0 SWAP1 SLOAD SWAP1 PUSH2 0x100 EXP SWAP1 DIV PUSH20 0xFFFFFFFFFFFFFFFFFFFFFFFFFFFFFFFFFFFFFFFF AND SWAP1 DUP1 PUSH1 0x1 ADD SLOAD SWAP1 POP DUP3 JUMP JUMPDEST PUSH1 0x60 PUSH2 0x1D61 PUSH1 0x5 PUSH1 0x0 DUP5 PUSH20 0xFFFFFFFFFFFFFFFFFFFFFFFFFFFFFFFFFFFFFFFF AND PUSH20 0xFFFFFFFFFFFFFFFFFFFFFFFFFFFFFFFFFFFFFFFF AND DUP2 MSTORE PUSH1 0x20 ADD SWAP1 DUP2 MSTORE PUSH1 0x20 ADD PUSH1 0x0 KECCAK256 PUSH2 0x2F6F JUMP JUMPDEST SWAP1 POP SWAP2 SWAP1 POP JUMP JUMPDEST PUSH1 0x60 DUP2 MLOAD PUSH8 0xFFFFFFFFFFFFFFFF DUP2 GT ISZERO PUSH2 0x1D85 JUMPI PUSH2 0x1D84 PUSH2 0x3B14 JUMP JUMPDEST JUMPDEST PUSH1 0x40 MLOAD SWAP1 DUP1 DUP3 MSTORE DUP1 PUSH1 0x20 MUL PUSH1 0x20 ADD DUP3 ADD PUSH1 0x40 MSTORE DUP1 ISZERO PUSH2 0x1DB8 JUMPI DUP2 PUSH1 0x20 ADD JUMPDEST PUSH1 0x60 DUP2 MSTORE PUSH1 0x20 ADD SWAP1 PUSH1 0x1 SWAP1 SUB SWAP1 DUP2 PUSH2 0x1DA3 JUMPI SWAP1 POP JUMPDEST POP SWAP1 POP PUSH1 0x0 JUMPDEST DUP3 MLOAD DUP2 LT ISZERO PUSH2 0x1E13 JUMPI PUSH2 0x1DEA DUP4 DUP3 DUP2 MLOAD DUP2 LT PUSH2 0x1DDD JUMPI PUSH2 0x1DDC PUSH2 0x4E8D JUMP JUMPDEST JUMPDEST PUSH1 0x20 MUL PUSH1 0x20 ADD ADD MLOAD PUSH2 0x2865 JUMP JUMPDEST DUP3 DUP3 DUP2 MLOAD DUP2 LT PUSH2 0x1DFD JUMPI PUSH2 0x1DFC PUSH2 0x4E8D JUMP JUMPDEST JUMPDEST PUSH1 0x20 MUL PUSH1 0x20 ADD ADD DUP2 SWAP1 MSTORE POP DUP1 PUSH1 0x1 ADD SWAP1 POP PUSH2 0x1DBE JUMP JUMPDEST POP SWAP2 SWAP1 POP JUMP JUMPDEST PUSH1 0x60 PUSH1 0x0 PUSH1 0x7 PUSH1 0x0 DUP5 PUSH20 0xFFFFFFFFFFFFFFFFFFFFFFFFFFFFFFFFFFFFFFFF AND PUSH20 0xFFFFFFFFFFFFFFFFFFFFFFFFFFFFFFFFFFFFFFFF AND DUP2 MSTORE PUSH1 0x20 ADD SWAP1 DUP2 MSTORE PUSH1 0x20 ADD PUSH1 0x0 KECCAK256 SWAP1 POP PUSH1 0x0 PUSH20 0xFFFFFFFFFFFFFFFFFFFFFFFFFFFFFFFFFFFFFFFF AND DUP2 PUSH1 0x0 ADD PUSH1 0x0 SWAP1 SLOAD SWAP1 PUSH2 0x100 EXP SWAP1 DIV PUSH20 0xFFFFFFFFFFFFFFFFFFFFFFFFFFFFFFFFFFFFFFFF AND PUSH20 0xFFFFFFFFFFFFFFFFFFFFFFFFFFFFFFFFFFFFFFFF AND SUB PUSH2 0x1EF1 JUMPI PUSH1 0x40 MLOAD PUSH32 0x8C379A000000000000000000000000000000000000000000000000000000000 DUP2 MSTORE PUSH1 0x4 ADD PUSH2 0x1EE8 SWAP1 PUSH2 0x5400 JUMP JUMPDEST PUSH1 0x40 MLOAD DUP1 SWAP2 SUB SWAP1 REVERT JUMPDEST PUSH1 0x0 DUP2 PUSH1 0x1 ADD SLOAD PUSH8 0xFFFFFFFFFFFFFFFF DUP2 GT ISZERO PUSH2 0x1F11 JUMPI PUSH2 0x1F10 PUSH2 0x3B14 JUMP JUMPDEST JUMPDEST PUSH1 0x40 MLOAD SWAP1 DUP1 DUP3 MSTORE DUP1 PUSH1 0x20 MUL PUSH1 0x20 ADD DUP3 ADD PUSH1 0x40 MSTORE DUP1 ISZERO PUSH2 0x1F4A JUMPI DUP2 PUSH1 0x20 ADD JUMPDEST PUSH2 0x1F37 PUSH2 0x386F JUMP JUMPDEST DUP2 MSTORE PUSH1 0x20 ADD SWAP1 PUSH1 0x1 SWAP1 SUB SWAP1 DUP2 PUSH2 0x1F2F JUMPI SWAP1 POP JUMPDEST POP SWAP1 POP PUSH1 0x0 PUSH1 0x1 SWAP1 POP JUMPDEST DUP3 PUSH1 0x1 ADD SLOAD DUP2 GT PUSH2 0x2151 JUMPI DUP3 PUSH1 0x2 ADD PUSH1 0x0 DUP3 DUP2 MSTORE PUSH1 0x20 ADD SWAP1 DUP2 MSTORE PUSH1 0x20 ADD PUSH1 0x0 KECCAK256 PUSH1 0x40 MLOAD DUP1 PUSH1 0x80 ADD PUSH1 0x40 MSTORE SWAP1 DUP2 PUSH1 0x0 DUP3 ADD PUSH1 0x0 SWAP1 SLOAD SWAP1 PUSH2 0x100 EXP SWAP1 DIV PUSH20 0xFFFFFFFFFFFFFFFFFFFFFFFFFFFFFFFFFFFFFFFF AND PUSH20 0xFFFFFFFFFFFFFFFFFFFFFFFFFFFFFFFFFFFFFFFF AND PUSH20 0xFFFFFFFFFFFFFFFFFFFFFFFFFFFFFFFFFFFFFFFF AND DUP2 MSTORE PUSH1 0x20 ADD PUSH1 0x1 DUP3 ADD DUP1 SLOAD PUSH2 0x1FE5 SWAP1 PUSH2 0x507D JUMP JUMPDEST DUP1 PUSH1 0x1F ADD PUSH1 0x20 DUP1 SWAP2 DIV MUL PUSH1 0x20 ADD PUSH1 0x40 MLOAD SWAP1 DUP2 ADD PUSH1 0x40 MSTORE DUP1 SWAP3 SWAP2 SWAP1 DUP2 DUP2 MSTORE PUSH1 0x20 ADD DUP3 DUP1 SLOAD PUSH2 0x2011 SWAP1 PUSH2 0x507D JUMP JUMPDEST DUP1 ISZERO PUSH2 0x205E JUMPI DUP1 PUSH1 0x1F LT PUSH2 0x2033 JUMPI PUSH2 0x100 DUP1 DUP4 SLOAD DIV MUL DUP4 MSTORE SWAP2 PUSH1 0x20 ADD SWAP2 PUSH2 0x205E JUMP JUMPDEST DUP3 ADD SWAP2 SWAP1 PUSH1 0x0 MSTORE PUSH1 0x20 PUSH1 0x0 KECCAK256 SWAP1 JUMPDEST DUP2 SLOAD DUP2 MSTORE SWAP1 PUSH1 0x1 ADD SWAP1 PUSH1 0x20 ADD DUP1 DUP4 GT PUSH2 0x2041 JUMPI DUP3 SWAP1 SUB PUSH1 0x1F AND DUP3 ADD SWAP2 JUMPDEST POP POP POP POP POP DUP2 MSTORE PUSH1 0x20 ADD PUSH1 0x2 DUP3 ADD DUP1 SLOAD PUSH2 0x2077 SWAP1 PUSH2 0x507D JUMP JUMPDEST DUP1 PUSH1 0x1F ADD PUSH1 0x20 DUP1 SWAP2 DIV MUL PUSH1 0x20 ADD PUSH1 0x40 MLOAD SWAP1 DUP2 ADD PUSH1 0x40 MSTORE DUP1 SWAP3 SWAP2 SWAP1 DUP2 DUP2 MSTORE PUSH1 0x20 ADD DUP3 DUP1 SLOAD PUSH2 0x20A3 SWAP1 PUSH2 0x507D JUMP JUMPDEST DUP1 ISZERO PUSH2 0x20F0 JUMPI DUP1 PUSH1 0x1F LT PUSH2 0x20C5 JUMPI PUSH2 0x100 DUP1 DUP4 SLOAD DIV MUL DUP4 MSTORE SWAP2 PUSH1 0x20 ADD SWAP2 PUSH2 0x20F0 JUMP JUMPDEST DUP3 ADD SWAP2 SWAP1 PUSH1 0x0 MSTORE PUSH1 0x20 PUSH1 0x0 KECCAK256 SWAP1 JUMPDEST DUP2 SLOAD DUP2 MSTORE SWAP1 PUSH1 0x1 ADD SWAP1 PUSH1 0x20 ADD DUP1 DUP4 GT PUSH2 0x20D3 JUMPI DUP3 SWAP1 SUB PUSH1 0x1F AND DUP3 ADD SWAP2 JUMPDEST POP POP POP POP POP DUP2 MSTORE PUSH1 0x20 ADD PUSH1 0x3 DUP3 ADD PUSH1 0x0 SWAP1 SLOAD SWAP1 PUSH2 0x100 EXP SWAP1 DIV PUSH1 0xFF AND ISZERO ISZERO ISZERO ISZERO DUP2 MSTORE POP POP DUP3 PUSH1 0x1 DUP4 PUSH2 0x2122 SWAP2 SWAP1 PUSH2 0x5617 JUMP JUMPDEST DUP2 MLOAD DUP2 LT PUSH2 0x2133 JUMPI PUSH2 0x2132 PUSH2 0x4E8D JUMP JUMPDEST JUMPDEST PUSH1 0x20 MUL PUSH1 0x20 ADD ADD DUP2 SWAP1 MSTORE POP DUP1 DUP1 PUSH2 0x2149 SWAP1 PUSH2 0x54B2 JUMP JUMPDEST SWAP2 POP POP PUSH2 0x1F54 JUMP JUMPDEST POP DUP1 SWAP3 POP POP POP SWAP2 SWAP1 POP JUMP JUMPDEST PUSH2 0x2164 PUSH2 0x29D9 JUMP JUMPDEST PUSH1 0x0 PUSH20 0xFFFFFFFFFFFFFFFFFFFFFFFFFFFFFFFFFFFFFFFF AND DUP2 PUSH20 0xFFFFFFFFFFFFFFFFFFFFFFFFFFFFFFFFFFFFFFFF AND SUB PUSH2 0x21D3 JUMPI PUSH1 0x40 MLOAD PUSH32 0x8C379A000000000000000000000000000000000000000000000000000000000 DUP2 MSTORE PUSH1 0x4 ADD PUSH2 0x21CA SWAP1 PUSH2 0x56BD JUMP JUMPDEST PUSH1 0x40 MLOAD DUP1 SWAP2 SUB SWAP1 REVERT JUMPDEST PUSH2 0x21DC DUP2 PUSH2 0x2A57 JUMP JUMPDEST POP JUMP JUMPDEST PUSH1 0x0 DUP1 PUSH1 0x7 PUSH1 0x0 DUP6 PUSH20 0xFFFFFFFFFFFFFFFFFFFFFFFFFFFFFFFFFFFFFFFF AND PUSH20 0xFFFFFFFFFFFFFFFFFFFFFFFFFFFFFFFFFFFFFFFF AND DUP2 MSTORE PUSH1 0x20 ADD SWAP1 DUP2 MSTORE PUSH1 0x20 ADD PUSH1 0x0 KECCAK256 SWAP1 POP PUSH1 0x0 PUSH20 0xFFFFFFFFFFFFFFFFFFFFFFFFFFFFFFFFFFFFFFFF AND DUP2 PUSH1 0x0 ADD PUSH1 0x0 SWAP1 SLOAD SWAP1 PUSH2 0x100 EXP SWAP1 DIV PUSH20 0xFFFFFFFFFFFFFFFFFFFFFFFFFFFFFFFFFFFFFFFF AND PUSH20 0xFFFFFFFFFFFFFFFFFFFFFFFFFFFFFFFFFFFFFFFF AND SUB PUSH2 0x22B6 JUMPI PUSH1 0x40 MLOAD PUSH32 0x8C379A000000000000000000000000000000000000000000000000000000000 DUP2 MSTORE PUSH1 0x4 ADD PUSH2 0x22AD SWAP1 PUSH2 0x5400 JUMP JUMPDEST PUSH1 0x40 MLOAD DUP1 SWAP2 SUB SWAP1 REVERT JUMPDEST DUP1 PUSH1 0x4 ADD PUSH1 0x0 DUP5 PUSH20 0xFFFFFFFFFFFFFFFFFFFFFFFFFFFFFFFFFFFFFFFF AND PUSH20 0xFFFFFFFFFFFFFFFFFFFFFFFFFFFFFFFFFFFFFFFF AND DUP2 MSTORE PUSH1 0x20 ADD SWAP1 DUP2 MSTORE PUSH1 0x20 ADD PUSH1 0x0 KECCAK256 PUSH1 0x0 SWAP1 SLOAD SWAP1 PUSH2 0x100 EXP SWAP1 DIV PUSH1 0xFF AND SWAP2 POP POP SWAP3 SWAP2 POP POP JUMP JUMPDEST PUSH1 0x0 DUP1 PUSH1 0x0 PUSH2 0x2349 PUSH10 0xCEE78B4094DA86011096 PUSH1 0xB0 SHL DUP6 PUSH28 0xFFFFFFFFFFFFFFFFFFFFFFFFFFFFFFFFFFFFFFFFFFFFFFFFFFFFFFFF NOT AND PUSH2 0x2F90 JUMP JUMPDEST SWAP1 POP PUSH1 0x0 PUSH2 0x2356 DUP3 PUSH2 0x2865 JUMP JUMPDEST SWAP1 POP PUSH1 0x14 DUP2 MLOAD EQ ISZERO DUP1 ISZERO PUSH2 0x236C JUMPI POP PUSH1 0x0 DUP2 MLOAD EQ ISZERO JUMPDEST ISZERO PUSH2 0x23AE JUMPI DUP1 PUSH1 0x40 MLOAD PUSH32 0x42BFE79F00000000000000000000000000000000000000000000000000000000 DUP2 MSTORE PUSH1 0x4 ADD PUSH2 0x23A5 SWAP2 SWAP1 PUSH2 0x43E5 JUMP JUMPDEST PUSH1 0x40 MLOAD DUP1 SWAP2 SUB SWAP1 REVERT JUMPDEST DUP1 PUSH2 0x23B8 SWAP1 PUSH2 0x572E JUMP JUMPDEST PUSH1 0x60 SHR PUSH1 0x1 SWAP4 POP SWAP4 POP POP POP SWAP2 POP SWAP2 JUMP JUMPDEST PUSH1 0x0 PUSH4 0xA918FA6B PUSH1 0xE0 SHL PUSH28 0xFFFFFFFFFFFFFFFFFFFFFFFFFFFFFFFFFFFFFFFFFFFFFFFFFFFFFFFF NOT AND DUP3 PUSH28 0xFFFFFFFFFFFFFFFFFFFFFFFFFFFFFFFFFFFFFFFFFFFFFFFFFFFFFFFF NOT AND EQ DUP1 PUSH2 0x2422 JUMPI POP PUSH2 0x2421 DUP3 PUSH2 0x2FD0 JUMP JUMPDEST JUMPDEST SWAP1 POP SWAP2 SWAP1 POP JUMP JUMPDEST PUSH1 0x0 DUP1 PUSH2 0x243C PUSH4 0x1FFC9A7 PUSH1 0xE0 SHL PUSH2 0x230E JUMP JUMPDEST POP SWAP1 POP PUSH1 0x0 PUSH20 0xFFFFFFFFFFFFFFFFFFFFFFFFFFFFFFFFFFFFFFFF AND DUP2 PUSH20 0xFFFFFFFFFFFFFFFFFFFFFFFFFFFFFFFFFFFFFFFF AND SUB PUSH2 0x247D JUMPI PUSH1 0x0 SWAP2 POP POP PUSH2 0x248B JUMP JUMPDEST PUSH2 0x2487 DUP2 DUP5 PUSH2 0x3031 JUMP JUMPDEST SWAP2 POP POP JUMPDEST SWAP2 SWAP1 POP JUMP JUMPDEST PUSH1 0x0 PUSH20 0xFFFFFFFFFFFFFFFFFFFFFFFFFFFFFFFFFFFFFFFF AND DUP5 PUSH20 0xFFFFFFFFFFFFFFFFFFFFFFFFFFFFFFFFFFFFFFFF AND SUB PUSH2 0x24F6 JUMPI PUSH1 0x40 MLOAD PUSH32 0x6355E76600000000000000000000000000000000000000000000000000000000 DUP2 MSTORE PUSH1 0x4 ADD PUSH1 0x40 MLOAD DUP1 SWAP2 SUB SWAP1 REVERT JUMPDEST DUP5 PUSH20 0xFFFFFFFFFFFFFFFFFFFFFFFFFFFFFFFFFFFFFFFF AND DUP5 PUSH20 0xFFFFFFFFFFFFFFFFFFFFFFFFFFFFFFFFFFFFFFFF AND SUB PUSH2 0x255B JUMPI PUSH1 0x40 MLOAD PUSH32 0xDAB7504700000000000000000000000000000000000000000000000000000000 DUP2 MSTORE PUSH1 0x4 ADD PUSH1 0x40 MLOAD DUP1 SWAP2 SUB SWAP1 REVERT JUMPDEST DUP3 PUSH1 0x6 PUSH1 0x0 DUP8 PUSH20 0xFFFFFFFFFFFFFFFFFFFFFFFFFFFFFFFFFFFFFFFF AND PUSH20 0xFFFFFFFFFFFFFFFFFFFFFFFFFFFFFFFFFFFFFFFF AND DUP2 MSTORE PUSH1 0x20 ADD SWAP1 DUP2 MSTORE PUSH1 0x20 ADD PUSH1 0x0 KECCAK256 PUSH1 0x0 DUP7 PUSH20 0xFFFFFFFFFFFFFFFFFFFFFFFFFFFFFFFFFFFFFFFF AND PUSH20 0xFFFFFFFFFFFFFFFFFFFFFFFFFFFFFFFFFFFFFFFF AND DUP2 MSTORE PUSH1 0x20 ADD SWAP1 DUP2 MSTORE PUSH1 0x20 ADD PUSH1 0x0 KECCAK256 DUP2 SWAP1 SSTORE POP PUSH1 0x0 DUP4 EQ PUSH2 0x26A1 JUMPI PUSH2 0x2635 DUP5 PUSH1 0x5 PUSH1 0x0 DUP9 PUSH20 0xFFFFFFFFFFFFFFFFFFFFFFFFFFFFFFFFFFFFFFFF AND PUSH20 0xFFFFFFFFFFFFFFFFFFFFFFFFFFFFFFFFFFFFFFFF AND DUP2 MSTORE PUSH1 0x20 ADD SWAP1 DUP2 MSTORE PUSH1 0x20 ADD PUSH1 0x0 KECCAK256 PUSH2 0x30F0 SWAP1 SWAP2 SWAP1 PUSH4 0xFFFFFFFF AND JUMP JUMPDEST POP DUP3 DUP6 PUSH20 0xFFFFFFFFFFFFFFFFFFFFFFFFFFFFFFFFFFFFFFFF AND DUP6 PUSH20 0xFFFFFFFFFFFFFFFFFFFFFFFFFFFFFFFFFFFFFFFF AND PUSH32 0xF772A43BFDF4729B196E3FB54A818B91A2CA6C49D10B2E16278752F9F515C25D DUP5 PUSH1 0x40 MLOAD PUSH2 0x2694 SWAP2 SWAP1 PUSH2 0x43E5 JUMP JUMPDEST PUSH1 0x40 MLOAD DUP1 SWAP2 SUB SWAP1 LOG4 PUSH2 0x275C JUMP JUMPDEST PUSH2 0x26F2 DUP5 PUSH1 0x5 PUSH1 0x0 DUP9 PUSH20 0xFFFFFFFFFFFFFFFFFFFFFFFFFFFFFFFFFFFFFFFF AND PUSH20 0xFFFFFFFFFFFFFFFFFFFFFFFFFFFFFFFFFFFFFFFF AND DUP2 MSTORE PUSH1 0x20 ADD SWAP1 DUP2 MSTORE PUSH1 0x20 ADD PUSH1 0x0 KECCAK256 PUSH2 0x3120 SWAP1 SWAP2 SWAP1 PUSH4 0xFFFFFFFF AND JUMP JUMPDEST POP DUP2 ISZERO ISZERO DUP6 PUSH20 0xFFFFFFFFFFFFFFFFFFFFFFFFFFFFFFFFFFFFFFFF AND DUP6 PUSH20 0xFFFFFFFFFFFFFFFFFFFFFFFFFFFFFFFFFFFFFFFF AND PUSH32 0xEBF5762D8855CBE012D2CA42FB33A81175E17C8A8751F8859931BA453BD4167 DUP5 PUSH1 0x40 MLOAD PUSH2 0x2753 SWAP2 SWAP1 PUSH2 0x43E5 JUMP JUMPDEST PUSH1 0x40 MLOAD DUP1 SWAP2 SUB SWAP1 LOG4 JUMPDEST POP POP POP POP POP JUMP JUMPDEST PUSH2 0x2791 DUP3 PUSH32 0x386072CC5A58E61263B434C722725F21031CD06E7C552CFAA06DB5DE8A320DBC PUSH1 0x0 SHL DUP4 PUSH2 0x3150 JUMP JUMPDEST POP POP JUMP JUMPDEST PUSH1 0x0 PUSH20 0xFFFFFFFFFFFFFFFFFFFFFFFFFFFFFFFFFFFFFFFF AND DUP4 PUSH20 0xFFFFFFFFFFFFFFFFFFFFFFFFFFFFFFFFFFFFFFFF AND SUB PUSH2 0x27FB JUMPI PUSH1 0x40 MLOAD PUSH32 0xD2D5EC3000000000000000000000000000000000000000000000000000000000 DUP2 MSTORE PUSH1 0x4 ADD PUSH1 0x40 MLOAD DUP1 SWAP2 SUB SWAP1 REVERT JUMPDEST PUSH2 0x280A DUP4 PUSH1 0x0 DUP5 PUSH1 0x0 DUP6 PUSH2 0x320F JUMP JUMPDEST PUSH2 0x2819 DUP4 PUSH1 0x0 DUP5 PUSH1 0x0 DUP6 PUSH2 0x3216 JUMP JUMPDEST PUSH2 0x2828 DUP4 PUSH1 0x0 DUP5 PUSH1 0x0 DUP6 PUSH2 0x345B JUMP JUMPDEST PUSH1 0x0 CALLER DUP5 PUSH1 0x0 DUP6 DUP6 PUSH1 0x40 MLOAD PUSH1 0x20 ADD PUSH2 0x2844 SWAP6 SWAP5 SWAP4 SWAP3 SWAP2 SWAP1 PUSH2 0x5795 JUMP JUMPDEST PUSH1 0x40 MLOAD PUSH1 0x20 DUP2 DUP4 SUB SUB DUP2 MSTORE SWAP1 PUSH1 0x40 MSTORE SWAP1 POP PUSH2 0x285F DUP5 DUP3 PUSH2 0x3462 JUMP JUMPDEST POP POP POP POP JUMP JUMPDEST PUSH1 0x60 PUSH1 0x1 PUSH1 0x0 DUP4 DUP2 MSTORE PUSH1 0x20 ADD SWAP1 DUP2 MSTORE PUSH1 0x20 ADD PUSH1 0x0 KECCAK256 DUP1 SLOAD PUSH2 0x2885 SWAP1 PUSH2 0x507D JUMP JUMPDEST DUP1 PUSH1 0x1F ADD PUSH1 0x20 DUP1 SWAP2 DIV MUL PUSH1 0x20 ADD PUSH1 0x40 MLOAD SWAP1 DUP2 ADD PUSH1 0x40 MSTORE DUP1 SWAP3 SWAP2 SWAP1 DUP2 DUP2 MSTORE PUSH1 0x20 ADD DUP3 DUP1 SLOAD PUSH2 0x28B1 SWAP1 PUSH2 0x507D JUMP JUMPDEST DUP1 ISZERO PUSH2 0x28FE JUMPI DUP1 PUSH1 0x1F LT PUSH2 0x28D3 JUMPI PUSH2 0x100 DUP1 DUP4 SLOAD DIV MUL DUP4 MSTORE SWAP2 PUSH1 0x20 ADD SWAP2 PUSH2 0x28FE JUMP JUMPDEST DUP3 ADD SWAP2 SWAP1 PUSH1 0x0 MSTORE PUSH1 0x20 PUSH1 0x0 KECCAK256 SWAP1 JUMPDEST DUP2 SLOAD DUP2 MSTORE SWAP1 PUSH1 0x1 ADD SWAP1 PUSH1 0x20 ADD DUP1 DUP4 GT PUSH2 0x28E1 JUMPI DUP3 SWAP1 SUB PUSH1 0x1F AND DUP3 ADD SWAP2 JUMPDEST POP POP POP POP POP SWAP1 POP SWAP2 SWAP1 POP JUMP JUMPDEST PUSH1 0x0 PUSH20 0xFFFFFFFFFFFFFFFFFFFFFFFFFFFFFFFFFFFFFFFF AND DUP5 PUSH20 0xFFFFFFFFFFFFFFFFFFFFFFFFFFFFFFFFFFFFFFFF AND SUB PUSH2 0x2970 JUMPI PUSH1 0x40 MLOAD PUSH32 0xD2D5EC3000000000000000000000000000000000000000000000000000000000 DUP2 MSTORE PUSH1 0x4 ADD PUSH1 0x40 MLOAD DUP1 SWAP2 SUB SWAP1 REVERT JUMPDEST PUSH2 0x297E PUSH1 0x0 DUP6 DUP6 DUP6 DUP6 PUSH2 0x320F JUMP JUMPDEST PUSH2 0x298C PUSH1 0x0 DUP6 DUP6 DUP6 DUP6 PUSH2 0x3216 JUMP JUMPDEST PUSH2 0x299A PUSH1 0x0 DUP6 DUP6 DUP6 DUP6 PUSH2 0x345B JUMP JUMPDEST PUSH1 0x0 CALLER PUSH1 0x0 DUP7 DUP7 DUP6 PUSH1 0x40 MLOAD PUSH1 0x20 ADD PUSH2 0x29B6 SWAP6 SWAP5 SWAP4 SWAP3 SWAP2 SWAP1 PUSH2 0x5795 JUMP JUMPDEST PUSH1 0x40 MLOAD PUSH1 0x20 DUP2 DUP4 SUB SUB DUP2 MSTORE SWAP1 PUSH1 0x40 MSTORE SWAP1 POP PUSH2 0x29D2 DUP6 DUP5 DUP4 PUSH2 0x3494 JUMP JUMPDEST POP POP POP POP POP JUMP JUMPDEST PUSH2 0x29E1 PUSH2 0x35FA JUMP JUMPDEST PUSH20 0xFFFFFFFFFFFFFFFFFFFFFFFFFFFFFFFFFFFFFFFF AND PUSH2 0x29FF PUSH2 0x1A4B JUMP JUMPDEST PUSH20 0xFFFFFFFFFFFFFFFFFFFFFFFFFFFFFFFFFFFFFFFF AND EQ PUSH2 0x2A55 JUMPI PUSH1 0x40 MLOAD PUSH32 0x8C379A000000000000000000000000000000000000000000000000000000000 DUP2 MSTORE PUSH1 0x4 ADD PUSH2 0x2A4C SWAP1 PUSH2 0x583B JUMP JUMPDEST PUSH1 0x40 MLOAD DUP1 SWAP2 SUB SWAP1 REVERT JUMPDEST JUMP JUMPDEST PUSH1 0x0 DUP1 PUSH1 0x0 SWAP1 SLOAD SWAP1 PUSH2 0x100 EXP SWAP1 DIV PUSH20 0xFFFFFFFFFFFFFFFFFFFFFFFFFFFFFFFFFFFFFFFF AND SWAP1 POP DUP2 PUSH1 0x0 DUP1 PUSH2 0x100 EXP DUP2 SLOAD DUP2 PUSH20 0xFFFFFFFFFFFFFFFFFFFFFFFFFFFFFFFFFFFFFFFF MUL NOT AND SWAP1 DUP4 PUSH20 0xFFFFFFFFFFFFFFFFFFFFFFFFFFFFFFFFFFFFFFFF AND MUL OR SWAP1 SSTORE POP DUP2 PUSH20 0xFFFFFFFFFFFFFFFFFFFFFFFFFFFFFFFFFFFFFFFF AND DUP2 PUSH20 0xFFFFFFFFFFFFFFFFFFFFFFFFFFFFFFFFFFFFFFFF AND PUSH32 0x8BE0079C531659141344CD1FD0A4F28419497F9722A3DAAFE3B4186F6B6457E0 PUSH1 0x40 MLOAD PUSH1 0x40 MLOAD DUP1 SWAP2 SUB SWAP1 LOG3 POP POP JUMP JUMPDEST PUSH1 0x0 PUSH1 0x6 PUSH1 0x0 DUP5 PUSH20 0xFFFFFFFFFFFFFFFFFFFFFFFFFFFFFFFFFFFFFFFF AND PUSH20 0xFFFFFFFFFFFFFFFFFFFFFFFFFFFFFFFFFFFFFFFF AND DUP2 MSTORE PUSH1 0x20 ADD SWAP1 DUP2 MSTORE PUSH1 0x20 ADD PUSH1 0x0 KECCAK256 PUSH1 0x0 DUP6 PUSH20 0xFFFFFFFFFFFFFFFFFFFFFFFFFFFFFFFFFFFFFFFF AND PUSH20 0xFFFFFFFFFFFFFFFFFFFFFFFFFFFFFFFFFFFFFFFF AND DUP2 MSTORE PUSH1 0x20 ADD SWAP1 DUP2 MSTORE PUSH1 0x20 ADD PUSH1 0x0 KECCAK256 SLOAD SWAP1 POP PUSH1 0x0 DUP2 EQ DUP1 PUSH2 0x2BAA JUMPI POP DUP1 DUP3 GT JUMPDEST ISZERO PUSH2 0x2BF2 JUMPI DUP3 DUP2 DUP6 DUP5 PUSH1 0x40 MLOAD PUSH32 0xF3A6B69100000000000000000000000000000000000000000000000000000000 DUP2 MSTORE PUSH1 0x4 ADD PUSH2 0x2BE9 SWAP5 SWAP4 SWAP3 SWAP2 SWAP1 PUSH2 0x585B JUMP JUMPDEST PUSH1 0x40 MLOAD DUP1 SWAP2 SUB SWAP1 REVERT JUMPDEST PUSH2 0x2C1A DUP4 DUP6 DUP5 DUP5 PUSH2 0x2C03 SWAP2 SWAP1 PUSH2 0x5617 JUMP JUMPDEST PUSH1 0x0 PUSH1 0x40 MLOAD DUP1 PUSH1 0x20 ADD PUSH1 0x40 MSTORE DUP1 PUSH1 0x0 DUP2 MSTORE POP PUSH2 0x2490 JUMP JUMPDEST POP POP POP POP JUMP JUMPDEST PUSH1 0x0 PUSH20 0xFFFFFFFFFFFFFFFFFFFFFFFFFFFFFFFFFFFFFFFF AND DUP6 PUSH20 0xFFFFFFFFFFFFFFFFFFFFFFFFFFFFFFFFFFFFFFFF AND EQ DUP1 PUSH2 0x2C87 JUMPI POP PUSH1 0x0 PUSH20 0xFFFFFFFFFFFFFFFFFFFFFFFFFFFFFFFFFFFFFFFF AND DUP5 PUSH20 0xFFFFFFFFFFFFFFFFFFFFFFFFFFFFFFFFFFFFFFFF AND EQ JUMPDEST ISZERO PUSH2 0x2CBE JUMPI PUSH1 0x40 MLOAD PUSH32 0xD2D5EC3000000000000000000000000000000000000000000000000000000000 DUP2 MSTORE PUSH1 0x4 ADD PUSH1 0x40 MLOAD DUP1 SWAP2 SUB SWAP1 REVERT JUMPDEST PUSH2 0x2CCB DUP6 DUP6 DUP6 DUP6 DUP6 PUSH2 0x320F JUMP JUMPDEST PUSH2 0x2CD8 DUP6 DUP6 DUP6 DUP6 DUP6 PUSH2 0x3216 JUMP JUMPDEST PUSH2 0x2CE5 DUP6 DUP6 DUP6 DUP6 DUP6 PUSH2 0x345B JUMP JUMPDEST PUSH1 0x0 CALLER DUP7 DUP7 DUP7 DUP6 PUSH1 0x40 MLOAD PUSH1 0x20 ADD PUSH2 0x2D00 SWAP6 SWAP5 SWAP4 SWAP3 SWAP2 SWAP1 PUSH2 0x5795 JUMP JUMPDEST PUSH1 0x40 MLOAD PUSH1 0x20 DUP2 DUP4 SUB SUB DUP2 MSTORE SWAP1 PUSH1 0x40 MSTORE SWAP1 POP PUSH2 0x2D1B DUP7 DUP3 PUSH2 0x3462 JUMP JUMPDEST PUSH2 0x2D26 DUP6 DUP5 DUP4 PUSH2 0x3494 JUMP JUMPDEST POP POP POP POP POP POP JUMP JUMPDEST PUSH32 0xDEBA1E292F8BA88238E10AB3C7F88BD4BE4FAC56CAD5194B6ECCEAF653468AF1 PUSH1 0x0 SHL DUP3 SUB PUSH2 0x2D8A JUMPI PUSH1 0x40 MLOAD PUSH32 0x85C169BD00000000000000000000000000000000000000000000000000000000 DUP2 MSTORE PUSH1 0x4 ADD PUSH1 0x40 MLOAD DUP1 SWAP2 SUB SWAP1 REVERT JUMPDEST PUSH32 0x2F0A68AB07768E01943A599E73362A0E17A63A72E94DD2E384D2C1D4DB932756 PUSH1 0x0 SHL DUP3 SUB PUSH2 0x2DE6 JUMPI PUSH1 0x40 MLOAD PUSH32 0x76755B3800000000000000000000000000000000000000000000000000000000 DUP2 MSTORE PUSH1 0x4 ADD PUSH1 0x40 MLOAD DUP1 SWAP2 SUB SWAP1 REVERT JUMPDEST PUSH32 0xE0261FA95DB2EB3B5439BD033CDA66D56B96F92F243A8228FD87550ED7BDFDB3 PUSH1 0x0 SHL DUP3 SUB PUSH2 0x2E42 JUMPI PUSH1 0x40 MLOAD PUSH32 0x4EF6D7FB00000000000000000000000000000000000000000000000000000000 DUP2 MSTORE PUSH1 0x4 ADD PUSH1 0x40 MLOAD DUP1 SWAP2 SUB SWAP1 REVERT JUMPDEST DUP1 PUSH1 0x1 PUSH1 0x0 DUP5 DUP2 MSTORE PUSH1 0x20 ADD SWAP1 DUP2 MSTORE PUSH1 0x20 ADD PUSH1 0x0 KECCAK256 SWAP1 DUP2 PUSH2 0x2E62 SWAP2 SWAP1 PUSH2 0x58FB JUMP JUMPDEST POP DUP2 PUSH32 0xECE574603820D07BC9B91F2A932BAADF4628AABCB8AFBA49776529C14A6104B2 DUP3 PUSH1 0x40 MLOAD PUSH2 0x2E93 SWAP2 SWAP1 PUSH2 0x43E5 JUMP JUMPDEST PUSH1 0x40 MLOAD DUP1 SWAP2 SUB SWAP1 LOG2 POP POP JUMP JUMPDEST DUP1 MLOAD DUP3 MLOAD EQ PUSH2 0x2EDA JUMPI PUSH1 0x40 MLOAD PUSH32 0x3BCC897900000000000000000000000000000000000000000000000000000000 DUP2 MSTORE PUSH1 0x4 ADD PUSH1 0x40 MLOAD DUP1 SWAP2 SUB SWAP1 REVERT JUMPDEST PUSH1 0x0 DUP3 MLOAD SUB PUSH2 0x2F15 JUMPI PUSH1 0x40 MLOAD PUSH32 0x97DA5F9500000000000000000000000000000000000000000000000000000000 DUP2 MSTORE PUSH1 0x4 ADD PUSH1 0x40 MLOAD DUP1 SWAP2 SUB SWAP1 REVERT JUMPDEST PUSH1 0x0 JUMPDEST DUP3 MLOAD DUP2 LT ISZERO PUSH2 0x2F6A JUMPI PUSH2 0x2F5F DUP4 DUP3 DUP2 MLOAD DUP2 LT PUSH2 0x2F37 JUMPI PUSH2 0x2F36 PUSH2 0x4E8D JUMP JUMPDEST JUMPDEST PUSH1 0x20 MUL PUSH1 0x20 ADD ADD MLOAD DUP4 DUP4 DUP2 MLOAD DUP2 LT PUSH2 0x2F52 JUMPI PUSH2 0x2F51 PUSH2 0x4E8D JUMP JUMPDEST JUMPDEST PUSH1 0x20 MUL PUSH1 0x20 ADD ADD MLOAD PUSH2 0x2D2E JUMP JUMPDEST DUP1 PUSH1 0x1 ADD SWAP1 POP PUSH2 0x2F18 JUMP JUMPDEST POP POP POP JUMP JUMPDEST PUSH1 0x60 PUSH1 0x0 PUSH2 0x2F7F DUP4 PUSH1 0x0 ADD PUSH2 0x3602 JUMP JUMPDEST SWAP1 POP PUSH1 0x60 DUP2 SWAP1 POP DUP1 SWAP3 POP POP POP SWAP2 SWAP1 POP JUMP JUMPDEST PUSH1 0x0 DUP1 DUP4 PUSH1 0x0 PUSH1 0xF0 SHL DUP5 PUSH1 0x40 MLOAD PUSH1 0x20 ADD PUSH2 0x2FAC SWAP4 SWAP3 SWAP2 SWAP1 PUSH2 0x5A88 JUMP JUMPDEST PUSH1 0x40 MLOAD PUSH1 0x20 DUP2 DUP4 SUB SUB DUP2 MSTORE SWAP1 PUSH1 0x40 MSTORE SWAP1 POP DUP1 PUSH2 0x2FC7 SWAP1 PUSH2 0x5ADA JUMP JUMPDEST SWAP2 POP POP SWAP3 SWAP2 POP POP JUMP JUMPDEST PUSH1 0x0 PUSH4 0x629AA694 PUSH1 0xE0 SHL PUSH28 0xFFFFFFFFFFFFFFFFFFFFFFFFFFFFFFFFFFFFFFFFFFFFFFFFFFFFFFFF NOT AND DUP3 PUSH28 0xFFFFFFFFFFFFFFFFFFFFFFFFFFFFFFFFFFFFFFFFFFFFFFFFFFFFFFFF NOT AND EQ DUP1 PUSH2 0x302A JUMPI POP PUSH2 0x3029 DUP3 PUSH2 0x365E JUMP JUMPDEST JUMPDEST SWAP1 POP SWAP2 SWAP1 POP JUMP JUMPDEST PUSH1 0x0 DUP1 PUSH4 0x1FFC9A7 PUSH1 0xE0 SHL DUP4 PUSH1 0x40 MLOAD PUSH1 0x24 ADD PUSH2 0x304D SWAP2 SWAP1 PUSH2 0x4C38 JUMP JUMPDEST PUSH1 0x40 MLOAD PUSH1 0x20 DUP2 DUP4 SUB SUB DUP2 MSTORE SWAP1 PUSH1 0x40 MSTORE SWAP1 PUSH28 0xFFFFFFFFFFFFFFFFFFFFFFFFFFFFFFFFFFFFFFFFFFFFFFFFFFFFFFFF NOT AND PUSH1 0x20 DUP3 ADD DUP1 MLOAD PUSH28 0xFFFFFFFFFFFFFFFFFFFFFFFFFFFFFFFFFFFFFFFFFFFFFFFFFFFFFFFF DUP4 DUP2 DUP4 AND OR DUP4 MSTORE POP POP POP POP SWAP1 POP PUSH1 0x0 DUP1 PUSH1 0x0 PUSH1 0x20 PUSH1 0x0 DUP6 MLOAD PUSH1 0x20 DUP8 ADD DUP11 PUSH2 0x7530 STATICCALL SWAP3 POP RETURNDATASIZE SWAP2 POP PUSH1 0x0 MLOAD SWAP1 POP DUP3 DUP1 ISZERO PUSH2 0x30D8 JUMPI POP PUSH1 0x20 DUP3 LT ISZERO JUMPDEST DUP1 ISZERO PUSH2 0x30E4 JUMPI POP PUSH1 0x0 DUP2 GT JUMPDEST SWAP5 POP POP POP POP POP SWAP3 SWAP2 POP POP JUMP JUMPDEST PUSH1 0x0 PUSH2 0x3118 DUP4 PUSH1 0x0 ADD DUP4 PUSH20 0xFFFFFFFFFFFFFFFFFFFFFFFFFFFFFFFFFFFFFFFF AND PUSH1 0x0 SHL PUSH2 0x36C8 JUMP JUMPDEST SWAP1 POP SWAP3 SWAP2 POP POP JUMP JUMPDEST PUSH1 0x0 PUSH2 0x3148 DUP4 PUSH1 0x0 ADD DUP4 PUSH20 0xFFFFFFFFFFFFFFFFFFFFFFFFFFFFFFFFFFFFFFFF AND PUSH1 0x0 SHL PUSH2 0x3738 JUMP JUMPDEST SWAP1 POP SWAP3 SWAP2 POP POP JUMP JUMPDEST PUSH2 0x3180 PUSH4 0x6BB56A14 PUSH1 0xE0 SHL DUP5 PUSH20 0xFFFFFFFFFFFFFFFFFFFFFFFFFFFFFFFFFFFFFFFF AND PUSH2 0x3031 SWAP1 SWAP2 SWAP1 PUSH4 0xFFFFFFFF AND JUMP JUMPDEST ISZERO PUSH2 0x320A JUMPI DUP3 PUSH20 0xFFFFFFFFFFFFFFFFFFFFFFFFFFFFFFFFFFFFFFFF AND PUSH4 0x6BB56A14 DUP4 DUP4 PUSH1 0x40 MLOAD DUP4 PUSH4 0xFFFFFFFF AND PUSH1 0xE0 SHL DUP2 MSTORE PUSH1 0x4 ADD PUSH2 0x31C0 SWAP3 SWAP2 SWAP1 PUSH2 0x5B50 JUMP JUMPDEST PUSH1 0x0 PUSH1 0x40 MLOAD DUP1 DUP4 SUB DUP2 PUSH1 0x0 DUP8 GAS CALL ISZERO DUP1 ISZERO PUSH2 0x31DF JUMPI RETURNDATASIZE PUSH1 0x0 DUP1 RETURNDATACOPY RETURNDATASIZE PUSH1 0x0 REVERT JUMPDEST POP POP POP POP PUSH1 0x40 MLOAD RETURNDATASIZE PUSH1 0x0 DUP3 RETURNDATACOPY RETURNDATASIZE PUSH1 0x1F NOT PUSH1 0x1F DUP3 ADD AND DUP3 ADD DUP1 PUSH1 0x40 MSTORE POP DUP2 ADD SWAP1 PUSH2 0x3208 SWAP2 SWAP1 PUSH2 0x5BF0 JUMP JUMPDEST POP JUMPDEST POP POP POP JUMP JUMPDEST POP POP POP POP POP JUMP JUMPDEST PUSH1 0x0 PUSH20 0xFFFFFFFFFFFFFFFFFFFFFFFFFFFFFFFFFFFFFFFF AND DUP6 PUSH20 0xFFFFFFFFFFFFFFFFFFFFFFFFFFFFFFFFFFFFFFFF AND SUB PUSH2 0x3268 JUMPI DUP3 PUSH1 0x3 PUSH1 0x0 DUP3 DUP3 SLOAD PUSH2 0x325C SWAP2 SWAP1 PUSH2 0x4E1B JUMP JUMPDEST SWAP3 POP POP DUP2 SWAP1 SSTORE POP PUSH2 0x333D JUMP JUMPDEST PUSH1 0x0 PUSH1 0x4 PUSH1 0x0 DUP8 PUSH20 0xFFFFFFFFFFFFFFFFFFFFFFFFFFFFFFFFFFFFFFFF AND PUSH20 0xFFFFFFFFFFFFFFFFFFFFFFFFFFFFFFFFFFFFFFFF AND DUP2 MSTORE PUSH1 0x20 ADD SWAP1 DUP2 MSTORE PUSH1 0x20 ADD PUSH1 0x0 KECCAK256 SLOAD SWAP1 POP DUP4 DUP2 LT ISZERO PUSH2 0x32F5 JUMPI DUP1 DUP7 DUP6 PUSH1 0x40 MLOAD PUSH32 0x8D4794900000000000000000000000000000000000000000000000000000000 DUP2 MSTORE PUSH1 0x4 ADD PUSH2 0x32EC SWAP4 SWAP3 SWAP2 SWAP1 PUSH2 0x5C39 JUMP JUMPDEST PUSH1 0x40 MLOAD DUP1 SWAP2 SUB SWAP1 REVERT JUMPDEST DUP4 DUP2 SUB PUSH1 0x4 PUSH1 0x0 DUP9 PUSH20 0xFFFFFFFFFFFFFFFFFFFFFFFFFFFFFFFFFFFFFFFF AND PUSH20 0xFFFFFFFFFFFFFFFFFFFFFFFFFFFFFFFFFFFFFFFF AND DUP2 MSTORE PUSH1 0x20 ADD SWAP1 DUP2 MSTORE PUSH1 0x20 ADD PUSH1 0x0 KECCAK256 DUP2 SWAP1 SSTORE POP POP JUMPDEST PUSH1 0x0 PUSH20 0xFFFFFFFFFFFFFFFFFFFFFFFFFFFFFFFFFFFFFFFF AND DUP5 PUSH20 0xFFFFFFFFFFFFFFFFFFFFFFFFFFFFFFFFFFFFFFFF AND SUB PUSH2 0x3386 JUMPI DUP3 PUSH1 0x3 PUSH1 0x0 DUP3 DUP3 SLOAD SUB SWAP3 POP POP DUP2 SWAP1 SSTORE POP PUSH2 0x33D4 JUMP JUMPDEST DUP3 PUSH1 0x4 PUSH1 0x0 DUP7 PUSH20 0xFFFFFFFFFFFFFFFFFFFFFFFFFFFFFFFFFFFFFFFF AND PUSH20 0xFFFFFFFFFFFFFFFFFFFFFFFFFFFFFFFFFFFFFFFF AND DUP2 MSTORE PUSH1 0x20 ADD SWAP1 DUP2 MSTORE PUSH1 0x20 ADD PUSH1 0x0 KECCAK256 PUSH1 0x0 DUP3 DUP3 SLOAD ADD SWAP3 POP POP DUP2 SWAP1 SSTORE POP JUMPDEST DUP4 PUSH20 0xFFFFFFFFFFFFFFFFFFFFFFFFFFFFFFFFFFFFFFFF AND DUP6 PUSH20 0xFFFFFFFFFFFFFFFFFFFFFFFFFFFFFFFFFFFFFFFF AND CALLER PUSH20 0xFFFFFFFFFFFFFFFFFFFFFFFFFFFFFFFFFFFFFFFF AND PUSH32 0x3997E418D2CEF0B3B0E907B1E39605C3F7D32DBD061E82EA5B4A770D46A160A6 DUP7 DUP7 DUP7 PUSH1 0x40 MLOAD PUSH2 0x344C SWAP4 SWAP3 SWAP2 SWAP1 PUSH2 0x5C70 JUMP JUMPDEST PUSH1 0x40 MLOAD DUP1 SWAP2 SUB SWAP1 LOG4 POP POP POP POP POP JUMP JUMPDEST POP POP POP POP POP JUMP JUMPDEST PUSH2 0x3490 DUP3 PUSH32 0x429AC7A06903DBC9C13DFCB3C9D11DF8194581FA047C96D7A4171FC7402958EA PUSH1 0x0 SHL DUP4 PUSH2 0x3150 JUMP JUMPDEST POP POP JUMP JUMPDEST PUSH2 0x34A5 DUP4 PUSH4 0x6BB56A14 PUSH1 0xE0 SHL PUSH2 0x3031 JUMP JUMPDEST ISZERO PUSH2 0x3556 JUMPI DUP3 PUSH20 0xFFFFFFFFFFFFFFFFFFFFFFFFFFFFFFFFFFFFFFFF AND PUSH4 0x6BB56A14 PUSH32 0x20804611B3E2EA21C480DC465142210ACF4A2485947541770EC1FB87DEE4A55C PUSH1 0x0 SHL DUP4 PUSH1 0x40 MLOAD DUP4 PUSH4 0xFFFFFFFF AND PUSH1 0xE0 SHL DUP2 MSTORE PUSH1 0x4 ADD PUSH2 0x3508 SWAP3 SWAP2 SWAP1 PUSH2 0x5B50 JUMP JUMPDEST PUSH1 0x0 PUSH1 0x40 MLOAD DUP1 DUP4 SUB DUP2 PUSH1 0x0 DUP8 GAS CALL ISZERO DUP1 ISZERO PUSH2 0x3527 JUMPI RETURNDATASIZE PUSH1 0x0 DUP1 RETURNDATACOPY RETURNDATASIZE PUSH1 0x0 REVERT JUMPDEST POP POP POP POP PUSH1 0x40 MLOAD RETURNDATASIZE PUSH1 0x0 DUP3 RETURNDATACOPY RETURNDATASIZE PUSH1 0x1F NOT PUSH1 0x1F DUP3 ADD AND DUP3 ADD DUP1 PUSH1 0x40 MSTORE POP DUP2 ADD SWAP1 PUSH2 0x3550 SWAP2 SWAP1 PUSH2 0x5BF0 JUMP JUMPDEST POP PUSH2 0x35F5 JUMP JUMPDEST DUP2 PUSH2 0x35F4 JUMPI PUSH1 0x0 DUP4 PUSH20 0xFFFFFFFFFFFFFFFFFFFFFFFFFFFFFFFFFFFFFFFF AND EXTCODESIZE EQ PUSH2 0x35B7 JUMPI DUP3 PUSH1 0x40 MLOAD PUSH32 0xA608FBB600000000000000000000000000000000000000000000000000000000 DUP2 MSTORE PUSH1 0x4 ADD PUSH2 0x35AE SWAP2 SWAP1 PUSH2 0x47CF JUMP JUMPDEST PUSH1 0x40 MLOAD DUP1 SWAP2 SUB SWAP1 REVERT JUMPDEST DUP3 PUSH1 0x40 MLOAD PUSH32 0x26C247F400000000000000000000000000000000000000000000000000000000 DUP2 MSTORE PUSH1 0x4 ADD PUSH2 0x35EB SWAP2 SWAP1 PUSH2 0x47CF JUMP JUMPDEST PUSH1 0x40 MLOAD DUP1 SWAP2 SUB SWAP1 REVERT JUMPDEST JUMPDEST POP POP POP JUMP JUMPDEST PUSH1 0x0 CALLER SWAP1 POP SWAP1 JUMP JUMPDEST PUSH1 0x60 DUP2 PUSH1 0x0 ADD DUP1 SLOAD DUP1 PUSH1 0x20 MUL PUSH1 0x20 ADD PUSH1 0x40 MLOAD SWAP1 DUP2 ADD PUSH1 0x40 MSTORE DUP1 SWAP3 SWAP2 SWAP1 DUP2 DUP2 MSTORE PUSH1 0x20 ADD DUP3 DUP1 SLOAD DUP1 ISZERO PUSH2 0x3652 JUMPI PUSH1 0x20 MUL DUP3 ADD SWAP2 SWAP1 PUSH1 0x0 MSTORE PUSH1 0x20 PUSH1 0x0 KECCAK256 SWAP1 JUMPDEST DUP2 SLOAD DUP2 MSTORE PUSH1 0x20 ADD SWAP1 PUSH1 0x1 ADD SWAP1 DUP1 DUP4 GT PUSH2 0x363E JUMPI JUMPDEST POP POP POP POP POP SWAP1 POP SWAP2 SWAP1 POP JUMP JUMPDEST PUSH1 0x0 PUSH32 0x1FFC9A700000000000000000000000000000000000000000000000000000000 PUSH28 0xFFFFFFFFFFFFFFFFFFFFFFFFFFFFFFFFFFFFFFFFFFFFFFFFFFFFFFFF NOT AND DUP3 PUSH28 0xFFFFFFFFFFFFFFFFFFFFFFFFFFFFFFFFFFFFFFFFFFFFFFFFFFFFFFFF NOT AND EQ SWAP1 POP SWAP2 SWAP1 POP JUMP JUMPDEST PUSH1 0x0 PUSH2 0x36D4 DUP4 DUP4 PUSH2 0x384C JUMP JUMPDEST PUSH2 0x372D JUMPI DUP3 PUSH1 0x0 ADD DUP3 SWAP1 DUP1 PUSH1 0x1 DUP2 SLOAD ADD DUP1 DUP3 SSTORE DUP1 SWAP2 POP POP PUSH1 0x1 SWAP1 SUB SWAP1 PUSH1 0x0 MSTORE PUSH1 0x20 PUSH1 0x0 KECCAK256 ADD PUSH1 0x0 SWAP1 SWAP2 SWAP1 SWAP2 SWAP1 SWAP2 POP SSTORE DUP3 PUSH1 0x0 ADD DUP1 SLOAD SWAP1 POP DUP4 PUSH1 0x1 ADD PUSH1 0x0 DUP5 DUP2 MSTORE PUSH1 0x20 ADD SWAP1 DUP2 MSTORE PUSH1 0x20 ADD PUSH1 0x0 KECCAK256 DUP2 SWAP1 SSTORE POP PUSH1 0x1 SWAP1 POP PUSH2 0x3732 JUMP JUMPDEST PUSH1 0x0 SWAP1 POP JUMPDEST SWAP3 SWAP2 POP POP JUMP JUMPDEST PUSH1 0x0 DUP1 DUP4 PUSH1 0x1 ADD PUSH1 0x0 DUP5 DUP2 MSTORE PUSH1 0x20 ADD SWAP1 DUP2 MSTORE PUSH1 0x20 ADD PUSH1 0x0 KECCAK256 SLOAD SWAP1 POP PUSH1 0x0 DUP2 EQ PUSH2 0x3840 JUMPI PUSH1 0x0 PUSH1 0x1 DUP3 PUSH2 0x376A SWAP2 SWAP1 PUSH2 0x5617 JUMP JUMPDEST SWAP1 POP PUSH1 0x0 PUSH1 0x1 DUP7 PUSH1 0x0 ADD DUP1 SLOAD SWAP1 POP PUSH2 0x3782 SWAP2 SWAP1 PUSH2 0x5617 JUMP JUMPDEST SWAP1 POP DUP2 DUP2 EQ PUSH2 0x37F1 JUMPI PUSH1 0x0 DUP7 PUSH1 0x0 ADD DUP3 DUP2 SLOAD DUP2 LT PUSH2 0x37A3 JUMPI PUSH2 0x37A2 PUSH2 0x4E8D JUMP JUMPDEST JUMPDEST SWAP1 PUSH1 0x0 MSTORE PUSH1 0x20 PUSH1 0x0 KECCAK256 ADD SLOAD SWAP1 POP DUP1 DUP8 PUSH1 0x0 ADD DUP5 DUP2 SLOAD DUP2 LT PUSH2 0x37C7 JUMPI PUSH2 0x37C6 PUSH2 0x4E8D JUMP JUMPDEST JUMPDEST SWAP1 PUSH1 0x0 MSTORE PUSH1 0x20 PUSH1 0x0 KECCAK256 ADD DUP2 SWAP1 SSTORE POP DUP4 DUP8 PUSH1 0x1 ADD PUSH1 0x0 DUP4 DUP2 MSTORE PUSH1 0x20 ADD SWAP1 DUP2 MSTORE PUSH1 0x20 ADD PUSH1 0x0 KECCAK256 DUP2 SWAP1 SSTORE POP POP JUMPDEST DUP6 PUSH1 0x0 ADD DUP1 SLOAD DUP1 PUSH2 0x3805 JUMPI PUSH2 0x3804 PUSH2 0x5CAE JUMP JUMPDEST JUMPDEST PUSH1 0x1 SWAP1 SUB DUP2 DUP2 SWAP1 PUSH1 0x0 MSTORE PUSH1 0x20 PUSH1 0x0 KECCAK256 ADD PUSH1 0x0 SWAP1 SSTORE SWAP1 SSTORE DUP6 PUSH1 0x1 ADD PUSH1 0x0 DUP7 DUP2 MSTORE PUSH1 0x20 ADD SWAP1 DUP2 MSTORE PUSH1 0x20 ADD PUSH1 0x0 KECCAK256 PUSH1 0x0 SWAP1 SSTORE PUSH1 0x1 SWAP4 POP POP POP POP PUSH2 0x3846 JUMP JUMPDEST PUSH1 0x0 SWAP2 POP POP JUMPDEST SWAP3 SWAP2 POP POP JUMP JUMPDEST PUSH1 0x0 DUP1 DUP4 PUSH1 0x1 ADD PUSH1 0x0 DUP5 DUP2 MSTORE PUSH1 0x20 ADD SWAP1 DUP2 MSTORE PUSH1 0x20 ADD PUSH1 0x0 KECCAK256 SLOAD EQ ISZERO SWAP1 POP SWAP3 SWAP2 POP POP JUMP JUMPDEST PUSH1 0x40 MLOAD DUP1 PUSH1 0x80 ADD PUSH1 0x40 MSTORE DUP1 PUSH1 0x0 PUSH20 0xFFFFFFFFFFFFFFFFFFFFFFFFFFFFFFFFFFFFFFFF AND DUP2 MSTORE PUSH1 0x20 ADD PUSH1 0x60 DUP2 MSTORE PUSH1 0x20 ADD PUSH1 0x60 DUP2 MSTORE PUSH1 0x20 ADD PUSH1 0x0 ISZERO ISZERO DUP2 MSTORE POP SWAP1 JUMP JUMPDEST PUSH1 0x0 DUP3 DUP3 MSTORE PUSH1 0x20 DUP3 ADD SWAP1 POP SWAP3 SWAP2 POP POP JUMP JUMPDEST PUSH1 0x0 DUP1 DUP3 ADD MSTORE POP JUMP JUMPDEST PUSH1 0x0 PUSH2 0x38D6 PUSH1 0x4 DUP4 PUSH2 0x38AF JUMP JUMPDEST SWAP2 POP PUSH2 0x38E1 DUP3 PUSH2 0x38C0 JUMP JUMPDEST PUSH1 0x20 DUP3 ADD SWAP1 POP SWAP2 SWAP1 POP JUMP JUMPDEST PUSH1 0x0 PUSH1 0x20 DUP3 ADD SWAP1 POP DUP2 DUP2 SUB PUSH1 0x0 DUP4 ADD MSTORE PUSH2 0x3905 DUP2 PUSH2 0x38C9 JUMP JUMPDEST SWAP1 POP SWAP2 SWAP1 POP JUMP JUMPDEST DUP3 DUP2 DUP4 CALLDATACOPY PUSH1 0x0 DUP4 DUP4 ADD MSTORE POP POP POP JUMP JUMPDEST PUSH1 0x0 PUSH1 0x1F NOT PUSH1 0x1F DUP4 ADD AND SWAP1 POP SWAP2 SWAP1 POP JUMP JUMPDEST PUSH1 0x0 PUSH2 0x3938 DUP4 DUP6 PUSH2 0x38AF JUMP JUMPDEST SWAP4 POP PUSH2 0x3945 DUP4 DUP6 DUP5 PUSH2 0x390C JUMP JUMPDEST PUSH2 0x394E DUP4 PUSH2 0x391B JUMP JUMPDEST DUP5 ADD SWAP1 POP SWAP4 SWAP3 POP POP POP JUMP JUMPDEST PUSH1 0x0 PUSH1 0x20 DUP3 ADD SWAP1 POP DUP2 DUP2 SUB PUSH1 0x0 DUP4 ADD MSTORE PUSH2 0x3974 DUP2 DUP5 DUP7 PUSH2 0x392C JUMP JUMPDEST SWAP1 POP SWAP4 SWAP3 POP POP POP JUMP JUMPDEST PUSH1 0x0 PUSH1 0x40 MLOAD SWAP1 POP SWAP1 JUMP JUMPDEST PUSH1 0x0 DUP1 REVERT JUMPDEST PUSH1 0x0 DUP1 REVERT JUMPDEST PUSH1 0x0 PUSH32 0xFFFFFFFF00000000000000000000000000000000000000000000000000000000 DUP3 AND SWAP1 POP SWAP2 SWAP1 POP JUMP JUMPDEST PUSH2 0x39C6 DUP2 PUSH2 0x3991 JUMP JUMPDEST DUP2 EQ PUSH2 0x39D1 JUMPI PUSH1 0x0 DUP1 REVERT JUMPDEST POP JUMP JUMPDEST PUSH1 0x0 DUP2 CALLDATALOAD SWAP1 POP PUSH2 0x39E3 DUP2 PUSH2 0x39BD JUMP JUMPDEST SWAP3 SWAP2 POP POP JUMP JUMPDEST PUSH1 0x0 PUSH1 0x20 DUP3 DUP5 SUB SLT ISZERO PUSH2 0x39FF JUMPI PUSH2 0x39FE PUSH2 0x3987 JUMP JUMPDEST JUMPDEST PUSH1 0x0 PUSH2 0x3A0D DUP5 DUP3 DUP6 ADD PUSH2 0x39D4 JUMP JUMPDEST SWAP2 POP POP SWAP3 SWAP2 POP POP JUMP JUMPDEST PUSH1 0x0 DUP2 ISZERO ISZERO SWAP1 POP SWAP2 SWAP1 POP JUMP JUMPDEST PUSH2 0x3A2B DUP2 PUSH2 0x3A16 JUMP JUMPDEST DUP3 MSTORE POP POP JUMP JUMPDEST PUSH1 0x0 PUSH1 0x20 DUP3 ADD SWAP1 POP PUSH2 0x3A46 PUSH1 0x0 DUP4 ADD DUP5 PUSH2 0x3A22 JUMP JUMPDEST SWAP3 SWAP2 POP POP JUMP JUMPDEST PUSH1 0x0 DUP2 SWAP1 POP SWAP2 SWAP1 POP JUMP JUMPDEST PUSH2 0x3A5F DUP2 PUSH2 0x3A4C JUMP JUMPDEST DUP3 MSTORE POP POP JUMP JUMPDEST PUSH1 0x0 PUSH1 0x20 DUP3 ADD SWAP1 POP PUSH2 0x3A7A PUSH1 0x0 DUP4 ADD DUP5 PUSH2 0x3A56 JUMP JUMPDEST SWAP3 SWAP2 POP POP JUMP JUMPDEST PUSH1 0x0 PUSH20 0xFFFFFFFFFFFFFFFFFFFFFFFFFFFFFFFFFFFFFFFF DUP3 AND SWAP1 POP SWAP2 SWAP1 POP JUMP JUMPDEST PUSH1 0x0 PUSH2 0x3AAB DUP3 PUSH2 0x3A80 JUMP JUMPDEST SWAP1 POP SWAP2 SWAP1 POP JUMP JUMPDEST PUSH2 0x3ABB DUP2 PUSH2 0x3AA0 JUMP JUMPDEST DUP2 EQ PUSH2 0x3AC6 JUMPI PUSH1 0x0 DUP1 REVERT JUMPDEST POP JUMP JUMPDEST PUSH1 0x0 DUP2 CALLDATALOAD SWAP1 POP PUSH2 0x3AD8 DUP2 PUSH2 0x3AB2 JUMP JUMPDEST SWAP3 SWAP2 POP POP JUMP JUMPDEST PUSH2 0x3AE7 DUP2 PUSH2 0x3A4C JUMP JUMPDEST DUP2 EQ PUSH2 0x3AF2 JUMPI PUSH1 0x0 DUP1 REVERT JUMPDEST POP JUMP JUMPDEST PUSH1 0x0 DUP2 CALLDATALOAD SWAP1 POP PUSH2 0x3B04 DUP2 PUSH2 0x3ADE JUMP JUMPDEST SWAP3 SWAP2 POP POP JUMP JUMPDEST PUSH1 0x0 DUP1 REVERT JUMPDEST PUSH1 0x0 DUP1 REVERT JUMPDEST PUSH32 0x4E487B7100000000000000000000000000000000000000000000000000000000 PUSH1 0x0 MSTORE PUSH1 0x41 PUSH1 0x4 MSTORE PUSH1 0x24 PUSH1 0x0 REVERT JUMPDEST PUSH2 0x3B4C DUP3 PUSH2 0x391B JUMP JUMPDEST DUP2 ADD DUP2 DUP2 LT PUSH8 0xFFFFFFFFFFFFFFFF DUP3 GT OR ISZERO PUSH2 0x3B6B JUMPI PUSH2 0x3B6A PUSH2 0x3B14 JUMP JUMPDEST JUMPDEST DUP1 PUSH1 0x40 MSTORE POP POP POP JUMP JUMPDEST PUSH1 0x0 PUSH2 0x3B7E PUSH2 0x397D JUMP JUMPDEST SWAP1 POP PUSH2 0x3B8A DUP3 DUP3 PUSH2 0x3B43 JUMP JUMPDEST SWAP2 SWAP1 POP JUMP JUMPDEST PUSH1 0x0 PUSH8 0xFFFFFFFFFFFFFFFF DUP3 GT ISZERO PUSH2 0x3BAA JUMPI PUSH2 0x3BA9 PUSH2 0x3B14 JUMP JUMPDEST JUMPDEST PUSH2 0x3BB3 DUP3 PUSH2 0x391B JUMP JUMPDEST SWAP1 POP PUSH1 0x20 DUP2 ADD SWAP1 POP SWAP2 SWAP1 POP JUMP JUMPDEST PUSH1 0x0 PUSH2 0x3BD3 PUSH2 0x3BCE DUP5 PUSH2 0x3B8F JUMP JUMPDEST PUSH2 0x3B74 JUMP JUMPDEST SWAP1 POP DUP3 DUP2 MSTORE PUSH1 0x20 DUP2 ADD DUP5 DUP5 DUP5 ADD GT ISZERO PUSH2 0x3BEF JUMPI PUSH2 0x3BEE PUSH2 0x3B0F JUMP JUMPDEST JUMPDEST PUSH2 0x3BFA DUP5 DUP3 DUP6 PUSH2 0x390C JUMP JUMPDEST POP SWAP4 SWAP3 POP POP POP JUMP JUMPDEST PUSH1 0x0 DUP3 PUSH1 0x1F DUP4 ADD SLT PUSH2 0x3C17 JUMPI PUSH2 0x3C16 PUSH2 0x3B0A JUMP JUMPDEST JUMPDEST DUP2 CALLDATALOAD PUSH2 0x3C27 DUP5 DUP3 PUSH1 0x20 DUP7 ADD PUSH2 0x3BC0 JUMP JUMPDEST SWAP2 POP POP SWAP3 SWAP2 POP POP JUMP JUMPDEST PUSH1 0x0 DUP1 PUSH1 0x0 PUSH1 0x60 DUP5 DUP7 SUB SLT ISZERO PUSH2 0x3C49 JUMPI PUSH2 0x3C48 PUSH2 0x3987 JUMP JUMPDEST JUMPDEST PUSH1 0x0 PUSH2 0x3C57 DUP7 DUP3 DUP8 ADD PUSH2 0x3AC9 JUMP JUMPDEST SWAP4 POP POP PUSH1 0x20 PUSH2 0x3C68 DUP7 DUP3 DUP8 ADD PUSH2 0x3AF5 JUMP JUMPDEST SWAP3 POP POP PUSH1 0x40 DUP5 ADD CALLDATALOAD PUSH8 0xFFFFFFFFFFFFFFFF DUP2 GT ISZERO PUSH2 0x3C89 JUMPI PUSH2 0x3C88 PUSH2 0x398C JUMP JUMPDEST JUMPDEST PUSH2 0x3C95 DUP7 DUP3 DUP8 ADD PUSH2 0x3C02 JUMP JUMPDEST SWAP2 POP POP SWAP3 POP SWAP3 POP SWAP3 JUMP JUMPDEST PUSH1 0x0 PUSH8 0xFFFFFFFFFFFFFFFF DUP3 GT ISZERO PUSH2 0x3CBA JUMPI PUSH2 0x3CB9 PUSH2 0x3B14 JUMP JUMPDEST JUMPDEST PUSH1 0x20 DUP3 MUL SWAP1 POP PUSH1 0x20 DUP2 ADD SWAP1 POP SWAP2 SWAP1 POP JUMP JUMPDEST PUSH1 0x0 DUP1 REVERT JUMPDEST PUSH1 0x0 PUSH2 0x3CE3 PUSH2 0x3CDE DUP5 PUSH2 0x3C9F JUMP JUMPDEST PUSH2 0x3B74 JUMP JUMPDEST SWAP1 POP DUP1 DUP4 DUP3 MSTORE PUSH1 0x20 DUP3 ADD SWAP1 POP PUSH1 0x20 DUP5 MUL DUP4 ADD DUP6 DUP2 GT ISZERO PUSH2 0x3D06 JUMPI PUSH2 0x3D05 PUSH2 0x3CCB JUMP JUMPDEST JUMPDEST DUP4 JUMPDEST DUP2 DUP2 LT ISZERO PUSH2 0x3D2F JUMPI DUP1 PUSH2 0x3D1B DUP9 DUP3 PUSH2 0x3AC9 JUMP JUMPDEST DUP5 MSTORE PUSH1 0x20 DUP5 ADD SWAP4 POP POP PUSH1 0x20 DUP2 ADD SWAP1 POP PUSH2 0x3D08 JUMP JUMPDEST POP POP POP SWAP4 SWAP3 POP POP POP JUMP JUMPDEST PUSH1 0x0 DUP3 PUSH1 0x1F DUP4 ADD SLT PUSH2 0x3D4E JUMPI PUSH2 0x3D4D PUSH2 0x3B0A JUMP JUMPDEST JUMPDEST DUP2 CALLDATALOAD PUSH2 0x3D5E DUP5 DUP3 PUSH1 0x20 DUP7 ADD PUSH2 0x3CD0 JUMP JUMPDEST SWAP2 POP POP SWAP3 SWAP2 POP POP JUMP JUMPDEST PUSH1 0x0 PUSH8 0xFFFFFFFFFFFFFFFF DUP3 GT ISZERO PUSH2 0x3D82 JUMPI PUSH2 0x3D81 PUSH2 0x3B14 JUMP JUMPDEST JUMPDEST PUSH1 0x20 DUP3 MUL SWAP1 POP PUSH1 0x20 DUP2 ADD SWAP1 POP SWAP2 SWAP1 POP JUMP JUMPDEST PUSH1 0x0 PUSH2 0x3DA6 PUSH2 0x3DA1 DUP5 PUSH2 0x3D67 JUMP JUMPDEST PUSH2 0x3B74 JUMP JUMPDEST SWAP1 POP DUP1 DUP4 DUP3 MSTORE PUSH1 0x20 DUP3 ADD SWAP1 POP PUSH1 0x20 DUP5 MUL DUP4 ADD DUP6 DUP2 GT ISZERO PUSH2 0x3DC9 JUMPI PUSH2 0x3DC8 PUSH2 0x3CCB JUMP JUMPDEST JUMPDEST DUP4 JUMPDEST DUP2 DUP2 LT ISZERO PUSH2 0x3DF2 JUMPI DUP1 PUSH2 0x3DDE DUP9 DUP3 PUSH2 0x3AF5 JUMP JUMPDEST DUP5 MSTORE PUSH1 0x20 DUP5 ADD SWAP4 POP POP PUSH1 0x20 DUP2 ADD SWAP1 POP PUSH2 0x3DCB JUMP JUMPDEST POP POP POP SWAP4 SWAP3 POP POP POP JUMP JUMPDEST PUSH1 0x0 DUP3 PUSH1 0x1F DUP4 ADD SLT PUSH2 0x3E11 JUMPI PUSH2 0x3E10 PUSH2 0x3B0A JUMP JUMPDEST JUMPDEST DUP2 CALLDATALOAD PUSH2 0x3E21 DUP5 DUP3 PUSH1 0x20 DUP7 ADD PUSH2 0x3D93 JUMP JUMPDEST SWAP2 POP POP SWAP3 SWAP2 POP POP JUMP JUMPDEST PUSH1 0x0 PUSH8 0xFFFFFFFFFFFFFFFF DUP3 GT ISZERO PUSH2 0x3E45 JUMPI PUSH2 0x3E44 PUSH2 0x3B14 JUMP JUMPDEST JUMPDEST PUSH1 0x20 DUP3 MUL SWAP1 POP PUSH1 0x20 DUP2 ADD SWAP1 POP SWAP2 SWAP1 POP JUMP JUMPDEST PUSH2 0x3E5F DUP2 PUSH2 0x3A16 JUMP JUMPDEST DUP2 EQ PUSH2 0x3E6A JUMPI PUSH1 0x0 DUP1 REVERT JUMPDEST POP JUMP JUMPDEST PUSH1 0x0 DUP2 CALLDATALOAD SWAP1 POP PUSH2 0x3E7C DUP2 PUSH2 0x3E56 JUMP JUMPDEST SWAP3 SWAP2 POP POP JUMP JUMPDEST PUSH1 0x0 PUSH2 0x3E95 PUSH2 0x3E90 DUP5 PUSH2 0x3E2A JUMP JUMPDEST PUSH2 0x3B74 JUMP JUMPDEST SWAP1 POP DUP1 DUP4 DUP3 MSTORE PUSH1 0x20 DUP3 ADD SWAP1 POP PUSH1 0x20 DUP5 MUL DUP4 ADD DUP6 DUP2 GT ISZERO PUSH2 0x3EB8 JUMPI PUSH2 0x3EB7 PUSH2 0x3CCB JUMP JUMPDEST JUMPDEST DUP4 JUMPDEST DUP2 DUP2 LT ISZERO PUSH2 0x3EE1 JUMPI DUP1 PUSH2 0x3ECD DUP9 DUP3 PUSH2 0x3E6D JUMP JUMPDEST DUP5 MSTORE PUSH1 0x20 DUP5 ADD SWAP4 POP POP PUSH1 0x20 DUP2 ADD SWAP1 POP PUSH2 0x3EBA JUMP JUMPDEST POP POP POP SWAP4 SWAP3 POP POP POP JUMP JUMPDEST PUSH1 0x0 DUP3 PUSH1 0x1F DUP4 ADD SLT PUSH2 0x3F00 JUMPI PUSH2 0x3EFF PUSH2 0x3B0A JUMP JUMPDEST JUMPDEST DUP2 CALLDATALOAD PUSH2 0x3F10 DUP5 DUP3 PUSH1 0x20 DUP7 ADD PUSH2 0x3E82 JUMP JUMPDEST SWAP2 POP POP SWAP3 SWAP2 POP POP JUMP JUMPDEST PUSH1 0x0 PUSH8 0xFFFFFFFFFFFFFFFF DUP3 GT ISZERO PUSH2 0x3F34 JUMPI PUSH2 0x3F33 PUSH2 0x3B14 JUMP JUMPDEST JUMPDEST PUSH1 0x20 DUP3 MUL SWAP1 POP PUSH1 0x20 DUP2 ADD SWAP1 POP SWAP2 SWAP1 POP JUMP JUMPDEST PUSH1 0x0 PUSH2 0x3F58 PUSH2 0x3F53 DUP5 PUSH2 0x3F19 JUMP JUMPDEST PUSH2 0x3B74 JUMP JUMPDEST SWAP1 POP DUP1 DUP4 DUP3 MSTORE PUSH1 0x20 DUP3 ADD SWAP1 POP PUSH1 0x20 DUP5 MUL DUP4 ADD DUP6 DUP2 GT ISZERO PUSH2 0x3F7B JUMPI PUSH2 0x3F7A PUSH2 0x3CCB JUMP JUMPDEST JUMPDEST DUP4 JUMPDEST DUP2 DUP2 LT ISZERO PUSH2 0x3FC2 JUMPI DUP1 CALLDATALOAD PUSH8 0xFFFFFFFFFFFFFFFF DUP2 GT ISZERO PUSH2 0x3FA0 JUMPI PUSH2 0x3F9F PUSH2 0x3B0A JUMP JUMPDEST JUMPDEST DUP1 DUP7 ADD PUSH2 0x3FAD DUP10 DUP3 PUSH2 0x3C02 JUMP JUMPDEST DUP6 MSTORE PUSH1 0x20 DUP6 ADD SWAP5 POP POP POP PUSH1 0x20 DUP2 ADD SWAP1 POP PUSH2 0x3F7D JUMP JUMPDEST POP POP POP SWAP4 SWAP3 POP POP POP JUMP JUMPDEST PUSH1 0x0 DUP3 PUSH1 0x1F DUP4 ADD SLT PUSH2 0x3FE1 JUMPI PUSH2 0x3FE0 PUSH2 0x3B0A JUMP JUMPDEST JUMPDEST DUP2 CALLDATALOAD PUSH2 0x3FF1 DUP5 DUP3 PUSH1 0x20 DUP7 ADD PUSH2 0x3F45 JUMP JUMPDEST SWAP2 POP POP SWAP3 SWAP2 POP POP JUMP JUMPDEST PUSH1 0x0 DUP1 PUSH1 0x0 DUP1 PUSH1 0x0 PUSH1 0xA0 DUP7 DUP9 SUB SLT ISZERO PUSH2 0x4016 JUMPI PUSH2 0x4015 PUSH2 0x3987 JUMP JUMPDEST JUMPDEST PUSH1 0x0 DUP7 ADD CALLDATALOAD PUSH8 0xFFFFFFFFFFFFFFFF DUP2 GT ISZERO PUSH2 0x4034 JUMPI PUSH2 0x4033 PUSH2 0x398C JUMP JUMPDEST JUMPDEST PUSH2 0x4040 DUP9 DUP3 DUP10 ADD PUSH2 0x3D39 JUMP JUMPDEST SWAP6 POP POP PUSH1 0x20 DUP7 ADD CALLDATALOAD PUSH8 0xFFFFFFFFFFFFFFFF DUP2 GT ISZERO PUSH2 0x4061 JUMPI PUSH2 0x4060 PUSH2 0x398C JUMP JUMPDEST JUMPDEST PUSH2 0x406D DUP9 DUP3 DUP10 ADD PUSH2 0x3D39 JUMP JUMPDEST SWAP5 POP POP PUSH1 0x40 DUP7 ADD CALLDATALOAD PUSH8 0xFFFFFFFFFFFFFFFF DUP2 GT ISZERO PUSH2 0x408E JUMPI PUSH2 0x408D PUSH2 0x398C JUMP JUMPDEST JUMPDEST PUSH2 0x409A DUP9 DUP3 DUP10 ADD PUSH2 0x3DFC JUMP JUMPDEST SWAP4 POP POP PUSH1 0x60 DUP7 ADD CALLDATALOAD PUSH8 0xFFFFFFFFFFFFFFFF DUP2 GT ISZERO PUSH2 0x40BB JUMPI PUSH2 0x40BA PUSH2 0x398C JUMP JUMPDEST JUMPDEST PUSH2 0x40C7 DUP9 DUP3 DUP10 ADD PUSH2 0x3EEB JUMP JUMPDEST SWAP3 POP POP PUSH1 0x80 DUP7 ADD CALLDATALOAD PUSH8 0xFFFFFFFFFFFFFFFF DUP2 GT ISZERO PUSH2 0x40E8 JUMPI PUSH2 0x40E7 PUSH2 0x398C JUMP JUMPDEST JUMPDEST PUSH2 0x40F4 DUP9 DUP3 DUP10 ADD PUSH2 0x3FCC JUMP JUMPDEST SWAP2 POP POP SWAP3 SWAP6 POP SWAP3 SWAP6 SWAP1 SWAP4 POP JUMP JUMPDEST PUSH1 0x0 DUP1 PUSH1 0x0 DUP1 PUSH1 0x80 DUP6 DUP8 SUB SLT ISZERO PUSH2 0x411B JUMPI PUSH2 0x411A PUSH2 0x3987 JUMP JUMPDEST JUMPDEST PUSH1 0x0 PUSH2 0x4129 DUP8 DUP3 DUP9 ADD PUSH2 0x3AC9 JUMP JUMPDEST SWAP5 POP POP PUSH1 0x20 PUSH2 0x413A DUP8 DUP3 DUP9 ADD PUSH2 0x3AC9 JUMP JUMPDEST SWAP4 POP POP PUSH1 0x40 PUSH2 0x414B DUP8 DUP3 DUP9 ADD PUSH2 0x3E6D JUMP JUMPDEST SWAP3 POP POP PUSH1 0x60 DUP6 ADD CALLDATALOAD PUSH8 0xFFFFFFFFFFFFFFFF DUP2 GT ISZERO PUSH2 0x416C JUMPI PUSH2 0x416B PUSH2 0x398C JUMP JUMPDEST JUMPDEST PUSH2 0x4178 DUP8 DUP3 DUP9 ADD PUSH2 0x3C02 JUMP JUMPDEST SWAP2 POP POP SWAP3 SWAP6 SWAP2 SWAP5 POP SWAP3 POP JUMP JUMPDEST PUSH1 0x0 PUSH1 0xFF DUP3 AND SWAP1 POP SWAP2 SWAP1 POP JUMP JUMPDEST PUSH2 0x419A DUP2 PUSH2 0x4184 JUMP JUMPDEST DUP3 MSTORE POP POP JUMP JUMPDEST PUSH1 0x0 PUSH1 0x20 DUP3 ADD SWAP1 POP PUSH2 0x41B5 PUSH1 0x0 DUP4 ADD DUP5 PUSH2 0x4191 JUMP JUMPDEST SWAP3 SWAP2 POP POP JUMP JUMPDEST PUSH1 0x0 PUSH8 0xFFFFFFFFFFFFFFFF DUP3 GT ISZERO PUSH2 0x41D6 JUMPI PUSH2 0x41D5 PUSH2 0x3B14 JUMP JUMPDEST JUMPDEST PUSH2 0x41DF DUP3 PUSH2 0x391B JUMP JUMPDEST SWAP1 POP PUSH1 0x20 DUP2 ADD SWAP1 POP SWAP2 SWAP1 POP JUMP JUMPDEST PUSH1 0x0 PUSH2 0x41FF PUSH2 0x41FA DUP5 PUSH2 0x41BB JUMP JUMPDEST PUSH2 0x3B74 JUMP JUMPDEST SWAP1 POP DUP3 DUP2 MSTORE PUSH1 0x20 DUP2 ADD DUP5 DUP5 DUP5 ADD GT ISZERO PUSH2 0x421B JUMPI PUSH2 0x421A PUSH2 0x3B0F JUMP JUMPDEST JUMPDEST PUSH2 0x4226 DUP5 DUP3 DUP6 PUSH2 0x390C JUMP JUMPDEST POP SWAP4 SWAP3 POP POP POP JUMP JUMPDEST PUSH1 0x0 DUP3 PUSH1 0x1F DUP4 ADD SLT PUSH2 0x4243 JUMPI PUSH2 0x4242 PUSH2 0x3B0A JUMP JUMPDEST JUMPDEST DUP2 CALLDATALOAD PUSH2 0x4253 DUP5 DUP3 PUSH1 0x20 DUP7 ADD PUSH2 0x41EC JUMP JUMPDEST SWAP2 POP POP SWAP3 SWAP2 POP POP JUMP JUMPDEST PUSH1 0x0 DUP1 PUSH1 0x40 DUP4 DUP6 SUB SLT ISZERO PUSH2 0x4273 JUMPI PUSH2 0x4272 PUSH2 0x3987 JUMP JUMPDEST JUMPDEST PUSH1 0x0 PUSH2 0x4281 DUP6 DUP3 DUP7 ADD PUSH2 0x3AF5 JUMP JUMPDEST SWAP3 POP POP PUSH1 0x20 DUP4 ADD CALLDATALOAD PUSH8 0xFFFFFFFFFFFFFFFF DUP2 GT ISZERO PUSH2 0x42A2 JUMPI PUSH2 0x42A1 PUSH2 0x398C JUMP JUMPDEST JUMPDEST PUSH2 0x42AE DUP6 DUP3 DUP7 ADD PUSH2 0x422E JUMP JUMPDEST SWAP2 POP POP SWAP3 POP SWAP3 SWAP1 POP JUMP JUMPDEST PUSH1 0x0 DUP1 PUSH1 0x40 DUP4 DUP6 SUB SLT ISZERO PUSH2 0x42CF JUMPI PUSH2 0x42CE PUSH2 0x3987 JUMP JUMPDEST JUMPDEST PUSH1 0x0 PUSH2 0x42DD DUP6 DUP3 DUP7 ADD PUSH2 0x3AC9 JUMP JUMPDEST SWAP3 POP POP PUSH1 0x20 DUP4 ADD CALLDATALOAD PUSH8 0xFFFFFFFFFFFFFFFF DUP2 GT ISZERO PUSH2 0x42FE JUMPI PUSH2 0x42FD PUSH2 0x398C JUMP JUMPDEST JUMPDEST PUSH2 0x430A DUP6 DUP3 DUP7 ADD PUSH2 0x422E JUMP JUMPDEST SWAP2 POP POP SWAP3 POP SWAP3 SWAP1 POP JUMP JUMPDEST PUSH1 0x0 DUP2 SWAP1 POP SWAP2 SWAP1 POP JUMP JUMPDEST PUSH2 0x4327 DUP2 PUSH2 0x4314 JUMP JUMPDEST DUP2 EQ PUSH2 0x4332 JUMPI PUSH1 0x0 DUP1 REVERT JUMPDEST POP JUMP JUMPDEST PUSH1 0x0 DUP2 CALLDATALOAD SWAP1 POP PUSH2 0x4344 DUP2 PUSH2 0x431E JUMP JUMPDEST SWAP3 SWAP2 POP POP JUMP JUMPDEST PUSH1 0x0 PUSH1 0x20 DUP3 DUP5 SUB SLT ISZERO PUSH2 0x4360 JUMPI PUSH2 0x435F PUSH2 0x3987 JUMP JUMPDEST JUMPDEST PUSH1 0x0 PUSH2 0x436E DUP5 DUP3 DUP6 ADD PUSH2 0x4335 JUMP JUMPDEST SWAP2 POP POP SWAP3 SWAP2 POP POP JUMP JUMPDEST PUSH1 0x0 DUP2 MLOAD SWAP1 POP SWAP2 SWAP1 POP JUMP JUMPDEST PUSH1 0x0 JUMPDEST DUP4 DUP2 LT ISZERO PUSH2 0x43A0 JUMPI DUP1 DUP3 ADD MLOAD DUP2 DUP5 ADD MSTORE PUSH1 0x20 DUP2 ADD SWAP1 POP PUSH2 0x4385 JUMP JUMPDEST PUSH1 0x0 DUP5 DUP5 ADD MSTORE POP POP POP POP JUMP JUMPDEST PUSH1 0x0 PUSH2 0x43B7 DUP3 PUSH2 0x4377 JUMP JUMPDEST PUSH2 0x43C1 DUP2 DUP6 PUSH2 0x38AF JUMP JUMPDEST SWAP4 POP PUSH2 0x43D1 DUP2 DUP6 PUSH1 0x20 DUP7 ADD PUSH2 0x4382 JUMP JUMPDEST PUSH2 0x43DA DUP2 PUSH2 0x391B JUMP JUMPDEST DUP5 ADD SWAP2 POP POP SWAP3 SWAP2 POP POP JUMP JUMPDEST PUSH1 0x0 PUSH1 0x20 DUP3 ADD SWAP1 POP DUP2 DUP2 SUB PUSH1 0x0 DUP4 ADD MSTORE PUSH2 0x43FF DUP2 DUP5 PUSH2 0x43AC JUMP JUMPDEST SWAP1 POP SWAP3 SWAP2 POP POP JUMP JUMPDEST PUSH1 0x0 PUSH1 0x20 DUP3 DUP5 SUB SLT ISZERO PUSH2 0x441D JUMPI PUSH2 0x441C PUSH2 0x3987 JUMP JUMPDEST JUMPDEST PUSH1 0x0 PUSH2 0x442B DUP5 DUP3 DUP6 ADD PUSH2 0x3AC9 JUMP JUMPDEST SWAP2 POP POP SWAP3 SWAP2 POP POP JUMP JUMPDEST PUSH1 0x0 DUP1 PUSH1 0x40 DUP4 DUP6 SUB SLT ISZERO PUSH2 0x444B JUMPI PUSH2 0x444A PUSH2 0x3987 JUMP JUMPDEST JUMPDEST PUSH1 0x0 PUSH2 0x4459 DUP6 DUP3 DUP7 ADD PUSH2 0x3AC9 JUMP JUMPDEST SWAP3 POP POP PUSH1 0x20 PUSH2 0x446A DUP6 DUP3 DUP7 ADD PUSH2 0x3AC9 JUMP JUMPDEST SWAP2 POP POP SWAP3 POP SWAP3 SWAP1 POP JUMP JUMPDEST PUSH1 0x0 DUP1 REVERT JUMPDEST PUSH1 0x0 DUP1 DUP4 PUSH1 0x1F DUP5 ADD SLT PUSH2 0x448F JUMPI PUSH2 0x448E PUSH2 0x3B0A JUMP JUMPDEST JUMPDEST DUP3 CALLDATALOAD SWAP1 POP PUSH8 0xFFFFFFFFFFFFFFFF DUP2 GT ISZERO PUSH2 0x44AC JUMPI PUSH2 0x44AB PUSH2 0x4474 JUMP JUMPDEST JUMPDEST PUSH1 0x20 DUP4 ADD SWAP2 POP DUP4 PUSH1 0x20 DUP3 MUL DUP4 ADD GT ISZERO PUSH2 0x44C8 JUMPI PUSH2 0x44C7 PUSH2 0x3CCB JUMP JUMPDEST JUMPDEST SWAP3 POP SWAP3 SWAP1 POP JUMP JUMPDEST PUSH1 0x0 DUP1 PUSH1 0x20 DUP4 DUP6 SUB SLT ISZERO PUSH2 0x44E6 JUMPI PUSH2 0x44E5 PUSH2 0x3987 JUMP JUMPDEST JUMPDEST PUSH1 0x0 DUP4 ADD CALLDATALOAD PUSH8 0xFFFFFFFFFFFFFFFF DUP2 GT ISZERO PUSH2 0x4504 JUMPI PUSH2 0x4503 PUSH2 0x398C JUMP JUMPDEST JUMPDEST PUSH2 0x4510 DUP6 DUP3 DUP7 ADD PUSH2 0x4479 JUMP JUMPDEST SWAP3 POP SWAP3 POP POP SWAP3 POP SWAP3 SWAP1 POP JUMP JUMPDEST PUSH1 0x0 DUP2 MLOAD SWAP1 POP SWAP2 SWAP1 POP JUMP JUMPDEST PUSH1 0x0 DUP3 DUP3 MSTORE PUSH1 0x20 DUP3 ADD SWAP1 POP SWAP3 SWAP2 POP POP JUMP JUMPDEST PUSH1 0x0 DUP2 SWAP1 POP PUSH1 0x20 DUP3 ADD SWAP1 POP SWAP2 SWAP1 POP JUMP JUMPDEST PUSH1 0x0 DUP3 DUP3 MSTORE PUSH1 0x20 DUP3 ADD SWAP1 POP SWAP3 SWAP2 POP POP JUMP JUMPDEST PUSH1 0x0 PUSH2 0x4564 DUP3 PUSH2 0x4377 JUMP JUMPDEST PUSH2 0x456E DUP2 DUP6 PUSH2 0x4548 JUMP JUMPDEST SWAP4 POP PUSH2 0x457E DUP2 DUP6 PUSH1 0x20 DUP7 ADD PUSH2 0x4382 JUMP JUMPDEST PUSH2 0x4587 DUP2 PUSH2 0x391B JUMP JUMPDEST DUP5 ADD SWAP2 POP POP SWAP3 SWAP2 POP POP JUMP JUMPDEST PUSH1 0x0 PUSH2 0x459E DUP4 DUP4 PUSH2 0x4559 JUMP JUMPDEST SWAP1 POP SWAP3 SWAP2 POP POP JUMP JUMPDEST PUSH1 0x0 PUSH1 0x20 DUP3 ADD SWAP1 POP SWAP2 SWAP1 POP JUMP JUMPDEST PUSH1 0x0 PUSH2 0x45BE DUP3 PUSH2 0x451C JUMP JUMPDEST PUSH2 0x45C8 DUP2 DUP6 PUSH2 0x4527 JUMP JUMPDEST SWAP4 POP DUP4 PUSH1 0x20 DUP3 MUL DUP6 ADD PUSH2 0x45DA DUP6 PUSH2 0x4538 JUMP JUMPDEST DUP1 PUSH1 0x0 JUMPDEST DUP6 DUP2 LT ISZERO PUSH2 0x4616 JUMPI DUP5 DUP5 SUB DUP10 MSTORE DUP2 MLOAD PUSH2 0x45F7 DUP6 DUP3 PUSH2 0x4592 JUMP JUMPDEST SWAP5 POP PUSH2 0x4602 DUP4 PUSH2 0x45A6 JUMP JUMPDEST SWAP3 POP PUSH1 0x20 DUP11 ADD SWAP10 POP POP PUSH1 0x1 DUP2 ADD SWAP1 POP PUSH2 0x45DE JUMP JUMPDEST POP DUP3 SWAP8 POP DUP8 SWAP6 POP POP POP POP POP POP SWAP3 SWAP2 POP POP JUMP JUMPDEST PUSH1 0x0 PUSH1 0x20 DUP3 ADD SWAP1 POP DUP2 DUP2 SUB PUSH1 0x0 DUP4 ADD MSTORE PUSH2 0x4642 DUP2 DUP5 PUSH2 0x45B3 JUMP JUMPDEST SWAP1 POP SWAP3 SWAP2 POP POP JUMP JUMPDEST PUSH1 0x0 DUP1 PUSH1 0x0 DUP1 PUSH1 0x0 PUSH1 0xA0 DUP7 DUP9 SUB SLT ISZERO PUSH2 0x4666 JUMPI PUSH2 0x4665 PUSH2 0x3987 JUMP JUMPDEST JUMPDEST PUSH1 0x0 PUSH2 0x4674 DUP9 DUP3 DUP10 ADD PUSH2 0x3AC9 JUMP JUMPDEST SWAP6 POP POP PUSH1 0x20 PUSH2 0x4685 DUP9 DUP3 DUP10 ADD PUSH2 0x3AC9 JUMP JUMPDEST SWAP5 POP POP PUSH1 0x40 PUSH2 0x4696 DUP9 DUP3 DUP10 ADD PUSH2 0x3AF5 JUMP JUMPDEST SWAP4 POP POP PUSH1 0x60 PUSH2 0x46A7 DUP9 DUP3 DUP10 ADD PUSH2 0x3E6D JUMP JUMPDEST SWAP3 POP POP PUSH1 0x80 DUP7 ADD CALLDATALOAD PUSH8 0xFFFFFFFFFFFFFFFF DUP2 GT ISZERO PUSH2 0x46C8 JUMPI PUSH2 0x46C7 PUSH2 0x398C JUMP JUMPDEST JUMPDEST PUSH2 0x46D4 DUP9 DUP3 DUP10 ADD PUSH2 0x3C02 JUMP JUMPDEST SWAP2 POP POP SWAP3 SWAP6 POP SWAP3 SWAP6 SWAP1 SWAP4 POP JUMP JUMPDEST PUSH1 0x0 DUP1 PUSH1 0x0 DUP1 PUSH1 0x80 DUP6 DUP8 SUB SLT ISZERO PUSH2 0x46FB JUMPI PUSH2 0x46FA PUSH2 0x3987 JUMP JUMPDEST JUMPDEST PUSH1 0x0 PUSH2 0x4709 DUP8 DUP3 DUP9 ADD PUSH2 0x3AC9 JUMP JUMPDEST SWAP5 POP POP PUSH1 0x20 PUSH2 0x471A DUP8 DUP3 DUP9 ADD PUSH2 0x3AC9 JUMP JUMPDEST SWAP4 POP POP PUSH1 0x40 PUSH2 0x472B DUP8 DUP3 DUP9 ADD PUSH2 0x3AF5 JUMP JUMPDEST SWAP3 POP POP PUSH1 0x60 DUP6 ADD CALLDATALOAD PUSH8 0xFFFFFFFFFFFFFFFF DUP2 GT ISZERO PUSH2 0x474C JUMPI PUSH2 0x474B PUSH2 0x398C JUMP JUMPDEST JUMPDEST PUSH2 0x4758 DUP8 DUP3 DUP9 ADD PUSH2 0x3C02 JUMP JUMPDEST SWAP2 POP POP SWAP3 SWAP6 SWAP2 SWAP5 POP SWAP3 POP JUMP JUMPDEST PUSH1 0x0 DUP1 PUSH1 0x40 DUP4 DUP6 SUB SLT ISZERO PUSH2 0x477B JUMPI PUSH2 0x477A PUSH2 0x3987 JUMP JUMPDEST JUMPDEST PUSH1 0x0 PUSH2 0x4789 DUP6 DUP3 DUP7 ADD PUSH2 0x4335 JUMP JUMPDEST SWAP3 POP POP PUSH1 0x20 DUP4 ADD CALLDATALOAD PUSH8 0xFFFFFFFFFFFFFFFF DUP2 GT ISZERO PUSH2 0x47AA JUMPI PUSH2 0x47A9 PUSH2 0x398C JUMP JUMPDEST JUMPDEST PUSH2 0x47B6 DUP6 DUP3 DUP7 ADD PUSH2 0x3C02 JUMP JUMPDEST SWAP2 POP POP SWAP3 POP SWAP3 SWAP1 POP JUMP JUMPDEST PUSH2 0x47C9 DUP2 PUSH2 0x3AA0 JUMP JUMPDEST DUP3 MSTORE POP POP JUMP JUMPDEST PUSH1 0x0 PUSH1 0x20 DUP3 ADD SWAP1 POP PUSH2 0x47E4 PUSH1 0x0 DUP4 ADD DUP5 PUSH2 0x47C0 JUMP JUMPDEST SWAP3 SWAP2 POP POP JUMP JUMPDEST PUSH1 0x0 PUSH8 0xFFFFFFFFFFFFFFFF DUP3 GT ISZERO PUSH2 0x4805 JUMPI PUSH2 0x4804 PUSH2 0x3B14 JUMP JUMPDEST JUMPDEST PUSH1 0x20 DUP3 MUL SWAP1 POP PUSH1 0x20 DUP2 ADD SWAP1 POP SWAP2 SWAP1 POP JUMP JUMPDEST PUSH1 0x0 PUSH2 0x4829 PUSH2 0x4824 DUP5 PUSH2 0x47EA JUMP JUMPDEST PUSH2 0x3B74 JUMP JUMPDEST SWAP1 POP DUP1 DUP4 DUP3 MSTORE PUSH1 0x20 DUP3 ADD SWAP1 POP PUSH1 0x20 DUP5 MUL DUP4 ADD DUP6 DUP2 GT ISZERO PUSH2 0x484C JUMPI PUSH2 0x484B PUSH2 0x3CCB JUMP JUMPDEST JUMPDEST DUP4 JUMPDEST DUP2 DUP2 LT ISZERO PUSH2 0x4875 JUMPI DUP1 PUSH2 0x4861 DUP9 DUP3 PUSH2 0x4335 JUMP JUMPDEST DUP5 MSTORE PUSH1 0x20 DUP5 ADD SWAP4 POP POP PUSH1 0x20 DUP2 ADD SWAP1 POP PUSH2 0x484E JUMP JUMPDEST POP POP POP SWAP4 SWAP3 POP POP POP JUMP JUMPDEST PUSH1 0x0 DUP3 PUSH1 0x1F DUP4 ADD SLT PUSH2 0x4894 JUMPI PUSH2 0x4893 PUSH2 0x3B0A JUMP JUMPDEST JUMPDEST DUP2 CALLDATALOAD PUSH2 0x48A4 DUP5 DUP3 PUSH1 0x20 DUP7 ADD PUSH2 0x4816 JUMP JUMPDEST SWAP2 POP POP SWAP3 SWAP2 POP POP JUMP JUMPDEST PUSH1 0x0 DUP1 PUSH1 0x40 DUP4 DUP6 SUB SLT ISZERO PUSH2 0x48C4 JUMPI PUSH2 0x48C3 PUSH2 0x3987 JUMP JUMPDEST JUMPDEST PUSH1 0x0 DUP4 ADD CALLDATALOAD PUSH8 0xFFFFFFFFFFFFFFFF DUP2 GT ISZERO PUSH2 0x48E2 JUMPI PUSH2 0x48E1 PUSH2 0x398C JUMP JUMPDEST JUMPDEST PUSH2 0x48EE DUP6 DUP3 DUP7 ADD PUSH2 0x487F JUMP JUMPDEST SWAP3 POP POP PUSH1 0x20 DUP4 ADD CALLDATALOAD PUSH8 0xFFFFFFFFFFFFFFFF DUP2 GT ISZERO PUSH2 0x490F JUMPI PUSH2 0x490E PUSH2 0x398C JUMP JUMPDEST JUMPDEST PUSH2 0x491B DUP6 DUP3 DUP7 ADD PUSH2 0x3FCC JUMP JUMPDEST SWAP2 POP POP SWAP3 POP SWAP3 SWAP1 POP JUMP JUMPDEST PUSH1 0x0 PUSH1 0x40 DUP3 ADD SWAP1 POP PUSH2 0x493A PUSH1 0x0 DUP4 ADD DUP6 PUSH2 0x47C0 JUMP JUMPDEST PUSH2 0x4947 PUSH1 0x20 DUP4 ADD DUP5 PUSH2 0x3A56 JUMP JUMPDEST SWAP4 SWAP3 POP POP POP JUMP JUMPDEST PUSH1 0x0 DUP2 MLOAD SWAP1 POP SWAP2 SWAP1 POP JUMP JUMPDEST PUSH1 0x0 DUP3 DUP3 MSTORE PUSH1 0x20 DUP3 ADD SWAP1 POP SWAP3 SWAP2 POP POP JUMP JUMPDEST PUSH1 0x0 DUP2 SWAP1 POP PUSH1 0x20 DUP3 ADD SWAP1 POP SWAP2 SWAP1 POP JUMP JUMPDEST PUSH2 0x4983 DUP2 PUSH2 0x3AA0 JUMP JUMPDEST DUP3 MSTORE POP POP JUMP JUMPDEST PUSH1 0x0 PUSH2 0x4995 DUP4 DUP4 PUSH2 0x497A JUMP JUMPDEST PUSH1 0x20 DUP4 ADD SWAP1 POP SWAP3 SWAP2 POP POP JUMP JUMPDEST PUSH1 0x0 PUSH1 0x20 DUP3 ADD SWAP1 POP SWAP2 SWAP1 POP JUMP JUMPDEST PUSH1 0x0 PUSH2 0x49B9 DUP3 PUSH2 0x494E JUMP JUMPDEST PUSH2 0x49C3 DUP2 DUP6 PUSH2 0x4959 JUMP JUMPDEST SWAP4 POP PUSH2 0x49CE DUP4 PUSH2 0x496A JUMP JUMPDEST DUP1 PUSH1 0x0 JUMPDEST DUP4 DUP2 LT ISZERO PUSH2 0x49FF JUMPI DUP2 MLOAD PUSH2 0x49E6 DUP9 DUP3 PUSH2 0x4989 JUMP JUMPDEST SWAP8 POP PUSH2 0x49F1 DUP4 PUSH2 0x49A1 JUMP JUMPDEST SWAP3 POP POP PUSH1 0x1 DUP2 ADD SWAP1 POP PUSH2 0x49D2 JUMP JUMPDEST POP DUP6 SWAP4 POP POP POP POP SWAP3 SWAP2 POP POP JUMP JUMPDEST PUSH1 0x0 PUSH1 0x20 DUP3 ADD SWAP1 POP DUP2 DUP2 SUB PUSH1 0x0 DUP4 ADD MSTORE PUSH2 0x4A26 DUP2 DUP5 PUSH2 0x49AE JUMP JUMPDEST SWAP1 POP SWAP3 SWAP2 POP POP JUMP JUMPDEST PUSH1 0x0 PUSH1 0x20 DUP3 DUP5 SUB SLT ISZERO PUSH2 0x4A44 JUMPI PUSH2 0x4A43 PUSH2 0x3987 JUMP JUMPDEST JUMPDEST PUSH1 0x0 DUP3 ADD CALLDATALOAD PUSH8 0xFFFFFFFFFFFFFFFF DUP2 GT ISZERO PUSH2 0x4A62 JUMPI PUSH2 0x4A61 PUSH2 0x398C JUMP JUMPDEST JUMPDEST PUSH2 0x4A6E DUP5 DUP3 DUP6 ADD PUSH2 0x487F JUMP JUMPDEST SWAP2 POP POP SWAP3 SWAP2 POP POP JUMP JUMPDEST PUSH1 0x0 DUP2 MLOAD SWAP1 POP SWAP2 SWAP1 POP JUMP JUMPDEST PUSH1 0x0 DUP3 DUP3 MSTORE PUSH1 0x20 DUP3 ADD SWAP1 POP SWAP3 SWAP2 POP POP JUMP JUMPDEST PUSH1 0x0 DUP2 SWAP1 POP PUSH1 0x20 DUP3 ADD SWAP1 POP SWAP2 SWAP1 POP JUMP JUMPDEST PUSH1 0x0 DUP2 MLOAD SWAP1 POP SWAP2 SWAP1 POP JUMP JUMPDEST PUSH1 0x0 DUP3 DUP3 MSTORE PUSH1 0x20 DUP3 ADD SWAP1 POP SWAP3 SWAP2 POP POP JUMP JUMPDEST PUSH1 0x0 PUSH2 0x4ACA DUP3 PUSH2 0x4AA3 JUMP JUMPDEST PUSH2 0x4AD4 DUP2 DUP6 PUSH2 0x4AAE JUMP JUMPDEST SWAP4 POP PUSH2 0x4AE4 DUP2 DUP6 PUSH1 0x20 DUP7 ADD PUSH2 0x4382 JUMP JUMPDEST PUSH2 0x4AED DUP2 PUSH2 0x391B JUMP JUMPDEST DUP5 ADD SWAP2 POP POP SWAP3 SWAP2 POP POP JUMP JUMPDEST PUSH2 0x4B01 DUP2 PUSH2 0x3A16 JUMP JUMPDEST DUP3 MSTORE POP POP JUMP JUMPDEST PUSH1 0x0 PUSH1 0x80 DUP4 ADD PUSH1 0x0 DUP4 ADD MLOAD PUSH2 0x4B1F PUSH1 0x0 DUP7 ADD DUP3 PUSH2 0x497A JUMP JUMPDEST POP PUSH1 0x20 DUP4 ADD MLOAD DUP5 DUP3 SUB PUSH1 0x20 DUP7 ADD MSTORE PUSH2 0x4B37 DUP3 DUP3 PUSH2 0x4ABF JUMP JUMPDEST SWAP2 POP POP PUSH1 0x40 DUP4 ADD MLOAD DUP5 DUP3 SUB PUSH1 0x40 DUP7 ADD MSTORE PUSH2 0x4B51 DUP3 DUP3 PUSH2 0x4ABF JUMP JUMPDEST SWAP2 POP POP PUSH1 0x60 DUP4 ADD MLOAD PUSH2 0x4B66 PUSH1 0x60 DUP7 ADD DUP3 PUSH2 0x4AF8 JUMP JUMPDEST POP DUP1 SWAP2 POP POP SWAP3 SWAP2 POP POP JUMP JUMPDEST PUSH1 0x0 PUSH2 0x4B7D DUP4 DUP4 PUSH2 0x4B07 JUMP JUMPDEST SWAP1 POP SWAP3 SWAP2 POP POP JUMP JUMPDEST PUSH1 0x0 PUSH1 0x20 DUP3 ADD SWAP1 POP SWAP2 SWAP1 POP JUMP JUMPDEST PUSH1 0x0 PUSH2 0x4B9D DUP3 PUSH2 0x4A77 JUMP JUMPDEST PUSH2 0x4BA7 DUP2 DUP6 PUSH2 0x4A82 JUMP JUMPDEST SWAP4 POP DUP4 PUSH1 0x20 DUP3 MUL DUP6 ADD PUSH2 0x4BB9 DUP6 PUSH2 0x4A93 JUMP JUMPDEST DUP1 PUSH1 0x0 JUMPDEST DUP6 DUP2 LT ISZERO PUSH2 0x4BF5 JUMPI DUP5 DUP5 SUB DUP10 MSTORE DUP2 MLOAD PUSH2 0x4BD6 DUP6 DUP3 PUSH2 0x4B71 JUMP JUMPDEST SWAP5 POP PUSH2 0x4BE1 DUP4 PUSH2 0x4B85 JUMP JUMPDEST SWAP3 POP PUSH1 0x20 DUP11 ADD SWAP10 POP POP PUSH1 0x1 DUP2 ADD SWAP1 POP PUSH2 0x4BBD JUMP JUMPDEST POP DUP3 SWAP8 POP DUP8 SWAP6 POP POP POP POP POP POP SWAP3 SWAP2 POP POP JUMP JUMPDEST PUSH1 0x0 PUSH1 0x20 DUP3 ADD SWAP1 POP DUP2 DUP2 SUB PUSH1 0x0 DUP4 ADD MSTORE PUSH2 0x4C21 DUP2 DUP5 PUSH2 0x4B92 JUMP JUMPDEST SWAP1 POP SWAP3 SWAP2 POP POP JUMP JUMPDEST PUSH2 0x4C32 DUP2 PUSH2 0x3991 JUMP JUMPDEST DUP3 MSTORE POP POP JUMP JUMPDEST PUSH1 0x0 PUSH1 0x20 DUP3 ADD SWAP1 POP PUSH2 0x4C4D PUSH1 0x0 DUP4 ADD DUP5 PUSH2 0x4C29 JUMP JUMPDEST SWAP3 SWAP2 POP POP JUMP JUMPDEST PUSH1 0x0 DUP2 SWAP1 POP SWAP3 SWAP2 POP POP JUMP JUMPDEST PUSH1 0x0 PUSH2 0x4C6A DUP4 DUP6 PUSH2 0x4C53 JUMP JUMPDEST SWAP4 POP PUSH2 0x4C77 DUP4 DUP6 DUP5 PUSH2 0x390C JUMP JUMPDEST DUP3 DUP5 ADD SWAP1 POP SWAP4 SWAP3 POP POP POP JUMP JUMPDEST PUSH1 0x0 DUP2 PUSH1 0x60 SHL SWAP1 POP SWAP2 SWAP1 POP JUMP JUMPDEST PUSH1 0x0 PUSH2 0x4C9B DUP3 PUSH2 0x4C83 JUMP JUMPDEST SWAP1 POP SWAP2 SWAP1 POP JUMP JUMPDEST PUSH1 0x0 PUSH2 0x4CAD DUP3 PUSH2 0x4C90 JUMP JUMPDEST SWAP1 POP SWAP2 SWAP1 POP JUMP JUMPDEST PUSH2 0x4CC5 PUSH2 0x4CC0 DUP3 PUSH2 0x3AA0 JUMP JUMPDEST PUSH2 0x4CA2 JUMP JUMPDEST DUP3 MSTORE POP POP JUMP JUMPDEST PUSH1 0x0 DUP2 SWAP1 POP SWAP2 SWAP1 POP JUMP JUMPDEST PUSH2 0x4CE6 PUSH2 0x4CE1 DUP3 PUSH2 0x3A4C JUMP JUMPDEST PUSH2 0x4CCB JUMP JUMPDEST DUP3 MSTORE POP POP JUMP JUMPDEST PUSH1 0x0 PUSH2 0x4CF9 DUP3 DUP7 DUP9 PUSH2 0x4C5E JUMP JUMPDEST SWAP2 POP PUSH2 0x4D05 DUP3 DUP6 PUSH2 0x4CB4 JUMP JUMPDEST PUSH1 0x14 DUP3 ADD SWAP2 POP PUSH2 0x4D15 DUP3 DUP5 PUSH2 0x4CD5 JUMP JUMPDEST PUSH1 0x20 DUP3 ADD SWAP2 POP DUP2 SWAP1 POP SWAP6 SWAP5 POP POP POP POP POP JUMP JUMPDEST PUSH1 0x0 PUSH2 0x4D32 DUP3 PUSH2 0x4377 JUMP JUMPDEST PUSH2 0x4D3C DUP2 DUP6 PUSH2 0x4C53 JUMP JUMPDEST SWAP4 POP PUSH2 0x4D4C DUP2 DUP6 PUSH1 0x20 DUP7 ADD PUSH2 0x4382 JUMP JUMPDEST DUP1 DUP5 ADD SWAP2 POP POP SWAP3 SWAP2 POP POP JUMP JUMPDEST PUSH1 0x0 PUSH2 0x4D64 DUP3 DUP5 PUSH2 0x4D27 JUMP JUMPDEST SWAP2 POP DUP2 SWAP1 POP SWAP3 SWAP2 POP POP JUMP JUMPDEST PUSH1 0x0 DUP3 DUP3 MSTORE PUSH1 0x20 DUP3 ADD SWAP1 POP SWAP3 SWAP2 POP POP JUMP JUMPDEST PUSH32 0x50726F66696C6520616C72656164792065786973747300000000000000000000 PUSH1 0x0 DUP3 ADD MSTORE POP JUMP JUMPDEST PUSH1 0x0 PUSH2 0x4DB6 PUSH1 0x16 DUP4 PUSH2 0x4D6F JUMP JUMPDEST SWAP2 POP PUSH2 0x4DC1 DUP3 PUSH2 0x4D80 JUMP JUMPDEST PUSH1 0x20 DUP3 ADD SWAP1 POP SWAP2 SWAP1 POP JUMP JUMPDEST PUSH1 0x0 PUSH1 0x20 DUP3 ADD SWAP1 POP DUP2 DUP2 SUB PUSH1 0x0 DUP4 ADD MSTORE PUSH2 0x4DE5 DUP2 PUSH2 0x4DA9 JUMP JUMPDEST SWAP1 POP SWAP2 SWAP1 POP JUMP JUMPDEST PUSH32 0x4E487B7100000000000000000000000000000000000000000000000000000000 PUSH1 0x0 MSTORE PUSH1 0x11 PUSH1 0x4 MSTORE PUSH1 0x24 PUSH1 0x0 REVERT JUMPDEST PUSH1 0x0 PUSH2 0x4E26 DUP3 PUSH2 0x3A4C JUMP JUMPDEST SWAP2 POP PUSH2 0x4E31 DUP4 PUSH2 0x3A4C JUMP JUMPDEST SWAP3 POP DUP3 DUP3 ADD SWAP1 POP DUP1 DUP3 GT ISZERO PUSH2 0x4E49 JUMPI PUSH2 0x4E48 PUSH2 0x4DEC JUMP JUMPDEST JUMPDEST SWAP3 SWAP2 POP POP JUMP JUMPDEST PUSH1 0x0 PUSH1 0x60 DUP3 ADD SWAP1 POP PUSH2 0x4E64 PUSH1 0x0 DUP4 ADD DUP7 PUSH2 0x47C0 JUMP JUMPDEST PUSH2 0x4E71 PUSH1 0x20 DUP4 ADD DUP6 PUSH2 0x3A56 JUMP JUMPDEST DUP2 DUP2 SUB PUSH1 0x40 DUP4 ADD MSTORE PUSH2 0x4E83 DUP2 DUP5 PUSH2 0x43AC JUMP JUMPDEST SWAP1 POP SWAP5 SWAP4 POP POP POP POP JUMP JUMPDEST PUSH32 0x4E487B7100000000000000000000000000000000000000000000000000000000 PUSH1 0x0 MSTORE PUSH1 0x32 PUSH1 0x4 MSTORE PUSH1 0x24 PUSH1 0x0 REVERT JUMPDEST PUSH1 0x0 PUSH1 0x60 DUP3 ADD SWAP1 POP PUSH2 0x4ED1 PUSH1 0x0 DUP4 ADD DUP7 PUSH2 0x47C0 JUMP JUMPDEST PUSH2 0x4EDE PUSH1 0x20 DUP4 ADD DUP6 PUSH2 0x47C0 JUMP JUMPDEST PUSH2 0x4EEB PUSH1 0x40 DUP4 ADD DUP5 PUSH2 0x47C0 JUMP JUMPDEST SWAP5 SWAP4 POP POP POP POP JUMP JUMPDEST PUSH1 0x0 DUP2 SWAP1 POP SWAP2 SWAP1 POP JUMP JUMPDEST PUSH1 0x0 DUP2 SWAP1 POP SWAP2 SWAP1 POP JUMP JUMPDEST PUSH1 0x0 PUSH2 0x4F22 PUSH2 0x4F1D PUSH2 0x4F18 DUP5 PUSH2 0x4EF3 JUMP JUMPDEST PUSH2 0x4EFD JUMP JUMPDEST PUSH2 0x4184 JUMP JUMPDEST SWAP1 POP SWAP2 SWAP1 POP JUMP JUMPDEST PUSH2 0x4F32 DUP2 PUSH2 0x4F07 JUMP JUMPDEST DUP3 MSTORE POP POP JUMP JUMPDEST PUSH1 0x0 PUSH1 0x60 DUP3 ADD SWAP1 POP PUSH2 0x4F4D PUSH1 0x0 DUP4 ADD DUP7 PUSH2 0x47C0 JUMP JUMPDEST PUSH2 0x4F5A PUSH1 0x20 DUP4 ADD DUP6 PUSH2 0x4F29 JUMP JUMPDEST DUP2 DUP2 SUB PUSH1 0x40 DUP4 ADD MSTORE PUSH2 0x4F6C DUP2 DUP5 PUSH2 0x43AC JUMP JUMPDEST SWAP1 POP SWAP5 SWAP4 POP POP POP POP JUMP JUMPDEST PUSH32 0x4F6E6C792070726F66696C65206F776E65722063616E20616E73776572000000 PUSH1 0x0 DUP3 ADD MSTORE POP JUMP JUMPDEST PUSH1 0x0 PUSH2 0x4FAC PUSH1 0x1D DUP4 PUSH2 0x4D6F JUMP JUMPDEST SWAP2 POP PUSH2 0x4FB7 DUP3 PUSH2 0x4F76 JUMP JUMPDEST PUSH1 0x20 DUP3 ADD SWAP1 POP SWAP2 SWAP1 POP JUMP JUMPDEST PUSH1 0x0 PUSH1 0x20 DUP3 ADD SWAP1 POP DUP2 DUP2 SUB PUSH1 0x0 DUP4 ADD MSTORE PUSH2 0x4FDB DUP2 PUSH2 0x4F9F JUMP JUMPDEST SWAP1 POP SWAP2 SWAP1 POP JUMP JUMPDEST PUSH32 0x496E76616C6964207175657374696F6E20494400000000000000000000000000 PUSH1 0x0 DUP3 ADD MSTORE POP JUMP JUMPDEST PUSH1 0x0 PUSH2 0x5018 PUSH1 0x13 DUP4 PUSH2 0x4D6F JUMP JUMPDEST SWAP2 POP PUSH2 0x5023 DUP3 PUSH2 0x4FE2 JUMP JUMPDEST PUSH1 0x20 DUP3 ADD SWAP1 POP SWAP2 SWAP1 POP JUMP JUMPDEST PUSH1 0x0 PUSH1 0x20 DUP3 ADD SWAP1 POP DUP2 DUP2 SUB PUSH1 0x0 DUP4 ADD MSTORE PUSH2 0x5047 DUP2 PUSH2 0x500B JUMP JUMPDEST SWAP1 POP SWAP2 SWAP1 POP JUMP JUMPDEST PUSH32 0x4E487B7100000000000000000000000000000000000000000000000000000000 PUSH1 0x0 MSTORE PUSH1 0x22 PUSH1 0x4 MSTORE PUSH1 0x24 PUSH1 0x0 REVERT JUMPDEST PUSH1 0x0 PUSH1 0x2 DUP3 DIV SWAP1 POP PUSH1 0x1 DUP3 AND DUP1 PUSH2 0x5095 JUMPI PUSH1 0x7F DUP3 AND SWAP2 POP JUMPDEST PUSH1 0x20 DUP3 LT DUP2 SUB PUSH2 0x50A8 JUMPI PUSH2 0x50A7 PUSH2 0x504E JUMP JUMPDEST JUMPDEST POP SWAP2 SWAP1 POP JUMP JUMPDEST PUSH1 0x0 DUP2 SWAP1 POP DUP2 PUSH1 0x0 MSTORE PUSH1 0x20 PUSH1 0x0 KECCAK256 SWAP1 POP SWAP2 SWAP1 POP JUMP JUMPDEST PUSH1 0x0 PUSH1 0x20 PUSH1 0x1F DUP4 ADD DIV SWAP1 POP SWAP2 SWAP1 POP JUMP JUMPDEST PUSH1 0x0 DUP3 DUP3 SHL SWAP1 POP SWAP3 SWAP2 POP POP JUMP JUMPDEST PUSH1 0x0 PUSH1 0x8 DUP4 MUL PUSH2 0x5110 PUSH32 0xFFFFFFFFFFFFFFFFFFFFFFFFFFFFFFFFFFFFFFFFFFFFFFFFFFFFFFFFFFFFFFFF DUP3 PUSH2 0x50D3 JUMP JUMPDEST PUSH2 0x511A DUP7 DUP4 PUSH2 0x50D3 JUMP JUMPDEST SWAP6 POP DUP1 NOT DUP5 AND SWAP4 POP DUP1 DUP7 AND DUP5 OR SWAP3 POP POP POP SWAP4 SWAP3 POP POP POP JUMP JUMPDEST PUSH1 0x0 PUSH2 0x514D PUSH2 0x5148 PUSH2 0x5143 DUP5 PUSH2 0x3A4C JUMP JUMPDEST PUSH2 0x4EFD JUMP JUMPDEST PUSH2 0x3A4C JUMP JUMPDEST SWAP1 POP SWAP2 SWAP1 POP JUMP JUMPDEST PUSH1 0x0 DUP2 SWAP1 POP SWAP2 SWAP1 POP JUMP JUMPDEST PUSH2 0x5167 DUP4 PUSH2 0x5132 JUMP JUMPDEST PUSH2 0x517B PUSH2 0x5173 DUP3 PUSH2 0x5154 JUMP JUMPDEST DUP5 DUP5 SLOAD PUSH2 0x50E0 JUMP JUMPDEST DUP3 SSTORE POP POP POP POP JUMP JUMPDEST PUSH1 0x0 SWAP1 JUMP JUMPDEST PUSH2 0x5190 PUSH2 0x5183 JUMP JUMPDEST PUSH2 0x519B DUP2 DUP5 DUP5 PUSH2 0x515E JUMP JUMPDEST POP POP POP JUMP JUMPDEST JUMPDEST DUP2 DUP2 LT ISZERO PUSH2 0x51BF JUMPI PUSH2 0x51B4 PUSH1 0x0 DUP3 PUSH2 0x5188 JUMP JUMPDEST PUSH1 0x1 DUP2 ADD SWAP1 POP PUSH2 0x51A1 JUMP JUMPDEST POP POP JUMP JUMPDEST PUSH1 0x1F DUP3 GT ISZERO PUSH2 0x5204 JUMPI PUSH2 0x51D5 DUP2 PUSH2 0x50AE JUMP JUMPDEST PUSH2 0x51DE DUP5 PUSH2 0x50C3 JUMP JUMPDEST DUP2 ADD PUSH1 0x20 DUP6 LT ISZERO PUSH2 0x51ED JUMPI DUP2 SWAP1 POP JUMPDEST PUSH2 0x5201 PUSH2 0x51F9 DUP6 PUSH2 0x50C3 JUMP JUMPDEST DUP4 ADD DUP3 PUSH2 0x51A0 JUMP JUMPDEST POP POP JUMPDEST POP POP POP JUMP JUMPDEST PUSH1 0x0 DUP3 DUP3 SHR SWAP1 POP SWAP3 SWAP2 POP POP JUMP JUMPDEST PUSH1 0x0 PUSH2 0x5227 PUSH1 0x0 NOT DUP5 PUSH1 0x8 MUL PUSH2 0x5209 JUMP JUMPDEST NOT DUP1 DUP4 AND SWAP2 POP POP SWAP3 SWAP2 POP POP JUMP JUMPDEST PUSH1 0x0 PUSH2 0x5240 DUP4 DUP4 PUSH2 0x5216 JUMP JUMPDEST SWAP2 POP DUP3 PUSH1 0x2 MUL DUP3 OR SWAP1 POP SWAP3 SWAP2 POP POP JUMP JUMPDEST PUSH2 0x5259 DUP3 PUSH2 0x4AA3 JUMP JUMPDEST PUSH8 0xFFFFFFFFFFFFFFFF DUP2 GT ISZERO PUSH2 0x5272 JUMPI PUSH2 0x5271 PUSH2 0x3B14 JUMP JUMPDEST JUMPDEST PUSH2 0x527C DUP3 SLOAD PUSH2 0x507D JUMP JUMPDEST PUSH2 0x5287 DUP3 DUP3 DUP6 PUSH2 0x51C3 JUMP JUMPDEST PUSH1 0x0 PUSH1 0x20 SWAP1 POP PUSH1 0x1F DUP4 GT PUSH1 0x1 DUP2 EQ PUSH2 0x52BA JUMPI PUSH1 0x0 DUP5 ISZERO PUSH2 0x52A8 JUMPI DUP3 DUP8 ADD MLOAD SWAP1 POP JUMPDEST PUSH2 0x52B2 DUP6 DUP3 PUSH2 0x5234 JUMP JUMPDEST DUP7 SSTORE POP PUSH2 0x531A JUMP JUMPDEST PUSH1 0x1F NOT DUP5 AND PUSH2 0x52C8 DUP7 PUSH2 0x50AE JUMP JUMPDEST PUSH1 0x0 JUMPDEST DUP3 DUP2 LT ISZERO PUSH2 0x52F0 JUMPI DUP5 DUP10 ADD MLOAD DUP3 SSTORE PUSH1 0x1 DUP3 ADD SWAP2 POP PUSH1 0x20 DUP6 ADD SWAP5 POP PUSH1 0x20 DUP2 ADD SWAP1 POP PUSH2 0x52CB JUMP JUMPDEST DUP7 DUP4 LT ISZERO PUSH2 0x530D JUMPI DUP5 DUP10 ADD MLOAD PUSH2 0x5309 PUSH1 0x1F DUP10 AND DUP3 PUSH2 0x5216 JUMP JUMPDEST DUP4 SSTORE POP JUMPDEST PUSH1 0x1 PUSH1 0x2 DUP9 MUL ADD DUP9 SSTORE POP POP POP JUMPDEST POP POP POP POP POP POP JUMP JUMPDEST PUSH32 0x596F75206E65656420616E2046515420746F207375626D697420612071756573 PUSH1 0x0 DUP3 ADD MSTORE PUSH32 0x74696F6E00000000000000000000000000000000000000000000000000000000 PUSH1 0x20 DUP3 ADD MSTORE POP JUMP JUMPDEST PUSH1 0x0 PUSH2 0x537E PUSH1 0x24 DUP4 PUSH2 0x4D6F JUMP JUMPDEST SWAP2 POP PUSH2 0x5389 DUP3 PUSH2 0x5322 JUMP JUMPDEST PUSH1 0x40 DUP3 ADD SWAP1 POP SWAP2 SWAP1 POP JUMP JUMPDEST PUSH1 0x0 PUSH1 0x20 DUP3 ADD SWAP1 POP DUP2 DUP2 SUB PUSH1 0x0 DUP4 ADD MSTORE PUSH2 0x53AD DUP2 PUSH2 0x5371 JUMP JUMPDEST SWAP1 POP SWAP2 SWAP1 POP JUMP JUMPDEST PUSH32 0x50726F66696C6520646F6573206E6F7420657869737400000000000000000000 PUSH1 0x0 DUP3 ADD MSTORE POP JUMP JUMPDEST PUSH1 0x0 PUSH2 0x53EA PUSH1 0x16 DUP4 PUSH2 0x4D6F JUMP JUMPDEST SWAP2 POP PUSH2 0x53F5 DUP3 PUSH2 0x53B4 JUMP JUMPDEST PUSH1 0x20 DUP3 ADD SWAP1 POP SWAP2 SWAP1 POP JUMP JUMPDEST PUSH1 0x0 PUSH1 0x20 DUP3 ADD SWAP1 POP DUP2 DUP2 SUB PUSH1 0x0 DUP4 ADD MSTORE PUSH2 0x5419 DUP2 PUSH2 0x53DD JUMP JUMPDEST SWAP1 POP SWAP2 SWAP1 POP JUMP JUMPDEST PUSH32 0x596F75206861766520616C72656164792061736B65642061207175657374696F PUSH1 0x0 DUP3 ADD MSTORE PUSH32 0x6E20666F7220746869732070726F66696C650000000000000000000000000000 PUSH1 0x20 DUP3 ADD MSTORE POP JUMP JUMPDEST PUSH1 0x0 PUSH2 0x547C PUSH1 0x32 DUP4 PUSH2 0x4D6F JUMP JUMPDEST SWAP2 POP PUSH2 0x5487 DUP3 PUSH2 0x5420 JUMP JUMPDEST PUSH1 0x40 DUP3 ADD SWAP1 POP SWAP2 SWAP1 POP JUMP JUMPDEST PUSH1 0x0 PUSH1 0x20 DUP3 ADD SWAP1 POP DUP2 DUP2 SUB PUSH1 0x0 DUP4 ADD MSTORE PUSH2 0x54AB DUP2 PUSH2 0x546F JUMP JUMPDEST SWAP1 POP SWAP2 SWAP1 POP JUMP JUMPDEST PUSH1 0x0 PUSH2 0x54BD DUP3 PUSH2 0x3A4C JUMP JUMPDEST SWAP2 POP PUSH32 0xFFFFFFFFFFFFFFFFFFFFFFFFFFFFFFFFFFFFFFFFFFFFFFFFFFFFFFFFFFFFFFFF DUP3 SUB PUSH2 0x54EF JUMPI PUSH2 0x54EE PUSH2 0x4DEC JUMP JUMPDEST JUMPDEST PUSH1 0x1 DUP3 ADD SWAP1 POP SWAP2 SWAP1 POP JUMP JUMPDEST PUSH32 0x596F75206861766520616C726561647920636C61696D6564206120746F6B656E PUSH1 0x0 DUP3 ADD MSTORE PUSH32 0x2066726F6D20746869732070726F66696C650000000000000000000000000000 PUSH1 0x20 DUP3 ADD MSTORE POP JUMP JUMPDEST PUSH1 0x0 PUSH2 0x5556 PUSH1 0x32 DUP4 PUSH2 0x4D6F JUMP JUMPDEST SWAP2 POP PUSH2 0x5561 DUP3 PUSH2 0x54FA JUMP JUMPDEST PUSH1 0x40 DUP3 ADD SWAP1 POP SWAP2 SWAP1 POP JUMP JUMPDEST PUSH1 0x0 PUSH1 0x20 DUP3 ADD SWAP1 POP DUP2 DUP2 SUB PUSH1 0x0 DUP4 ADD MSTORE PUSH2 0x5585 DUP2 PUSH2 0x5549 JUMP JUMPDEST SWAP1 POP SWAP2 SWAP1 POP JUMP JUMPDEST PUSH1 0x0 DUP1 REVERT JUMPDEST PUSH1 0x0 DUP1 REVERT JUMPDEST PUSH1 0x0 DUP1 REVERT JUMPDEST PUSH1 0x0 DUP1 DUP4 CALLDATALOAD PUSH1 0x1 PUSH1 0x20 SUB DUP5 CALLDATASIZE SUB SUB DUP2 SLT PUSH2 0x55B8 JUMPI PUSH2 0x55B7 PUSH2 0x558C JUMP JUMPDEST JUMPDEST DUP1 DUP5 ADD SWAP3 POP DUP3 CALLDATALOAD SWAP2 POP PUSH8 0xFFFFFFFFFFFFFFFF DUP3 GT ISZERO PUSH2 0x55DA JUMPI PUSH2 0x55D9 PUSH2 0x5591 JUMP JUMPDEST JUMPDEST PUSH1 0x20 DUP4 ADD SWAP3 POP PUSH1 0x1 DUP3 MUL CALLDATASIZE SUB DUP4 SGT ISZERO PUSH2 0x55F6 JUMPI PUSH2 0x55F5 PUSH2 0x5596 JUMP JUMPDEST JUMPDEST POP SWAP3 POP SWAP3 SWAP1 POP JUMP JUMPDEST PUSH1 0x0 PUSH2 0x560B DUP3 DUP5 DUP7 PUSH2 0x4C5E JUMP JUMPDEST SWAP2 POP DUP2 SWAP1 POP SWAP4 SWAP3 POP POP POP JUMP JUMPDEST PUSH1 0x0 PUSH2 0x5622 DUP3 PUSH2 0x3A4C JUMP JUMPDEST SWAP2 POP PUSH2 0x562D DUP4 PUSH2 0x3A4C JUMP JUMPDEST SWAP3 POP DUP3 DUP3 SUB SWAP1 POP DUP2 DUP2 GT ISZERO PUSH2 0x5645 JUMPI PUSH2 0x5644 PUSH2 0x4DEC JUMP JUMPDEST JUMPDEST SWAP3 SWAP2 POP POP JUMP JUMPDEST PUSH32 0x4F776E61626C653A206E6577206F776E657220697320746865207A65726F2061 PUSH1 0x0 DUP3 ADD MSTORE PUSH32 0x6464726573730000000000000000000000000000000000000000000000000000 PUSH1 0x20 DUP3 ADD MSTORE POP JUMP JUMPDEST PUSH1 0x0 PUSH2 0x56A7 PUSH1 0x26 DUP4 PUSH2 0x4D6F JUMP JUMPDEST SWAP2 POP PUSH2 0x56B2 DUP3 PUSH2 0x564B JUMP JUMPDEST PUSH1 0x40 DUP3 ADD SWAP1 POP SWAP2 SWAP1 POP JUMP JUMPDEST PUSH1 0x0 PUSH1 0x20 DUP3 ADD SWAP1 POP DUP2 DUP2 SUB PUSH1 0x0 DUP4 ADD MSTORE PUSH2 0x56D6 DUP2 PUSH2 0x569A JUMP JUMPDEST SWAP1 POP SWAP2 SWAP1 POP JUMP JUMPDEST PUSH1 0x0 DUP2 SWAP1 POP PUSH1 0x20 DUP3 ADD SWAP1 POP SWAP2 SWAP1 POP JUMP JUMPDEST PUSH1 0x0 PUSH32 0xFFFFFFFFFFFFFFFFFFFFFFFFFFFFFFFFFFFFFFFF000000000000000000000000 DUP3 AND SWAP1 POP SWAP2 SWAP1 POP JUMP JUMPDEST PUSH1 0x0 PUSH2 0x5725 DUP3 MLOAD PUSH2 0x56ED JUMP JUMPDEST DUP1 SWAP2 POP POP SWAP2 SWAP1 POP JUMP JUMPDEST PUSH1 0x0 PUSH2 0x5739 DUP3 PUSH2 0x4377 JUMP JUMPDEST DUP3 PUSH2 0x5743 DUP5 PUSH2 0x56DD JUMP JUMPDEST SWAP1 POP PUSH2 0x574E DUP2 PUSH2 0x5719 JUMP JUMPDEST SWAP3 POP PUSH1 0x14 DUP3 LT ISZERO PUSH2 0x578E JUMPI PUSH2 0x5789 PUSH32 0xFFFFFFFFFFFFFFFFFFFFFFFFFFFFFFFFFFFFFFFF000000000000000000000000 DUP4 PUSH1 0x14 SUB PUSH1 0x8 MUL PUSH2 0x50D3 JUMP JUMPDEST DUP4 AND SWAP3 POP JUMPDEST POP POP SWAP2 SWAP1 POP JUMP JUMPDEST PUSH1 0x0 PUSH1 0xA0 DUP3 ADD SWAP1 POP PUSH2 0x57AA PUSH1 0x0 DUP4 ADD DUP9 PUSH2 0x47C0 JUMP JUMPDEST PUSH2 0x57B7 PUSH1 0x20 DUP4 ADD DUP8 PUSH2 0x47C0 JUMP JUMPDEST PUSH2 0x57C4 PUSH1 0x40 DUP4 ADD DUP7 PUSH2 0x47C0 JUMP JUMPDEST PUSH2 0x57D1 PUSH1 0x60 DUP4 ADD DUP6 PUSH2 0x3A56 JUMP JUMPDEST DUP2 DUP2 SUB PUSH1 0x80 DUP4 ADD MSTORE PUSH2 0x57E3 DUP2 DUP5 PUSH2 0x43AC JUMP JUMPDEST SWAP1 POP SWAP7 SWAP6 POP POP POP POP POP POP JUMP JUMPDEST PUSH32 0x4F776E61626C653A2063616C6C6572206973206E6F7420746865206F776E6572 PUSH1 0x0 DUP3 ADD MSTORE POP JUMP JUMPDEST PUSH1 0x0 PUSH2 0x5825 PUSH1 0x20 DUP4 PUSH2 0x4D6F JUMP JUMPDEST SWAP2 POP PUSH2 0x5830 DUP3 PUSH2 0x57EF JUMP JUMPDEST PUSH1 0x20 DUP3 ADD SWAP1 POP SWAP2 SWAP1 POP JUMP JUMPDEST PUSH1 0x0 PUSH1 0x20 DUP3 ADD SWAP1 POP DUP2 DUP2 SUB PUSH1 0x0 DUP4 ADD MSTORE PUSH2 0x5854 DUP2 PUSH2 0x5818 JUMP JUMPDEST SWAP1 POP SWAP2 SWAP1 POP JUMP JUMPDEST PUSH1 0x0 PUSH1 0x80 DUP3 ADD SWAP1 POP PUSH2 0x5870 PUSH1 0x0 DUP4 ADD DUP8 PUSH2 0x47C0 JUMP JUMPDEST PUSH2 0x587D PUSH1 0x20 DUP4 ADD DUP7 PUSH2 0x3A56 JUMP JUMPDEST PUSH2 0x588A PUSH1 0x40 DUP4 ADD DUP6 PUSH2 0x47C0 JUMP JUMPDEST PUSH2 0x5897 PUSH1 0x60 DUP4 ADD DUP5 PUSH2 0x3A56 JUMP JUMPDEST SWAP6 SWAP5 POP POP POP POP POP JUMP JUMPDEST PUSH1 0x0 DUP2 SWAP1 POP DUP2 PUSH1 0x0 MSTORE PUSH1 0x20 PUSH1 0x0 KECCAK256 SWAP1 POP SWAP2 SWAP1 POP JUMP JUMPDEST PUSH1 0x1F DUP3 GT ISZERO PUSH2 0x58F6 JUMPI PUSH2 0x58C7 DUP2 PUSH2 0x58A0 JUMP JUMPDEST PUSH2 0x58D0 DUP5 PUSH2 0x50C3 JUMP JUMPDEST DUP2 ADD PUSH1 0x20 DUP6 LT ISZERO PUSH2 0x58DF JUMPI DUP2 SWAP1 POP JUMPDEST PUSH2 0x58F3 PUSH2 0x58EB DUP6 PUSH2 0x50C3 JUMP JUMPDEST DUP4 ADD DUP3 PUSH2 0x51A0 JUMP JUMPDEST POP POP JUMPDEST POP POP POP JUMP JUMPDEST PUSH2 0x5904 DUP3 PUSH2 0x4377 JUMP JUMPDEST PUSH8 0xFFFFFFFFFFFFFFFF DUP2 GT ISZERO PUSH2 0x591D JUMPI PUSH2 0x591C PUSH2 0x3B14 JUMP JUMPDEST JUMPDEST PUSH2 0x5927 DUP3 SLOAD PUSH2 0x507D JUMP JUMPDEST PUSH2 0x5932 DUP3 DUP3 DUP6 PUSH2 0x58B5 JUMP JUMPDEST PUSH1 0x0 PUSH1 0x20 SWAP1 POP PUSH1 0x1F DUP4 GT PUSH1 0x1 DUP2 EQ PUSH2 0x5965 JUMPI PUSH1 0x0 DUP5 ISZERO PUSH2 0x5953 JUMPI DUP3 DUP8 ADD MLOAD SWAP1 POP JUMPDEST PUSH2 0x595D DUP6 DUP3 PUSH2 0x5234 JUMP JUMPDEST DUP7 SSTORE POP PUSH2 0x59C5 JUMP JUMPDEST PUSH1 0x1F NOT DUP5 AND PUSH2 0x5973 DUP7 PUSH2 0x58A0 JUMP JUMPDEST PUSH1 0x0 JUMPDEST DUP3 DUP2 LT ISZERO PUSH2 0x599B JUMPI DUP5 DUP10 ADD MLOAD DUP3 SSTORE PUSH1 0x1 DUP3 ADD SWAP2 POP PUSH1 0x20 DUP6 ADD SWAP5 POP PUSH1 0x20 DUP2 ADD SWAP1 POP PUSH2 0x5976 JUMP JUMPDEST DUP7 DUP4 LT ISZERO PUSH2 0x59B8 JUMPI DUP5 DUP10 ADD MLOAD PUSH2 0x59B4 PUSH1 0x1F DUP10 AND DUP3 PUSH2 0x5216 JUMP JUMPDEST DUP4 SSTORE POP JUMPDEST PUSH1 0x1 PUSH1 0x2 DUP9 MUL ADD DUP9 SSTORE POP POP POP JUMPDEST POP POP POP POP POP POP JUMP JUMPDEST PUSH1 0x0 PUSH32 0xFFFFFFFFFFFFFFFFFFFF00000000000000000000000000000000000000000000 DUP3 AND SWAP1 POP SWAP2 SWAP1 POP JUMP JUMPDEST PUSH1 0x0 DUP2 SWAP1 POP SWAP2 SWAP1 POP JUMP JUMPDEST PUSH2 0x5A14 PUSH2 0x5A0F DUP3 PUSH2 0x59CD JUMP JUMPDEST PUSH2 0x59F9 JUMP JUMPDEST DUP3 MSTORE POP POP JUMP JUMPDEST PUSH1 0x0 PUSH32 0xFFFF000000000000000000000000000000000000000000000000000000000000 DUP3 AND SWAP1 POP SWAP2 SWAP1 POP JUMP JUMPDEST PUSH1 0x0 DUP2 SWAP1 POP SWAP2 SWAP1 POP JUMP JUMPDEST PUSH2 0x5A61 PUSH2 0x5A5C DUP3 PUSH2 0x5A1A JUMP JUMPDEST PUSH2 0x5A46 JUMP JUMPDEST DUP3 MSTORE POP POP JUMP JUMPDEST PUSH1 0x0 DUP2 SWAP1 POP SWAP2 SWAP1 POP JUMP JUMPDEST PUSH2 0x5A82 PUSH2 0x5A7D DUP3 PUSH2 0x56ED JUMP JUMPDEST PUSH2 0x5A67 JUMP JUMPDEST DUP3 MSTORE POP POP JUMP JUMPDEST PUSH1 0x0 PUSH2 0x5A94 DUP3 DUP7 PUSH2 0x5A03 JUMP JUMPDEST PUSH1 0xA DUP3 ADD SWAP2 POP PUSH2 0x5AA4 DUP3 DUP6 PUSH2 0x5A50 JUMP JUMPDEST PUSH1 0x2 DUP3 ADD SWAP2 POP PUSH2 0x5AB4 DUP3 DUP5 PUSH2 0x5A71 JUMP JUMPDEST PUSH1 0x14 DUP3 ADD SWAP2 POP DUP2 SWAP1 POP SWAP5 SWAP4 POP POP POP POP JUMP JUMPDEST PUSH1 0x0 PUSH2 0x5AD1 DUP3 MLOAD PUSH2 0x4314 JUMP JUMPDEST DUP1 SWAP2 POP POP SWAP2 SWAP1 POP JUMP JUMPDEST PUSH1 0x0 PUSH2 0x5AE5 DUP3 PUSH2 0x4377 JUMP JUMPDEST DUP3 PUSH2 0x5AEF DUP5 PUSH2 0x56DD JUMP JUMPDEST SWAP1 POP PUSH2 0x5AFA DUP2 PUSH2 0x5AC5 JUMP JUMPDEST SWAP3 POP PUSH1 0x20 DUP3 LT ISZERO PUSH2 0x5B3A JUMPI PUSH2 0x5B35 PUSH32 0xFFFFFFFFFFFFFFFFFFFFFFFFFFFFFFFFFFFFFFFFFFFFFFFFFFFFFFFFFFFFFFFF DUP4 PUSH1 0x20 SUB PUSH1 0x8 MUL PUSH2 0x50D3 JUMP JUMPDEST DUP4 AND SWAP3 POP JUMPDEST POP POP SWAP2 SWAP1 POP JUMP JUMPDEST PUSH2 0x5B4A DUP2 PUSH2 0x4314 JUMP JUMPDEST DUP3 MSTORE POP POP JUMP JUMPDEST PUSH1 0x0 PUSH1 0x40 DUP3 ADD SWAP1 POP PUSH2 0x5B65 PUSH1 0x0 DUP4 ADD DUP6 PUSH2 0x5B41 JUMP JUMPDEST DUP2 DUP2 SUB PUSH1 0x20 DUP4 ADD MSTORE PUSH2 0x5B77 DUP2 DUP5 PUSH2 0x43AC JUMP JUMPDEST SWAP1 POP SWAP4 SWAP3 POP POP POP JUMP JUMPDEST PUSH1 0x0 PUSH2 0x5B93 PUSH2 0x5B8E DUP5 PUSH2 0x3B8F JUMP JUMPDEST PUSH2 0x3B74 JUMP JUMPDEST SWAP1 POP DUP3 DUP2 MSTORE PUSH1 0x20 DUP2 ADD DUP5 DUP5 DUP5 ADD GT ISZERO PUSH2 0x5BAF JUMPI PUSH2 0x5BAE PUSH2 0x3B0F JUMP JUMPDEST JUMPDEST PUSH2 0x5BBA DUP5 DUP3 DUP6 PUSH2 0x4382 JUMP JUMPDEST POP SWAP4 SWAP3 POP POP POP JUMP JUMPDEST PUSH1 0x0 DUP3 PUSH1 0x1F DUP4 ADD SLT PUSH2 0x5BD7 JUMPI PUSH2 0x5BD6 PUSH2 0x3B0A JUMP JUMPDEST JUMPDEST DUP2 MLOAD PUSH2 0x5BE7 DUP5 DUP3 PUSH1 0x20 DUP7 ADD PUSH2 0x5B80 JUMP JUMPDEST SWAP2 POP POP SWAP3 SWAP2 POP POP JUMP JUMPDEST PUSH1 0x0 PUSH1 0x20 DUP3 DUP5 SUB SLT ISZERO PUSH2 0x5C06 JUMPI PUSH2 0x5C05 PUSH2 0x3987 JUMP JUMPDEST JUMPDEST PUSH1 0x0 DUP3 ADD MLOAD PUSH8 0xFFFFFFFFFFFFFFFF DUP2 GT ISZERO PUSH2 0x5C24 JUMPI PUSH2 0x5C23 PUSH2 0x398C JUMP JUMPDEST JUMPDEST PUSH2 0x5C30 DUP5 DUP3 DUP6 ADD PUSH2 0x5BC2 JUMP JUMPDEST SWAP2 POP POP SWAP3 SWAP2 POP POP JUMP JUMPDEST PUSH1 0x0 PUSH1 0x60 DUP3 ADD SWAP1 POP PUSH2 0x5C4E PUSH1 0x0 DUP4 ADD DUP7 PUSH2 0x3A56 JUMP JUMPDEST PUSH2 0x5C5B PUSH1 0x20 DUP4 ADD DUP6 PUSH2 0x47C0 JUMP JUMPDEST PUSH2 0x5C68 PUSH1 0x40 DUP4 ADD DUP5 PUSH2 0x3A56 JUMP JUMPDEST SWAP5 SWAP4 POP POP POP POP JUMP JUMPDEST PUSH1 0x0 PUSH1 0x60 DUP3 ADD SWAP1 POP PUSH2 0x5C85 PUSH1 0x0 DUP4 ADD DUP7 PUSH2 0x3A56 JUMP JUMPDEST PUSH2 0x5C92 PUSH1 0x20 DUP4 ADD DUP6 PUSH2 0x3A22 JUMP JUMPDEST DUP2 DUP2 SUB PUSH1 0x40 DUP4 ADD MSTORE PUSH2 0x5CA4 DUP2 DUP5 PUSH2 0x43AC JUMP JUMPDEST SWAP1 POP SWAP5 SWAP4 POP POP POP POP JUMP JUMPDEST PUSH32 0x4E487B7100000000000000000000000000000000000000000000000000000000 PUSH1 0x0 MSTORE PUSH1 0x31 PUSH1 0x4 MSTORE PUSH1 0x24 PUSH1 0x0 REVERT INVALID LOG2 PUSH5 0x6970667358 0x22 SLT KECCAK256 XOR 0xC5 SHR PUSH9 0x6579725A99FA24AC1C 0xBB 0xE7 CHAINID 0xFC PUSH14 0x6DF3EE6DB735D94038CEAFCB1842 PUSH5 0x736F6C6343 STOP ADDMOD SGT STOP CALLER "},"methodIdentifiers":{"answerQuestion(uint256,string)":"447e52a0","authorizeOperator(address,uint256,bytes)":"b49506fd","authorizedAmountFor(address,address)":"65aeaa95","balanceOf(address)":"70a08231","batchCalls(bytes[])":"6963d438","claimFreeToken(address)":"5bf4c7da","createProfile()":"00547664","decimals()":"313ce567","decreaseAllowance(address,address,uint256,bytes)":"78381670","getAllQuestions(address)":"ef6cc0ea","getData(bytes32)":"54f6127f","getDataBatch(bytes32[])":"dedff9c6","getFQTBalance(address)":"821dc5d1","getOperatorsOf(address)":"d72fc29a","hasAskedQuestion(address,address)":"b4b29fe5","hasProfile(address)":"a787c80b","hasReceivedToken(address,address)":"f87fd04a","increaseAllowance(address,uint256,bytes)":"2bc1da82","owner()":"8da5cb5b","profiles(address)":"bbe15627","renounceOwnership()":"715018a6","revokeOperator(address,address,bool,bytes)":"30d0dc37","setData(bytes32,bytes)":"7f23690c","setDataBatch(bytes32[],bytes[])":"97902421","submitQuestion(address,string)":"50743176","supportsInterface(bytes4)":"01ffc9a7","totalSupply()":"18160ddd","transfer(address,address,uint256,bool,bytes)":"760d9bba","transferBatch(address[],address[],uint256[],bool[],bytes[])":"2d7667c9","transferOwnership(address)":"f2fde38b"}}}}}