{
  "_format": "hh-sol-artifact-1",
  "contractName": "SimpleAMA",
  "sourceName": "contracts/ama.sol",
  "abi": [
    {
      "inputs": [
        {
          "internalType": "address",
          "name": "owner",
          "type": "address"
        }
      ],
      "stateMutability": "nonpayable",
      "type": "constructor"
    },
    {
      "inputs": [],
      "name": "ERC725Y_DataKeysValuesEmptyArray",
      "type": "error"
    },
    {
      "inputs": [],
      "name": "ERC725Y_DataKeysValuesLengthMismatch",
      "type": "error"
    },
    {
      "inputs": [],
      "name": "ERC725Y_MsgValueDisallowed",
      "type": "error"
    },
    {
      "inputs": [
        {
          "internalType": "bytes",
          "name": "storedData",
          "type": "bytes"
        }
      ],
      "name": "InvalidExtensionAddress",
      "type": "error"
    },
    {
      "inputs": [
        {
          "internalType": "bytes",
          "name": "data",
          "type": "bytes"
        }
      ],
      "name": "InvalidFunctionSelector",
      "type": "error"
    },
    {
      "inputs": [],
      "name": "LSP4TokenNameNotEditable",
      "type": "error"
    },
    {
      "inputs": [],
      "name": "LSP4TokenSymbolNotEditable",
      "type": "error"
    },
    {
      "inputs": [],
      "name": "LSP4TokenTypeNotEditable",
      "type": "error"
    },
    {
      "inputs": [
        {
          "internalType": "address",
          "name": "tokenOwner",
          "type": "address"
        },
        {
          "internalType": "uint256",
          "name": "authorizedAmount",
          "type": "uint256"
        },
        {
          "internalType": "address",
          "name": "operator",
          "type": "address"
        },
        {
          "internalType": "uint256",
          "name": "amount",
          "type": "uint256"
        }
      ],
      "name": "LSP7AmountExceedsAuthorizedAmount",
      "type": "error"
    },
    {
      "inputs": [
        {
          "internalType": "uint256",
          "name": "balance",
          "type": "uint256"
        },
        {
          "internalType": "address",
          "name": "tokenOwner",
          "type": "address"
        },
        {
          "internalType": "uint256",
          "name": "amount",
          "type": "uint256"
        }
      ],
      "name": "LSP7AmountExceedsBalance",
      "type": "error"
    },
    {
      "inputs": [
        {
          "internalType": "uint256",
          "name": "callIndex",
          "type": "uint256"
        }
      ],
      "name": "LSP7BatchCallFailed",
      "type": "error"
    },
    {
      "inputs": [],
      "name": "LSP7CannotSendWithAddressZero",
      "type": "error"
    },
    {
      "inputs": [],
      "name": "LSP7CannotUseAddressZeroAsOperator",
      "type": "error"
    },
    {
      "inputs": [
        {
          "internalType": "address",
          "name": "caller",
          "type": "address"
        },
        {
          "internalType": "address",
          "name": "tokenOwner",
          "type": "address"
        },
        {
          "internalType": "address",
          "name": "operator",
          "type": "address"
        }
      ],
      "name": "LSP7DecreaseAllowanceNotAuthorized",
      "type": "error"
    },
    {
      "inputs": [],
      "name": "LSP7DecreasedAllowanceBelowZero",
      "type": "error"
    },
    {
      "inputs": [],
      "name": "LSP7InvalidTransferBatch",
      "type": "error"
    },
    {
      "inputs": [
        {
          "internalType": "address",
          "name": "tokenReceiver",
          "type": "address"
        }
      ],
      "name": "LSP7NotifyTokenReceiverContractMissingLSP1Interface",
      "type": "error"
    },
    {
      "inputs": [
        {
          "internalType": "address",
          "name": "tokenReceiver",
          "type": "address"
        }
      ],
      "name": "LSP7NotifyTokenReceiverIsEOA",
      "type": "error"
    },
    {
      "inputs": [
        {
          "internalType": "address",
          "name": "caller",
          "type": "address"
        },
        {
          "internalType": "address",
          "name": "tokenOwner",
          "type": "address"
        },
        {
          "internalType": "address",
          "name": "operator",
          "type": "address"
        }
      ],
      "name": "LSP7RevokeOperatorNotAuthorized",
      "type": "error"
    },
    {
      "inputs": [],
      "name": "LSP7TokenContractCannotHoldValue",
      "type": "error"
    },
    {
      "inputs": [],
      "name": "LSP7TokenOwnerCannotBeOperator",
      "type": "error"
    },
    {
      "inputs": [
        {
          "internalType": "bytes4",
          "name": "functionSelector",
          "type": "bytes4"
        }
      ],
      "name": "NoExtensionFoundForFunctionSelector",
      "type": "error"
    },
    {
      "inputs": [
        {
          "internalType": "address",
          "name": "operator",
          "type": "address"
        }
      ],
      "name": "OperatorAllowanceCannotBeIncreasedFromZero",
      "type": "error"
    },
    {
      "inputs": [],
      "name": "OwnableCannotSetZeroAddressAsOwner",
      "type": "error"
    },
    {
      "anonymous": false,
      "inputs": [
        {
          "indexed": true,
          "internalType": "bytes32",
          "name": "dataKey",
          "type": "bytes32"
        },
        {
          "indexed": false,
          "internalType": "bytes",
          "name": "dataValue",
          "type": "bytes"
        }
      ],
      "name": "DataChanged",
      "type": "event"
    },
    {
      "anonymous": false,
      "inputs": [
        {
          "indexed": true,
          "internalType": "address",
          "name": "operator",
          "type": "address"
        },
        {
          "indexed": true,
          "internalType": "address",
          "name": "tokenOwner",
          "type": "address"
        },
        {
          "indexed": true,
          "internalType": "uint256",
          "name": "amount",
          "type": "uint256"
        },
        {
          "indexed": false,
          "internalType": "bytes",
          "name": "operatorNotificationData",
          "type": "bytes"
        }
      ],
      "name": "OperatorAuthorizationChanged",
      "type": "event"
    },
    {
      "anonymous": false,
      "inputs": [
        {
          "indexed": true,
          "internalType": "address",
          "name": "operator",
          "type": "address"
        },
        {
          "indexed": true,
          "internalType": "address",
          "name": "tokenOwner",
          "type": "address"
        },
        {
          "indexed": true,
          "internalType": "bool",
          "name": "notified",
          "type": "bool"
        },
        {
          "indexed": false,
          "internalType": "bytes",
          "name": "operatorNotificationData",
          "type": "bytes"
        }
      ],
      "name": "OperatorRevoked",
      "type": "event"
    },
    {
      "anonymous": false,
      "inputs": [
        {
          "indexed": true,
          "internalType": "address",
          "name": "previousOwner",
          "type": "address"
        },
        {
          "indexed": true,
          "internalType": "address",
          "name": "newOwner",
          "type": "address"
        }
      ],
      "name": "OwnershipTransferred",
      "type": "event"
    },
    {
      "anonymous": false,
      "inputs": [
        {
          "indexed": true,
          "internalType": "address",
          "name": "operator",
          "type": "address"
        },
        {
          "indexed": true,
          "internalType": "address",
          "name": "from",
          "type": "address"
        },
        {
          "indexed": true,
          "internalType": "address",
          "name": "to",
          "type": "address"
        },
        {
          "indexed": false,
          "internalType": "uint256",
          "name": "amount",
          "type": "uint256"
        },
        {
          "indexed": false,
          "internalType": "bool",
          "name": "force",
          "type": "bool"
        },
        {
          "indexed": false,
          "internalType": "bytes",
          "name": "data",
          "type": "bytes"
        }
      ],
      "name": "Transfer",
      "type": "event"
    },
    {
      "stateMutability": "payable",
      "type": "fallback"
    },
    {
      "inputs": [
        {
          "internalType": "uint256",
          "name": "_questionId",
          "type": "uint256"
        },
        {
          "internalType": "string",
          "name": "_answerText",
          "type": "string"
        }
      ],
      "name": "answerQuestion",
      "outputs": [],
      "stateMutability": "nonpayable",
      "type": "function"
    },
    {
      "inputs": [
        {
          "internalType": "address",
          "name": "operator",
          "type": "address"
        },
        {
          "internalType": "uint256",
          "name": "amount",
          "type": "uint256"
        },
        {
          "internalType": "bytes",
          "name": "operatorNotificationData",
          "type": "bytes"
        }
      ],
      "name": "authorizeOperator",
      "outputs": [],
      "stateMutability": "nonpayable",
      "type": "function"
    },
    {
      "inputs": [
        {
          "internalType": "address",
          "name": "operator",
          "type": "address"
        },
        {
          "internalType": "address",
          "name": "tokenOwner",
          "type": "address"
        }
      ],
      "name": "authorizedAmountFor",
      "outputs": [
        {
          "internalType": "uint256",
          "name": "",
          "type": "uint256"
        }
      ],
      "stateMutability": "view",
      "type": "function"
    },
    {
      "inputs": [
        {
          "internalType": "address",
          "name": "tokenOwner",
          "type": "address"
        }
      ],
      "name": "balanceOf",
      "outputs": [
        {
          "internalType": "uint256",
          "name": "",
          "type": "uint256"
        }
      ],
      "stateMutability": "view",
      "type": "function"
    },
    {
      "inputs": [
        {
          "internalType": "bytes[]",
          "name": "data",
          "type": "bytes[]"
        }
      ],
      "name": "batchCalls",
      "outputs": [
        {
          "internalType": "bytes[]",
          "name": "results",
          "type": "bytes[]"
        }
      ],
      "stateMutability": "nonpayable",
      "type": "function"
    },
    {
      "inputs": [
        {
          "internalType": "address",
          "name": "_profileOwner",
          "type": "address"
        }
      ],
      "name": "claimFreeToken",
      "outputs": [],
      "stateMutability": "nonpayable",
      "type": "function"
    },
    {
      "inputs": [],
      "name": "createProfile",
      "outputs": [],
      "stateMutability": "nonpayable",
      "type": "function"
    },
    {
      "inputs": [],
      "name": "decimals",
      "outputs": [
        {
          "internalType": "uint8",
          "name": "",
          "type": "uint8"
        }
      ],
      "stateMutability": "view",
      "type": "function"
    },
    {
      "inputs": [
        {
          "internalType": "address",
          "name": "operator",
          "type": "address"
        },
        {
          "internalType": "address",
          "name": "tokenOwner",
          "type": "address"
        },
        {
          "internalType": "uint256",
          "name": "subtractedAmount",
          "type": "uint256"
        },
        {
          "internalType": "bytes",
          "name": "operatorNotificationData",
          "type": "bytes"
        }
      ],
      "name": "decreaseAllowance",
      "outputs": [],
      "stateMutability": "nonpayable",
      "type": "function"
    },
    {
      "inputs": [
        {
          "internalType": "address",
          "name": "_profileOwner",
          "type": "address"
        }
      ],
      "name": "getAllQuestions",
      "outputs": [
        {
          "components": [
            {
              "internalType": "address",
              "name": "sender",
              "type": "address"
            },
            {
              "internalType": "string",
              "name": "questionText",
              "type": "string"
            },
            {
              "internalType": "string",
              "name": "answerText",
              "type": "string"
            },
            {
              "internalType": "bool",
              "name": "answered",
              "type": "bool"
            }
          ],
          "internalType": "struct SimpleAMA.Question[]",
          "name": "",
          "type": "tuple[]"
        }
      ],
      "stateMutability": "view",
      "type": "function"
    },
    {
      "inputs": [
        {
          "internalType": "bytes32",
          "name": "dataKey",
          "type": "bytes32"
        }
      ],
      "name": "getData",
      "outputs": [
        {
          "internalType": "bytes",
          "name": "dataValue",
          "type": "bytes"
        }
      ],
      "stateMutability": "view",
      "type": "function"
    },
    {
      "inputs": [
        {
          "internalType": "bytes32[]",
          "name": "dataKeys",
          "type": "bytes32[]"
        }
      ],
      "name": "getDataBatch",
      "outputs": [
        {
          "internalType": "bytes[]",
          "name": "dataValues",
          "type": "bytes[]"
        }
      ],
      "stateMutability": "view",
      "type": "function"
    },
    {
      "inputs": [
        {
          "internalType": "address",
          "name": "user",
          "type": "address"
        }
      ],
      "name": "getFQTBalance",
      "outputs": [
        {
          "internalType": "uint256",
          "name": "",
          "type": "uint256"
        }
      ],
      "stateMutability": "view",
      "type": "function"
    },
    {
      "inputs": [
        {
          "internalType": "address",
          "name": "tokenOwner",
          "type": "address"
        }
      ],
      "name": "getOperatorsOf",
      "outputs": [
        {
          "internalType": "address[]",
          "name": "",
          "type": "address[]"
        }
      ],
      "stateMutability": "view",
      "type": "function"
    },
    {
      "inputs": [
        {
          "internalType": "address",
          "name": "_profileOwner",
          "type": "address"
        },
        {
          "internalType": "address",
          "name": "user",
          "type": "address"
        }
      ],
      "name": "hasAskedQuestion",
      "outputs": [
        {
          "internalType": "bool",
          "name": "",
          "type": "bool"
        }
      ],
      "stateMutability": "view",
      "type": "function"
    },
    {
      "inputs": [
        {
          "internalType": "address",
          "name": "user",
          "type": "address"
        }
      ],
      "name": "hasProfile",
      "outputs": [
        {
          "internalType": "bool",
          "name": "",
          "type": "bool"
        }
      ],
      "stateMutability": "view",
      "type": "function"
    },
    {
      "inputs": [
        {
          "internalType": "address",
          "name": "_profileOwner",
          "type": "address"
        },
        {
          "internalType": "address",
          "name": "user",
          "type": "address"
        }
      ],
      "name": "hasReceivedToken",
      "outputs": [
        {
          "internalType": "bool",
          "name": "",
          "type": "bool"
        }
      ],
      "stateMutability": "view",
      "type": "function"
    },
    {
      "inputs": [
        {
          "internalType": "address",
          "name": "operator",
          "type": "address"
        },
        {
          "internalType": "uint256",
          "name": "addedAmount",
          "type": "uint256"
        },
        {
          "internalType": "bytes",
          "name": "operatorNotificationData",
          "type": "bytes"
        }
      ],
      "name": "increaseAllowance",
      "outputs": [],
      "stateMutability": "nonpayable",
      "type": "function"
    },
    {
      "inputs": [],
      "name": "owner",
      "outputs": [
        {
          "internalType": "address",
          "name": "",
          "type": "address"
        }
      ],
      "stateMutability": "view",
      "type": "function"
    },
    {
      "inputs": [
        {
          "internalType": "address",
          "name": "",
          "type": "address"
        }
      ],
      "name": "profiles",
      "outputs": [
        {
          "internalType": "address",
          "name": "owner",
          "type": "address"
        },
        {
          "internalType": "uint256",
          "name": "questionCounter",
          "type": "uint256"
        }
      ],
      "stateMutability": "view",
      "type": "function"
    },
    {
      "inputs": [],
      "name": "renounceOwnership",
      "outputs": [],
      "stateMutability": "nonpayable",
      "type": "function"
    },
    {
      "inputs": [
        {
          "internalType": "address",
          "name": "operator",
          "type": "address"
        },
        {
          "internalType": "address",
          "name": "tokenOwner",
          "type": "address"
        },
        {
          "internalType": "bool",
          "name": "notify",
          "type": "bool"
        },
        {
          "internalType": "bytes",
          "name": "operatorNotificationData",
          "type": "bytes"
        }
      ],
      "name": "revokeOperator",
      "outputs": [],
      "stateMutability": "nonpayable",
      "type": "function"
    },
    {
      "inputs": [
        {
          "internalType": "bytes32",
          "name": "dataKey",
          "type": "bytes32"
        },
        {
          "internalType": "bytes",
          "name": "dataValue",
          "type": "bytes"
        }
      ],
      "name": "setData",
      "outputs": [],
      "stateMutability": "payable",
      "type": "function"
    },
    {
      "inputs": [
        {
          "internalType": "bytes32[]",
          "name": "dataKeys",
          "type": "bytes32[]"
        },
        {
          "internalType": "bytes[]",
          "name": "dataValues",
          "type": "bytes[]"
        }
      ],
      "name": "setDataBatch",
      "outputs": [],
      "stateMutability": "payable",
      "type": "function"
    },
    {
      "inputs": [
        {
          "internalType": "address",
          "name": "_profileOwner",
          "type": "address"
        },
        {
          "internalType": "string",
          "name": "_questionText",
          "type": "string"
        }
      ],
      "name": "submitQuestion",
      "outputs": [],
      "stateMutability": "nonpayable",
      "type": "function"
    },
    {
      "inputs": [
        {
          "internalType": "bytes4",
          "name": "interfaceId",
          "type": "bytes4"
        }
      ],
      "name": "supportsInterface",
      "outputs": [
        {
          "internalType": "bool",
          "name": "",
          "type": "bool"
        }
      ],
      "stateMutability": "view",
      "type": "function"
    },
    {
      "inputs": [],
      "name": "totalSupply",
      "outputs": [
        {
          "internalType": "uint256",
          "name": "",
          "type": "uint256"
        }
      ],
      "stateMutability": "view",
      "type": "function"
    },
    {
      "inputs": [
        {
          "internalType": "address",
          "name": "from",
          "type": "address"
        },
        {
          "internalType": "address",
          "name": "to",
          "type": "address"
        },
        {
          "internalType": "uint256",
          "name": "amount",
          "type": "uint256"
        },
        {
          "internalType": "bool",
          "name": "force",
          "type": "bool"
        },
        {
          "internalType": "bytes",
          "name": "data",
          "type": "bytes"
        }
      ],
      "name": "transfer",
      "outputs": [],
      "stateMutability": "nonpayable",
      "type": "function"
    },
    {
      "inputs": [
        {
          "internalType": "address[]",
          "name": "from",
          "type": "address[]"
        },
        {
          "internalType": "address[]",
          "name": "to",
          "type": "address[]"
        },
        {
          "internalType": "uint256[]",
          "name": "amount",
          "type": "uint256[]"
        },
        {
          "internalType": "bool[]",
          "name": "force",
          "type": "bool[]"
        },
        {
          "internalType": "bytes[]",
          "name": "data",
          "type": "bytes[]"
        }
      ],
      "name": "transferBatch",
      "outputs": [],
      "stateMutability": "nonpayable",
      "type": "function"
    },
    {
      "inputs": [
        {
          "internalType": "address",
          "name": "newOwner",
          "type": "address"
        }
      ],
      "name": "transferOwnership",
      "outputs": [],
      "stateMutability": "nonpayable",
      "type": "function"
    },
    {
      "stateMutability": "payable",
      "type": "receive"
    }
  ],
  "bytecode": "0x60806040523480156200001157600080fd5b50604051620065c7380380620065c7833981810160405281019062000037919062000430565b6040518060400160405280601381526020017f46726565205175657374696f6e20546f6b656e000000000000000000000000008152506040518060400160405280600381526020017f4651540000000000000000000000000000000000000000000000000000000000815250336000808484848481620000cc620000c06200029960201b60201c565b620002a160201b60201c565b600073ffffffffffffffffffffffffffffffffffffffff168173ffffffffffffffffffffffffffffffffffffffff160362000133576040517f1ad8836c00000000000000000000000000000000000000000000000000000000815260040160405180910390fd5b6200014481620002a160201b60201c565b50620001af7feafec4d89fa9619884b60000a4d96624a38f7ac2d8d9a604ecf07c12c77e480c60001b6040518060400160405280600481526020017fa4d96624000000000000000000000000000000000000000000000000000000008152506200036560201b60201c565b620001e47fdeba1e292f8ba88238e10ab3c7f88bd4be4fac56cad5194b6ecceaf653468af160001b856200036560201b60201c565b620002197f2f0a68ab07768e01943a599e73362a0e17a63a72e94dd2e384d2c1d4db93275660001b846200036560201b60201c565b6200026f7fe0261fa95db2eb3b5439bd033cda66d56b96f92f243a8228fd87550ed7bdfdb360001b826040516020016200025491906200047d565b6040516020818303038152906040526200036560201b60201c565b5050505080600260006101000a81548160ff021916908315150217905550505050505050620008a4565b600033905090565b60008060009054906101000a900473ffffffffffffffffffffffffffffffffffffffff169050816000806101000a81548173ffffffffffffffffffffffffffffffffffffffff021916908373ffffffffffffffffffffffffffffffffffffffff1602179055508173ffffffffffffffffffffffffffffffffffffffff168173ffffffffffffffffffffffffffffffffffffffff167f8be0079c531659141344cd1fd0a4f28419497f9722a3daafe3b4186f6b6457e060405160405180910390a35050565b806001600084815260200190815260200160002090816200038791906200070a565b50817fece574603820d07bc9b91f2a932baadf4628aabcb8afba49776529c14a6104b282604051620003ba919062000880565b60405180910390a25050565b600080fd5b600073ffffffffffffffffffffffffffffffffffffffff82169050919050565b6000620003f882620003cb565b9050919050565b6200040a81620003eb565b81146200041657600080fd5b50565b6000815190506200042a81620003ff565b92915050565b600060208284031215620004495762000448620003c6565b5b6000620004598482850162000419565b91505092915050565b6000819050919050565b620004778162000462565b82525050565b60006020820190506200049460008301846200046c565b92915050565b600081519050919050565b7f4e487b7100000000000000000000000000000000000000000000000000000000600052604160045260246000fd5b7f4e487b7100000000000000000000000000000000000000000000000000000000600052602260045260246000fd5b600060028204905060018216806200051c57607f821691505b602082108103620005325762000531620004d4565b5b50919050565b60008190508160005260206000209050919050565b60006020601f8301049050919050565b600082821b905092915050565b6000600883026200059c7fffffffffffffffffffffffffffffffffffffffffffffffffffffffffffffffff826200055d565b620005a886836200055d565b95508019841693508086168417925050509392505050565b6000819050919050565b6000620005eb620005e5620005df8462000462565b620005c0565b62000462565b9050919050565b6000819050919050565b6200060783620005ca565b6200061f6200061682620005f2565b8484546200056a565b825550505050565b600090565b6200063662000627565b62000643818484620005fc565b505050565b5b818110156200066b576200065f6000826200062c565b60018101905062000649565b5050565b601f821115620006ba57620006848162000538565b6200068f846200054d565b810160208510156200069f578190505b620006b7620006ae856200054d565b83018262000648565b50505b505050565b600082821c905092915050565b6000620006df60001984600802620006bf565b1980831691505092915050565b6000620006fa8383620006cc565b9150826002028217905092915050565b62000715826200049a565b67ffffffffffffffff811115620007315762000730620004a5565b5b6200073d825462000503565b6200074a8282856200066f565b600060209050601f8311600181146200078257600084156200076d578287015190505b620007798582620006ec565b865550620007e9565b601f198416620007928662000538565b60005b82811015620007bc5784890151825560018201915060208501945060208101905062000795565b86831015620007dc5784890151620007d8601f891682620006cc565b8355505b6001600288020188555050505b505050505050565b600082825260208201905092915050565b60005b838110156200082257808201518184015260208101905062000805565b60008484015250505050565b6000601f19601f8301169050919050565b60006200084c826200049a565b620008588185620007f1565b93506200086a81856020860162000802565b62000875816200082e565b840191505092915050565b600060208201905081810360008301526200089c81846200083f565b905092915050565b615d1380620008b46000396000f3fe6080604052600436106101d05760003560e01c8063760d9bba116100f7578063b49506fd11610095578063dedff9c611610064578063dedff9c61461076d578063ef6cc0ea146107aa578063f2fde38b146107e7578063f87fd04a146108105761024a565b8063b49506fd1461068c578063b4b29fe5146106b5578063bbe15627146106f2578063d72fc29a146107305761024a565b8063821dc5d1116100d1578063821dc5d1146105cb5780638da5cb5b146106085780639790242114610633578063a787c80b1461064f5761024a565b8063760d9bba1461055d57806378381670146105865780637f23690c146105af5761024a565b8063447e52a01161016f57806365aeaa951161013e57806365aeaa951461048f5780636963d438146104cc57806370a0823114610509578063715018a6146105465761024a565b8063447e52a0146103d7578063507431761461040057806354f6127f146104295780635bf4c7da146104665761024a565b80632bc1da82116101ab5780632bc1da82146103315780632d7667c91461035a57806330d0dc3714610383578063313ce567146103ac5761024a565b8062547664146102b257806301ffc9a7146102c957806318160ddd146103065761024a565b3661024a5760003403610218576040517fe5099ee300000000000000000000000000000000000000000000000000000000815260040161020f906138ec565b60405180910390fd5b6040517f388f5adc00000000000000000000000000000000000000000000000000000000815260040160405180910390fd5b600036606060046000369050101561029b5782826040517fe5099ee3000000000000000000000000000000000000000000000000000000008152600401610292929190613959565b60405180910390fd5b6102a5838361084d565b9050915050805190602001f35b3480156102be57600080fd5b506102c76109cb565b005b3480156102d557600080fd5b506102f060048036038101906102eb91906139e9565b610b1f565b6040516102fd9190613a31565b60405180910390f35b34801561031257600080fd5b5061031b610b90565b6040516103289190613a65565b60405180910390f35b34801561033d57600080fd5b5061035860048036038101906103539190613c30565b610b9a565b005b34801561036657600080fd5b50610381600480360381019061037c9190613ffa565b610c45565b005b34801561038f57600080fd5b506103aa60048036038101906103a59190614101565b610d59565b005b3480156103b857600080fd5b506103c1610e56565b6040516103ce91906141a0565b60405180910390f35b3480156103e357600080fd5b506103fe60048036038101906103f9919061425c565b610e7b565b005b34801561040c57600080fd5b50610427600480360381019061042291906142b8565b610fe5565b005b34801561043557600080fd5b50610450600480360381019061044b919061434a565b611356565b60405161045d91906143e5565b60405180910390f35b34801561047257600080fd5b5061048d60048036038101906104889190614407565b611368565b005b34801561049b57600080fd5b506104b660048036038101906104b19190614434565b611575565b6040516104c39190613a65565b60405180910390f35b3480156104d857600080fd5b506104f360048036038101906104ee91906144cf565b611677565b6040516105009190614628565b60405180910390f35b34801561051557600080fd5b50610530600480360381019061052b9190614407565b6117f3565b60405161053d9190613a65565b60405180910390f35b34801561055257600080fd5b5061055b61183c565b005b34801561056957600080fd5b50610584600480360381019061057f919061464a565b611850565b005b34801561059257600080fd5b506105ad60048036038101906105a891906146e1565b6118a3565b005b6105c960048036038101906105c49190614764565b6119e9565b005b3480156105d757600080fd5b506105f260048036038101906105ed9190614407565b611a39565b6040516105ff9190613a65565b60405180910390f35b34801561061457600080fd5b5061061d611a4b565b60405161062a91906147cf565b60405180910390f35b61064d600480360381019061064891906148ad565b611a74565b005b34801561065b57600080fd5b5061067660048036038101906106719190614407565b611ac4565b6040516106839190613a31565b60405180910390f35b34801561069857600080fd5b506106b360048036038101906106ae9190613c30565b611b5f565b005b3480156106c157600080fd5b506106dc60048036038101906106d79190614434565b611ba5565b6040516106e99190613a31565b60405180910390f35b3480156106fe57600080fd5b5061071960048036038101906107149190614407565b611cd4565b604051610727929190614925565b60405180910390f35b34801561073c57600080fd5b5061075760048036038101906107529190614407565b611d18565b6040516107649190614a0c565b60405180910390f35b34801561077957600080fd5b50610794600480360381019061078f9190614a2e565b611d68565b6040516107a19190614628565b60405180910390f35b3480156107b657600080fd5b506107d160048036038101906107cc9190614407565b611e19565b6040516107de9190614c07565b60405180910390f35b3480156107f357600080fd5b5061080e60048036038101906108099190614407565b61215c565b005b34801561081c57600080fd5b5061083760048036038101906108329190614434565b6121df565b6040516108449190613a31565b60405180910390f35b6060600061087e6000357fffffffff000000000000000000000000000000000000000000000000000000001661230e565b509050600073ffffffffffffffffffffffffffffffffffffffff168173ffffffffffffffffffffffffffffffffffffffff1603610916576000357fffffffff00000000000000000000000000000000000000000000000000000000166040517fbb370b2b00000000000000000000000000000000000000000000000000000000815260040161090d9190614c38565b60405180910390fd5b6000808273ffffffffffffffffffffffffffffffffffffffff1634878733346040516020016109489493929190614cec565b6040516020818303038152906040526040516109649190614d58565b60006040518083038185875af1925050503d80600081146109a1576040519150601f19603f3d011682016040523d82523d6000602084013e6109a6565b606091505b509150915081156109bc578093505050506109c5565b80518060208301fd5b92915050565b600073ffffffffffffffffffffffffffffffffffffffff16600760003373ffffffffffffffffffffffffffffffffffffffff1673ffffffffffffffffffffffffffffffffffffffff16815260200190815260200160002060000160009054906101000a900473ffffffffffffffffffffffffffffffffffffffff1673ffffffffffffffffffffffffffffffffffffffff1614610a9c576040517f08c379a0000000000000000000000000000000000000000000000000000000008152600401610a9390614dcc565b60405180910390fd5b33600760003373ffffffffffffffffffffffffffffffffffffffff1673ffffffffffffffffffffffffffffffffffffffff16815260200190815260200160002060000160006101000a81548173ffffffffffffffffffffffffffffffffffffffff021916908373ffffffffffffffffffffffffffffffffffffffff160217905550565b600063c52d600860e01b7bffffffffffffffffffffffffffffffffffffffffffffffffffffffff1916827bffffffffffffffffffffffffffffffffffffffffffffffffffffffff19161480610b795750610b78826123c8565b5b80610b895750610b8882612429565b5b9050919050565b6000600354905090565b6000610ba68433611575565b905060008103610bed57836040517fcba6e977000000000000000000000000000000000000000000000000000000008152600401610be491906147cf565b60405180910390fd5b60008382610bfb9190614e1b565b9050610c0b338683600187612490565b6000338285604051602001610c2293929190614e4f565b6040516020818303038152906040529050610c3d8682612763565b505050505050565b600085519050845181141580610c5c575083518114155b80610c68575082518114155b80610c74575081518114155b15610cab576040517f263eee8d00000000000000000000000000000000000000000000000000000000815260040160405180910390fd5b60005b81811015610d5057610d45878281518110610ccc57610ccb614e8d565b5b6020026020010151878381518110610ce757610ce6614e8d565b5b6020026020010151878481518110610d0257610d01614e8d565b5b6020026020010151878581518110610d1d57610d1c614e8d565b5b6020026020010151878681518110610d3857610d37614e8d565b5b6020026020010151611850565b806001019050610cae565b50505050505050565b8273ffffffffffffffffffffffffffffffffffffffff163373ffffffffffffffffffffffffffffffffffffffff1614158015610dc157508373ffffffffffffffffffffffffffffffffffffffff163373ffffffffffffffffffffffffffffffffffffffff1614155b15610e07573383856040517f1a525b32000000000000000000000000000000000000000000000000000000008152600401610dfe93929190614ebc565b60405180910390fd5b610e15838560008585612490565b8115610e5057600083600083604051602001610e3393929190614f38565b6040516020818303038152906040529050610e4e8582612763565b505b50505050565b6000600260009054906101000a900460ff16610e73576012610e76565b60005b905090565b6000600760003373ffffffffffffffffffffffffffffffffffffffff1673ffffffffffffffffffffffffffffffffffffffff16815260200190815260200160002090503373ffffffffffffffffffffffffffffffffffffffff168160000160009054906101000a900473ffffffffffffffffffffffffffffffffffffffff1673ffffffffffffffffffffffffffffffffffffffff1614610f50576040517f08c379a0000000000000000000000000000000000000000000000000000000008152600401610f4790614fc2565b60405180910390fd5b8060010154831115610f97576040517f08c379a0000000000000000000000000000000000000000000000000000000008152600401610f8e9061502e565b60405180910390fd5b6000816002016000858152602001908152602001600020905082816002019081610fc19190615250565b5060018160030160006101000a81548160ff02191690831515021790555050505050565b670de0b6b3a7640000610ff7336117f3565b1015611038576040517f08c379a000000000000000000000000000000000000000000000000000000000815260040161102f90615394565b60405180910390fd5b6000600760008473ffffffffffffffffffffffffffffffffffffffff1673ffffffffffffffffffffffffffffffffffffffff1681526020019081526020016000209050600073ffffffffffffffffffffffffffffffffffffffff168160000160009054906101000a900473ffffffffffffffffffffffffffffffffffffffff1673ffffffffffffffffffffffffffffffffffffffff160361110e576040517f08c379a000000000000000000000000000000000000000000000000000000000815260040161110590615400565b60405180910390fd5b8060030160003373ffffffffffffffffffffffffffffffffffffffff1673ffffffffffffffffffffffffffffffffffffffff16815260200190815260200160002060009054906101000a900460ff161561119d576040517f08c379a000000000000000000000000000000000000000000000000000000000815260040161119490615492565b60405180910390fd5b8060010160008154809291906111b2906154b2565b919050555060405180608001604052803373ffffffffffffffffffffffffffffffffffffffff168152602001838152602001604051806020016040528060008152508152602001600015158152508160020160008360010154815260200190815260200160002060008201518160000160006101000a81548173ffffffffffffffffffffffffffffffffffffffff021916908373ffffffffffffffffffffffffffffffffffffffff16021790555060208201518160010190816112759190615250565b50604082015181600201908161128b9190615250565b5060608201518160030160006101000a81548160ff02191690831515021790555090505060018160030160003373ffffffffffffffffffffffffffffffffffffffff1673ffffffffffffffffffffffffffffffffffffffff16815260200190815260200160002060006101000a81548160ff02191690831515021790555061135133670de0b6b3a76400006040518060400160405280601f81526020017f4275726e20746f6b656e20746f207375626d69742061207175657374696f6e00815250612795565b505050565b606061136182612865565b9050919050565b6000600760008373ffffffffffffffffffffffffffffffffffffffff1673ffffffffffffffffffffffffffffffffffffffff1681526020019081526020016000209050600073ffffffffffffffffffffffffffffffffffffffff168160000160009054906101000a900473ffffffffffffffffffffffffffffffffffffffff1673ffffffffffffffffffffffffffffffffffffffff160361143e576040517f08c379a000000000000000000000000000000000000000000000000000000000815260040161143590615400565b60405180910390fd5b8060040160003373ffffffffffffffffffffffffffffffffffffffff1673ffffffffffffffffffffffffffffffffffffffff16815260200190815260200160002060009054906101000a900460ff16156114cd576040517f08c379a00000000000000000000000000000000000000000000000000000000081526004016114c49061556c565b60405180910390fd5b60018160040160003373ffffffffffffffffffffffffffffffffffffffff1673ffffffffffffffffffffffffffffffffffffffff16815260200190815260200160002060006101000a81548160ff02191690831515021790555061157133670de0b6b3a764000060016040518060400160405280601b81526020017f4672656520746f6b656e20666f7220414d41207175657374696f6e000000000081525061290a565b5050565b60008273ffffffffffffffffffffffffffffffffffffffff168273ffffffffffffffffffffffffffffffffffffffff16036115f157600460008373ffffffffffffffffffffffffffffffffffffffff1673ffffffffffffffffffffffffffffffffffffffff168152602001908152602001600020549050611671565b600660008373ffffffffffffffffffffffffffffffffffffffff1673ffffffffffffffffffffffffffffffffffffffff16815260200190815260200160002060008473ffffffffffffffffffffffffffffffffffffffff1673ffffffffffffffffffffffffffffffffffffffff1681526020019081526020016000205490505b92915050565b60608282905067ffffffffffffffff81111561169657611695613b14565b5b6040519080825280602002602001820160405280156116c957816020015b60608152602001906001900390816116b45790505b50905060005b838390508110156117ec576000803073ffffffffffffffffffffffffffffffffffffffff1686868581811061170757611706614e8d565b5b9050602002810190611719919061559b565b6040516117279291906155fe565b600060405180830381855af49150503d8060008114611762576040519150601f19603f3d011682016040523d82523d6000602084013e611767565b606091505b5091509150816117c05760008151146117835780518082602001fd5b826040517fb774c2840000000000000000000000000000000000000000000000000000000081526004016117b79190613a65565b60405180910390fd5b808484815181106117d4576117d3614e8d565b5b602002602001018190525082600101925050506116cf565b5092915050565b6000600460008373ffffffffffffffffffffffffffffffffffffffff1673ffffffffffffffffffffffffffffffffffffffff168152602001908152602001600020549050919050565b6118446129d9565b61184e6000612a57565b565b8473ffffffffffffffffffffffffffffffffffffffff163373ffffffffffffffffffffffffffffffffffffffff161461188f5761188e338685612b1b565b5b61189c8585858585612c20565b5050505050565b8273ffffffffffffffffffffffffffffffffffffffff163373ffffffffffffffffffffffffffffffffffffffff161415801561190b57508373ffffffffffffffffffffffffffffffffffffffff163373ffffffffffffffffffffffffffffffffffffffff1614155b15611951573383856040517f98ce294500000000000000000000000000000000000000000000000000000000815260040161194893929190614ebc565b60405180910390fd5b600061195d8585611575565b905082811015611999576040517f0ef76c3500000000000000000000000000000000000000000000000000000000815260040160405180910390fd5b600083820390506119ae858783600187612490565b60008582856040516020016119c593929190614e4f565b60405160208183030381529060405290506119e08782612763565b50505050505050565b6119f16129d9565b60003414611a2b576040517ff36ba73700000000000000000000000000000000000000000000000000000000815260040160405180910390fd5b611a358282612d2e565b5050565b6000611a44826117f3565b9050919050565b60008060009054906101000a900473ffffffffffffffffffffffffffffffffffffffff16905090565b611a7c6129d9565b60003414611ab6576040517ff36ba73700000000000000000000000000000000000000000000000000000000815260040160405180910390fd5b611ac08282612e9f565b5050565b60008073ffffffffffffffffffffffffffffffffffffffff16600760008473ffffffffffffffffffffffffffffffffffffffff1673ffffffffffffffffffffffffffffffffffffffff16815260200190815260200160002060000160009054906101000a900473ffffffffffffffffffffffffffffffffffffffff1673ffffffffffffffffffffffffffffffffffffffff1614159050919050565b611b6d338484600185612490565b6000338383604051602001611b8493929190614e4f565b6040516020818303038152906040529050611b9f8482612763565b50505050565b600080600760008573ffffffffffffffffffffffffffffffffffffffff1673ffffffffffffffffffffffffffffffffffffffff1681526020019081526020016000209050600073ffffffffffffffffffffffffffffffffffffffff168160000160009054906101000a900473ffffffffffffffffffffffffffffffffffffffff1673ffffffffffffffffffffffffffffffffffffffff1603611c7c576040517f08c379a0000000000000000000000000000000000000000000000000000000008152600401611c7390615400565b60405180910390fd5b8060030160008473ffffffffffffffffffffffffffffffffffffffff1673ffffffffffffffffffffffffffffffffffffffff16815260200190815260200160002060009054906101000a900460ff1691505092915050565b60076020528060005260406000206000915090508060000160009054906101000a900473ffffffffffffffffffffffffffffffffffffffff16908060010154905082565b6060611d61600560008473ffffffffffffffffffffffffffffffffffffffff1673ffffffffffffffffffffffffffffffffffffffff168152602001908152602001600020612f6f565b9050919050565b6060815167ffffffffffffffff811115611d8557611d84613b14565b5b604051908082528060200260200182016040528015611db857816020015b6060815260200190600190039081611da35790505b50905060005b8251811015611e1357611dea838281518110611ddd57611ddc614e8d565b5b6020026020010151612865565b828281518110611dfd57611dfc614e8d565b5b6020026020010181905250806001019050611dbe565b50919050565b60606000600760008473ffffffffffffffffffffffffffffffffffffffff1673ffffffffffffffffffffffffffffffffffffffff1681526020019081526020016000209050600073ffffffffffffffffffffffffffffffffffffffff168160000160009054906101000a900473ffffffffffffffffffffffffffffffffffffffff1673ffffffffffffffffffffffffffffffffffffffff1603611ef1576040517f08c379a0000000000000000000000000000000000000000000000000000000008152600401611ee890615400565b60405180910390fd5b6000816001015467ffffffffffffffff811115611f1157611f10613b14565b5b604051908082528060200260200182016040528015611f4a57816020015b611f3761386f565b815260200190600190039081611f2f5790505b5090506000600190505b82600101548111612151578260020160008281526020019081526020016000206040518060800160405290816000820160009054906101000a900473ffffffffffffffffffffffffffffffffffffffff1673ffffffffffffffffffffffffffffffffffffffff1673ffffffffffffffffffffffffffffffffffffffff168152602001600182018054611fe59061507d565b80601f01602080910402602001604051908101604052809291908181526020018280546120119061507d565b801561205e5780601f106120335761010080835404028352916020019161205e565b820191906000526020600020905b81548152906001019060200180831161204157829003601f168201915b505050505081526020016002820180546120779061507d565b80601f01602080910402602001604051908101604052809291908181526020018280546120a39061507d565b80156120f05780601f106120c5576101008083540402835291602001916120f0565b820191906000526020600020905b8154815290600101906020018083116120d357829003601f168201915b505050505081526020016003820160009054906101000a900460ff161515151581525050826001836121229190615617565b8151811061213357612132614e8d565b5b60200260200101819052508080612149906154b2565b915050611f54565b508092505050919050565b6121646129d9565b600073ffffffffffffffffffffffffffffffffffffffff168173ffffffffffffffffffffffffffffffffffffffff16036121d3576040517f08c379a00000000000000000000000000000000000000000000000000000000081526004016121ca906156bd565b60405180910390fd5b6121dc81612a57565b50565b600080600760008573ffffffffffffffffffffffffffffffffffffffff1673ffffffffffffffffffffffffffffffffffffffff1681526020019081526020016000209050600073ffffffffffffffffffffffffffffffffffffffff168160000160009054906101000a900473ffffffffffffffffffffffffffffffffffffffff1673ffffffffffffffffffffffffffffffffffffffff16036122b6576040517f08c379a00000000000000000000000000000000000000000000000000000000081526004016122ad90615400565b60405180910390fd5b8060040160008473ffffffffffffffffffffffffffffffffffffffff1673ffffffffffffffffffffffffffffffffffffffff16815260200190815260200160002060009054906101000a900460ff1691505092915050565b600080600061234969cee78b4094da8601109660b01b857bffffffffffffffffffffffffffffffffffffffffffffffffffffffff1916612f90565b9050600061235682612865565b9050601481511415801561236c57506000815114155b156123ae57806040517f42bfe79f0000000000000000000000000000000000000000000000000000000081526004016123a591906143e5565b60405180910390fd5b806123b89061572e565b60601c6001935093505050915091565b600063a918fa6b60e01b7bffffffffffffffffffffffffffffffffffffffffffffffffffffffff1916827bffffffffffffffffffffffffffffffffffffffffffffffffffffffff19161480612422575061242182612fd0565b5b9050919050565b60008061243c6301ffc9a760e01b61230e565b509050600073ffffffffffffffffffffffffffffffffffffffff168173ffffffffffffffffffffffffffffffffffffffff160361247d57600091505061248b565b6124878184613031565b9150505b919050565b600073ffffffffffffffffffffffffffffffffffffffff168473ffffffffffffffffffffffffffffffffffffffff16036124f6576040517f6355e76600000000000000000000000000000000000000000000000000000000815260040160405180910390fd5b8473ffffffffffffffffffffffffffffffffffffffff168473ffffffffffffffffffffffffffffffffffffffff160361255b576040517fdab7504700000000000000000000000000000000000000000000000000000000815260040160405180910390fd5b82600660008773ffffffffffffffffffffffffffffffffffffffff1673ffffffffffffffffffffffffffffffffffffffff16815260200190815260200160002060008673ffffffffffffffffffffffffffffffffffffffff1673ffffffffffffffffffffffffffffffffffffffff16815260200190815260200160002081905550600083146126a15761263584600560008873ffffffffffffffffffffffffffffffffffffffff1673ffffffffffffffffffffffffffffffffffffffff1681526020019081526020016000206130f090919063ffffffff16565b50828573ffffffffffffffffffffffffffffffffffffffff168573ffffffffffffffffffffffffffffffffffffffff167ff772a43bfdf4729b196e3fb54a818b91a2ca6c49d10b2e16278752f9f515c25d8460405161269491906143e5565b60405180910390a461275c565b6126f284600560008873ffffffffffffffffffffffffffffffffffffffff1673ffffffffffffffffffffffffffffffffffffffff16815260200190815260200160002061312090919063ffffffff16565b508115158573ffffffffffffffffffffffffffffffffffffffff168573ffffffffffffffffffffffffffffffffffffffff167f0ebf5762d8855cbe012d2ca42fb33a81175e17c8a8751f8859931ba453bd41678460405161275391906143e5565b60405180910390a45b5050505050565b612791827f386072cc5a58e61263b434c722725f21031cd06e7c552cfaa06db5de8a320dbc60001b83613150565b5050565b600073ffffffffffffffffffffffffffffffffffffffff168373ffffffffffffffffffffffffffffffffffffffff16036127fb576040517fd2d5ec3000000000000000000000000000000000000000000000000000000000815260040160405180910390fd5b61280a8360008460008561320f565b61281983600084600085613216565b6128288360008460008561345b565b6000338460008585604051602001612844959493929190615795565b604051602081830303815290604052905061285f8482613462565b50505050565b60606001600083815260200190815260200160002080546128859061507d565b80601f01602080910402602001604051908101604052809291908181526020018280546128b19061507d565b80156128fe5780601f106128d3576101008083540402835291602001916128fe565b820191906000526020600020905b8154815290600101906020018083116128e157829003601f168201915b50505050509050919050565b600073ffffffffffffffffffffffffffffffffffffffff168473ffffffffffffffffffffffffffffffffffffffff1603612970576040517fd2d5ec3000000000000000000000000000000000000000000000000000000000815260040160405180910390fd5b61297e60008585858561320f565b61298c600085858585613216565b61299a60008585858561345b565b60003360008686856040516020016129b6959493929190615795565b60405160208183030381529060405290506129d2858483613494565b5050505050565b6129e16135fa565b73ffffffffffffffffffffffffffffffffffffffff166129ff611a4b565b73ffffffffffffffffffffffffffffffffffffffff1614612a55576040517f08c379a0000000000000000000000000000000000000000000000000000000008152600401612a4c9061583b565b60405180910390fd5b565b60008060009054906101000a900473ffffffffffffffffffffffffffffffffffffffff169050816000806101000a81548173ffffffffffffffffffffffffffffffffffffffff021916908373ffffffffffffffffffffffffffffffffffffffff1602179055508173ffffffffffffffffffffffffffffffffffffffff168173ffffffffffffffffffffffffffffffffffffffff167f8be0079c531659141344cd1fd0a4f28419497f9722a3daafe3b4186f6b6457e060405160405180910390a35050565b6000600660008473ffffffffffffffffffffffffffffffffffffffff1673ffffffffffffffffffffffffffffffffffffffff16815260200190815260200160002060008573ffffffffffffffffffffffffffffffffffffffff1673ffffffffffffffffffffffffffffffffffffffff1681526020019081526020016000205490506000811480612baa57508082115b15612bf257828185846040517ff3a6b691000000000000000000000000000000000000000000000000000000008152600401612be9949392919061585b565b60405180910390fd5b612c1a83858484612c039190615617565b600060405180602001604052806000815250612490565b50505050565b600073ffffffffffffffffffffffffffffffffffffffff168573ffffffffffffffffffffffffffffffffffffffff161480612c875750600073ffffffffffffffffffffffffffffffffffffffff168473ffffffffffffffffffffffffffffffffffffffff16145b15612cbe576040517fd2d5ec3000000000000000000000000000000000000000000000000000000000815260040160405180910390fd5b612ccb858585858561320f565b612cd88585858585613216565b612ce5858585858561345b565b60003386868685604051602001612d00959493929190615795565b6040516020818303038152906040529050612d1b8682613462565b612d26858483613494565b505050505050565b7fdeba1e292f8ba88238e10ab3c7f88bd4be4fac56cad5194b6ecceaf653468af160001b8203612d8a576040517f85c169bd00000000000000000000000000000000000000000000000000000000815260040160405180910390fd5b7f2f0a68ab07768e01943a599e73362a0e17a63a72e94dd2e384d2c1d4db93275660001b8203612de6576040517f76755b3800000000000000000000000000000000000000000000000000000000815260040160405180910390fd5b7fe0261fa95db2eb3b5439bd033cda66d56b96f92f243a8228fd87550ed7bdfdb360001b8203612e42576040517f4ef6d7fb00000000000000000000000000000000000000000000000000000000815260040160405180910390fd5b80600160008481526020019081526020016000209081612e6291906158fb565b50817fece574603820d07bc9b91f2a932baadf4628aabcb8afba49776529c14a6104b282604051612e9391906143e5565b60405180910390a25050565b8051825114612eda576040517f3bcc897900000000000000000000000000000000000000000000000000000000815260040160405180910390fd5b6000825103612f15576040517f97da5f9500000000000000000000000000000000000000000000000000000000815260040160405180910390fd5b60005b8251811015612f6a57612f5f838281518110612f3757612f36614e8d565b5b6020026020010151838381518110612f5257612f51614e8d565b5b6020026020010151612d2e565b806001019050612f18565b505050565b60606000612f7f83600001613602565b905060608190508092505050919050565b60008083600060f01b84604051602001612fac93929190615a88565b604051602081830303815290604052905080612fc790615ada565b91505092915050565b600063629aa69460e01b7bffffffffffffffffffffffffffffffffffffffffffffffffffffffff1916827bffffffffffffffffffffffffffffffffffffffffffffffffffffffff1916148061302a57506130298261365e565b5b9050919050565b6000806301ffc9a760e01b8360405160240161304d9190614c38565b604051602081830303815290604052907bffffffffffffffffffffffffffffffffffffffffffffffffffffffff19166020820180517bffffffffffffffffffffffffffffffffffffffffffffffffffffffff838183161783525050505090506000806000602060008551602087018a617530fa92503d915060005190508280156130d8575060208210155b80156130e45750600081115b94505050505092915050565b6000613118836000018373ffffffffffffffffffffffffffffffffffffffff1660001b6136c8565b905092915050565b6000613148836000018373ffffffffffffffffffffffffffffffffffffffff1660001b613738565b905092915050565b613180636bb56a1460e01b8473ffffffffffffffffffffffffffffffffffffffff1661303190919063ffffffff16565b1561320a578273ffffffffffffffffffffffffffffffffffffffff16636bb56a1483836040518363ffffffff1660e01b81526004016131c0929190615b50565b6000604051808303816000875af11580156131df573d6000803e3d6000fd5b505050506040513d6000823e3d601f19601f820116820180604052508101906132089190615bf0565b505b505050565b5050505050565b600073ffffffffffffffffffffffffffffffffffffffff168573ffffffffffffffffffffffffffffffffffffffff160361326857826003600082825461325c9190614e1b565b9250508190555061333d565b6000600460008773ffffffffffffffffffffffffffffffffffffffff1673ffffffffffffffffffffffffffffffffffffffff168152602001908152602001600020549050838110156132f5578086856040517f08d479490000000000000000000000000000000000000000000000000000000081526004016132ec93929190615c39565b60405180910390fd5b838103600460008873ffffffffffffffffffffffffffffffffffffffff1673ffffffffffffffffffffffffffffffffffffffff16815260200190815260200160002081905550505b600073ffffffffffffffffffffffffffffffffffffffff168473ffffffffffffffffffffffffffffffffffffffff160361338657826003600082825403925050819055506133d4565b82600460008673ffffffffffffffffffffffffffffffffffffffff1673ffffffffffffffffffffffffffffffffffffffff168152602001908152602001600020600082825401925050819055505b8373ffffffffffffffffffffffffffffffffffffffff168573ffffffffffffffffffffffffffffffffffffffff163373ffffffffffffffffffffffffffffffffffffffff167f3997e418d2cef0b3b0e907b1e39605c3f7d32dbd061e82ea5b4a770d46a160a686868660405161344c93929190615c70565b60405180910390a45050505050565b5050505050565b613490827f429ac7a06903dbc9c13dfcb3c9d11df8194581fa047c96d7a4171fc7402958ea60001b83613150565b5050565b6134a583636bb56a1460e01b613031565b15613556578273ffffffffffffffffffffffffffffffffffffffff16636bb56a147f20804611b3e2ea21c480dc465142210acf4a2485947541770ec1fb87dee4a55c60001b836040518363ffffffff1660e01b8152600401613508929190615b50565b6000604051808303816000875af1158015613527573d6000803e3d6000fd5b505050506040513d6000823e3d601f19601f820116820180604052508101906135509190615bf0565b506135f5565b816135f45760008373ffffffffffffffffffffffffffffffffffffffff163b146135b757826040517fa608fbb60000000000000000000000000000000000000000000000000000000081526004016135ae91906147cf565b60405180910390fd5b826040517f26c247f40000000000000000000000000000000000000000000000000000000081526004016135eb91906147cf565b60405180910390fd5b5b505050565b600033905090565b60608160000180548060200260200160405190810160405280929190818152602001828054801561365257602002820191906000526020600020905b81548152602001906001019080831161363e575b50505050509050919050565b60007f01ffc9a7000000000000000000000000000000000000000000000000000000007bffffffffffffffffffffffffffffffffffffffffffffffffffffffff1916827bffffffffffffffffffffffffffffffffffffffffffffffffffffffff1916149050919050565b60006136d4838361384c565b61372d578260000182908060018154018082558091505060019003906000526020600020016000909190919091505582600001805490508360010160008481526020019081526020016000208190555060019050613732565b600090505b92915050565b6000808360010160008481526020019081526020016000205490506000811461384057600060018261376a9190615617565b90506000600186600001805490506137829190615617565b90508181146137f15760008660000182815481106137a3576137a2614e8d565b5b90600052602060002001549050808760000184815481106137c7576137c6614e8d565b5b90600052602060002001819055508387600101600083815260200190815260200160002081905550505b8560000180548061380557613804615cae565b5b600190038181906000526020600020016000905590558560010160008681526020019081526020016000206000905560019350505050613846565b60009150505b92915050565b600080836001016000848152602001908152602001600020541415905092915050565b6040518060800160405280600073ffffffffffffffffffffffffffffffffffffffff16815260200160608152602001606081526020016000151581525090565b600082825260208201905092915050565b60008082015250565b60006138d66004836138af565b91506138e1826138c0565b602082019050919050565b60006020820190508181036000830152613905816138c9565b9050919050565b82818337600083830152505050565b6000601f19601f8301169050919050565b600061393883856138af565b935061394583858461390c565b61394e8361391b565b840190509392505050565b6000602082019050818103600083015261397481848661392c565b90509392505050565b6000604051905090565b600080fd5b600080fd5b60007fffffffff0000000000000000000000000000000000000000000000000000000082169050919050565b6139c681613991565b81146139d157600080fd5b50565b6000813590506139e3816139bd565b92915050565b6000602082840312156139ff576139fe613987565b5b6000613a0d848285016139d4565b91505092915050565b60008115159050919050565b613a2b81613a16565b82525050565b6000602082019050613a466000830184613a22565b92915050565b6000819050919050565b613a5f81613a4c565b82525050565b6000602082019050613a7a6000830184613a56565b92915050565b600073ffffffffffffffffffffffffffffffffffffffff82169050919050565b6000613aab82613a80565b9050919050565b613abb81613aa0565b8114613ac657600080fd5b50565b600081359050613ad881613ab2565b92915050565b613ae781613a4c565b8114613af257600080fd5b50565b600081359050613b0481613ade565b92915050565b600080fd5b600080fd5b7f4e487b7100000000000000000000000000000000000000000000000000000000600052604160045260246000fd5b613b4c8261391b565b810181811067ffffffffffffffff82111715613b6b57613b6a613b14565b5b80604052505050565b6000613b7e61397d565b9050613b8a8282613b43565b919050565b600067ffffffffffffffff821115613baa57613ba9613b14565b5b613bb38261391b565b9050602081019050919050565b6000613bd3613bce84613b8f565b613b74565b905082815260208101848484011115613bef57613bee613b0f565b5b613bfa84828561390c565b509392505050565b600082601f830112613c1757613c16613b0a565b5b8135613c27848260208601613bc0565b91505092915050565b600080600060608486031215613c4957613c48613987565b5b6000613c5786828701613ac9565b9350506020613c6886828701613af5565b925050604084013567ffffffffffffffff811115613c8957613c8861398c565b5b613c9586828701613c02565b9150509250925092565b600067ffffffffffffffff821115613cba57613cb9613b14565b5b602082029050602081019050919050565b600080fd5b6000613ce3613cde84613c9f565b613b74565b90508083825260208201905060208402830185811115613d0657613d05613ccb565b5b835b81811015613d2f5780613d1b8882613ac9565b845260208401935050602081019050613d08565b5050509392505050565b600082601f830112613d4e57613d4d613b0a565b5b8135613d5e848260208601613cd0565b91505092915050565b600067ffffffffffffffff821115613d8257613d81613b14565b5b602082029050602081019050919050565b6000613da6613da184613d67565b613b74565b90508083825260208201905060208402830185811115613dc957613dc8613ccb565b5b835b81811015613df25780613dde8882613af5565b845260208401935050602081019050613dcb565b5050509392505050565b600082601f830112613e1157613e10613b0a565b5b8135613e21848260208601613d93565b91505092915050565b600067ffffffffffffffff821115613e4557613e44613b14565b5b602082029050602081019050919050565b613e5f81613a16565b8114613e6a57600080fd5b50565b600081359050613e7c81613e56565b92915050565b6000613e95613e9084613e2a565b613b74565b90508083825260208201905060208402830185811115613eb857613eb7613ccb565b5b835b81811015613ee15780613ecd8882613e6d565b845260208401935050602081019050613eba565b5050509392505050565b600082601f830112613f0057613eff613b0a565b5b8135613f10848260208601613e82565b91505092915050565b600067ffffffffffffffff821115613f3457613f33613b14565b5b602082029050602081019050919050565b6000613f58613f5384613f19565b613b74565b90508083825260208201905060208402830185811115613f7b57613f7a613ccb565b5b835b81811015613fc257803567ffffffffffffffff811115613fa057613f9f613b0a565b5b808601613fad8982613c02565b85526020850194505050602081019050613f7d565b5050509392505050565b600082601f830112613fe157613fe0613b0a565b5b8135613ff1848260208601613f45565b91505092915050565b600080600080600060a0868803121561401657614015613987565b5b600086013567ffffffffffffffff8111156140345761403361398c565b5b61404088828901613d39565b955050602086013567ffffffffffffffff8111156140615761406061398c565b5b61406d88828901613d39565b945050604086013567ffffffffffffffff81111561408e5761408d61398c565b5b61409a88828901613dfc565b935050606086013567ffffffffffffffff8111156140bb576140ba61398c565b5b6140c788828901613eeb565b925050608086013567ffffffffffffffff8111156140e8576140e761398c565b5b6140f488828901613fcc565b9150509295509295909350565b6000806000806080858703121561411b5761411a613987565b5b600061412987828801613ac9565b945050602061413a87828801613ac9565b935050604061414b87828801613e6d565b925050606085013567ffffffffffffffff81111561416c5761416b61398c565b5b61417887828801613c02565b91505092959194509250565b600060ff82169050919050565b61419a81614184565b82525050565b60006020820190506141b56000830184614191565b92915050565b600067ffffffffffffffff8211156141d6576141d5613b14565b5b6141df8261391b565b9050602081019050919050565b60006141ff6141fa846141bb565b613b74565b90508281526020810184848401111561421b5761421a613b0f565b5b61422684828561390c565b509392505050565b600082601f83011261424357614242613b0a565b5b81356142538482602086016141ec565b91505092915050565b6000806040838503121561427357614272613987565b5b600061428185828601613af5565b925050602083013567ffffffffffffffff8111156142a2576142a161398c565b5b6142ae8582860161422e565b9150509250929050565b600080604083850312156142cf576142ce613987565b5b60006142dd85828601613ac9565b925050602083013567ffffffffffffffff8111156142fe576142fd61398c565b5b61430a8582860161422e565b9150509250929050565b6000819050919050565b61432781614314565b811461433257600080fd5b50565b6000813590506143448161431e565b92915050565b6000602082840312156143605761435f613987565b5b600061436e84828501614335565b91505092915050565b600081519050919050565b60005b838110156143a0578082015181840152602081019050614385565b60008484015250505050565b60006143b782614377565b6143c181856138af565b93506143d1818560208601614382565b6143da8161391b565b840191505092915050565b600060208201905081810360008301526143ff81846143ac565b905092915050565b60006020828403121561441d5761441c613987565b5b600061442b84828501613ac9565b91505092915050565b6000806040838503121561444b5761444a613987565b5b600061445985828601613ac9565b925050602061446a85828601613ac9565b9150509250929050565b600080fd5b60008083601f84011261448f5761448e613b0a565b5b8235905067ffffffffffffffff8111156144ac576144ab614474565b5b6020830191508360208202830111156144c8576144c7613ccb565b5b9250929050565b600080602083850312156144e6576144e5613987565b5b600083013567ffffffffffffffff8111156145045761450361398c565b5b61451085828601614479565b92509250509250929050565b600081519050919050565b600082825260208201905092915050565b6000819050602082019050919050565b600082825260208201905092915050565b600061456482614377565b61456e8185614548565b935061457e818560208601614382565b6145878161391b565b840191505092915050565b600061459e8383614559565b905092915050565b6000602082019050919050565b60006145be8261451c565b6145c88185614527565b9350836020820285016145da85614538565b8060005b8581101561461657848403895281516145f78582614592565b9450614602836145a6565b925060208a019950506001810190506145de565b50829750879550505050505092915050565b6000602082019050818103600083015261464281846145b3565b905092915050565b600080600080600060a0868803121561466657614665613987565b5b600061467488828901613ac9565b955050602061468588828901613ac9565b945050604061469688828901613af5565b93505060606146a788828901613e6d565b925050608086013567ffffffffffffffff8111156146c8576146c761398c565b5b6146d488828901613c02565b9150509295509295909350565b600080600080608085870312156146fb576146fa613987565b5b600061470987828801613ac9565b945050602061471a87828801613ac9565b935050604061472b87828801613af5565b925050606085013567ffffffffffffffff81111561474c5761474b61398c565b5b61475887828801613c02565b91505092959194509250565b6000806040838503121561477b5761477a613987565b5b600061478985828601614335565b925050602083013567ffffffffffffffff8111156147aa576147a961398c565b5b6147b685828601613c02565b9150509250929050565b6147c981613aa0565b82525050565b60006020820190506147e460008301846147c0565b92915050565b600067ffffffffffffffff82111561480557614804613b14565b5b602082029050602081019050919050565b6000614829614824846147ea565b613b74565b9050808382526020820190506020840283018581111561484c5761484b613ccb565b5b835b8181101561487557806148618882614335565b84526020840193505060208101905061484e565b5050509392505050565b600082601f83011261489457614893613b0a565b5b81356148a4848260208601614816565b91505092915050565b600080604083850312156148c4576148c3613987565b5b600083013567ffffffffffffffff8111156148e2576148e161398c565b5b6148ee8582860161487f565b925050602083013567ffffffffffffffff81111561490f5761490e61398c565b5b61491b85828601613fcc565b9150509250929050565b600060408201905061493a60008301856147c0565b6149476020830184613a56565b9392505050565b600081519050919050565b600082825260208201905092915050565b6000819050602082019050919050565b61498381613aa0565b82525050565b6000614995838361497a565b60208301905092915050565b6000602082019050919050565b60006149b98261494e565b6149c38185614959565b93506149ce8361496a565b8060005b838110156149ff5781516149e68882614989565b97506149f1836149a1565b9250506001810190506149d2565b5085935050505092915050565b60006020820190508181036000830152614a2681846149ae565b905092915050565b600060208284031215614a4457614a43613987565b5b600082013567ffffffffffffffff811115614a6257614a6161398c565b5b614a6e8482850161487f565b91505092915050565b600081519050919050565b600082825260208201905092915050565b6000819050602082019050919050565b600081519050919050565b600082825260208201905092915050565b6000614aca82614aa3565b614ad48185614aae565b9350614ae4818560208601614382565b614aed8161391b565b840191505092915050565b614b0181613a16565b82525050565b6000608083016000830151614b1f600086018261497a565b5060208301518482036020860152614b378282614abf565b91505060408301518482036040860152614b518282614abf565b9150506060830151614b666060860182614af8565b508091505092915050565b6000614b7d8383614b07565b905092915050565b6000602082019050919050565b6000614b9d82614a77565b614ba78185614a82565b935083602082028501614bb985614a93565b8060005b85811015614bf55784840389528151614bd68582614b71565b9450614be183614b85565b925060208a01995050600181019050614bbd565b50829750879550505050505092915050565b60006020820190508181036000830152614c218184614b92565b905092915050565b614c3281613991565b82525050565b6000602082019050614c4d6000830184614c29565b92915050565b600081905092915050565b6000614c6a8385614c53565b9350614c7783858461390c565b82840190509392505050565b60008160601b9050919050565b6000614c9b82614c83565b9050919050565b6000614cad82614c90565b9050919050565b614cc5614cc082613aa0565b614ca2565b82525050565b6000819050919050565b614ce6614ce182613a4c565b614ccb565b82525050565b6000614cf9828688614c5e565b9150614d058285614cb4565b601482019150614d158284614cd5565b60208201915081905095945050505050565b6000614d3282614377565b614d3c8185614c53565b9350614d4c818560208601614382565b80840191505092915050565b6000614d648284614d27565b915081905092915050565b600082825260208201905092915050565b7f50726f66696c6520616c72656164792065786973747300000000000000000000600082015250565b6000614db6601683614d6f565b9150614dc182614d80565b602082019050919050565b60006020820190508181036000830152614de581614da9565b9050919050565b7f4e487b7100000000000000000000000000000000000000000000000000000000600052601160045260246000fd5b6000614e2682613a4c565b9150614e3183613a4c565b9250828201905080821115614e4957614e48614dec565b5b92915050565b6000606082019050614e6460008301866147c0565b614e716020830185613a56565b8181036040830152614e8381846143ac565b9050949350505050565b7f4e487b7100000000000000000000000000000000000000000000000000000000600052603260045260246000fd5b6000606082019050614ed160008301866147c0565b614ede60208301856147c0565b614eeb60408301846147c0565b949350505050565b6000819050919050565b6000819050919050565b6000614f22614f1d614f1884614ef3565b614efd565b614184565b9050919050565b614f3281614f07565b82525050565b6000606082019050614f4d60008301866147c0565b614f5a6020830185614f29565b8181036040830152614f6c81846143ac565b9050949350505050565b7f4f6e6c792070726f66696c65206f776e65722063616e20616e73776572000000600082015250565b6000614fac601d83614d6f565b9150614fb782614f76565b602082019050919050565b60006020820190508181036000830152614fdb81614f9f565b9050919050565b7f496e76616c6964207175657374696f6e20494400000000000000000000000000600082015250565b6000615018601383614d6f565b915061502382614fe2565b602082019050919050565b600060208201905081810360008301526150478161500b565b9050919050565b7f4e487b7100000000000000000000000000000000000000000000000000000000600052602260045260246000fd5b6000600282049050600182168061509557607f821691505b6020821081036150a8576150a761504e565b5b50919050565b60008190508160005260206000209050919050565b60006020601f8301049050919050565b600082821b905092915050565b6000600883026151107fffffffffffffffffffffffffffffffffffffffffffffffffffffffffffffffff826150d3565b61511a86836150d3565b95508019841693508086168417925050509392505050565b600061514d61514861514384613a4c565b614efd565b613a4c565b9050919050565b6000819050919050565b61516783615132565b61517b61517382615154565b8484546150e0565b825550505050565b600090565b615190615183565b61519b81848461515e565b505050565b5b818110156151bf576151b4600082615188565b6001810190506151a1565b5050565b601f821115615204576151d5816150ae565b6151de846150c3565b810160208510156151ed578190505b6152016151f9856150c3565b8301826151a0565b50505b505050565b600082821c905092915050565b600061522760001984600802615209565b1980831691505092915050565b60006152408383615216565b9150826002028217905092915050565b61525982614aa3565b67ffffffffffffffff81111561527257615271613b14565b5b61527c825461507d565b6152878282856151c3565b600060209050601f8311600181146152ba57600084156152a8578287015190505b6152b28582615234565b86555061531a565b601f1984166152c8866150ae565b60005b828110156152f0578489015182556001820191506020850194506020810190506152cb565b8683101561530d5784890151615309601f891682615216565b8355505b6001600288020188555050505b505050505050565b7f596f75206e65656420616e2046515420746f207375626d69742061207175657360008201527f74696f6e00000000000000000000000000000000000000000000000000000000602082015250565b600061537e602483614d6f565b915061538982615322565b604082019050919050565b600060208201905081810360008301526153ad81615371565b9050919050565b7f50726f66696c6520646f6573206e6f7420657869737400000000000000000000600082015250565b60006153ea601683614d6f565b91506153f5826153b4565b602082019050919050565b60006020820190508181036000830152615419816153dd565b9050919050565b7f596f75206861766520616c72656164792061736b65642061207175657374696f60008201527f6e20666f7220746869732070726f66696c650000000000000000000000000000602082015250565b600061547c603283614d6f565b915061548782615420565b604082019050919050565b600060208201905081810360008301526154ab8161546f565b9050919050565b60006154bd82613a4c565b91507fffffffffffffffffffffffffffffffffffffffffffffffffffffffffffffffff82036154ef576154ee614dec565b5b600182019050919050565b7f596f75206861766520616c726561647920636c61696d6564206120746f6b656e60008201527f2066726f6d20746869732070726f66696c650000000000000000000000000000602082015250565b6000615556603283614d6f565b9150615561826154fa565b604082019050919050565b6000602082019050818103600083015261558581615549565b9050919050565b600080fd5b600080fd5b600080fd5b600080833560016020038436030381126155b8576155b761558c565b5b80840192508235915067ffffffffffffffff8211156155da576155d9615591565b5b6020830192506001820236038313156155f6576155f5615596565b5b509250929050565b600061560b828486614c5e565b91508190509392505050565b600061562282613a4c565b915061562d83613a4c565b925082820390508181111561564557615644614dec565b5b92915050565b7f4f776e61626c653a206e6577206f776e657220697320746865207a65726f206160008201527f6464726573730000000000000000000000000000000000000000000000000000602082015250565b60006156a7602683614d6f565b91506156b28261564b565b604082019050919050565b600060208201905081810360008301526156d68161569a565b9050919050565b6000819050602082019050919050565b60007fffffffffffffffffffffffffffffffffffffffff00000000000000000000000082169050919050565b600061572582516156ed565b80915050919050565b600061573982614377565b82615743846156dd565b905061574e81615719565b9250601482101561578e576157897fffffffffffffffffffffffffffffffffffffffff000000000000000000000000836014036008026150d3565b831692505b5050919050565b600060a0820190506157aa60008301886147c0565b6157b760208301876147c0565b6157c460408301866147c0565b6157d16060830185613a56565b81810360808301526157e381846143ac565b90509695505050505050565b7f4f776e61626c653a2063616c6c6572206973206e6f7420746865206f776e6572600082015250565b6000615825602083614d6f565b9150615830826157ef565b602082019050919050565b6000602082019050818103600083015261585481615818565b9050919050565b600060808201905061587060008301876147c0565b61587d6020830186613a56565b61588a60408301856147c0565b6158976060830184613a56565b95945050505050565b60008190508160005260206000209050919050565b601f8211156158f6576158c7816158a0565b6158d0846150c3565b810160208510156158df578190505b6158f36158eb856150c3565b8301826151a0565b50505b505050565b61590482614377565b67ffffffffffffffff81111561591d5761591c613b14565b5b615927825461507d565b6159328282856158b5565b600060209050601f8311600181146159655760008415615953578287015190505b61595d8582615234565b8655506159c5565b601f198416615973866158a0565b60005b8281101561599b57848901518255600182019150602085019450602081019050615976565b868310156159b857848901516159b4601f891682615216565b8355505b6001600288020188555050505b505050505050565b60007fffffffffffffffffffff0000000000000000000000000000000000000000000082169050919050565b6000819050919050565b615a14615a0f826159cd565b6159f9565b82525050565b60007fffff00000000000000000000000000000000000000000000000000000000000082169050919050565b6000819050919050565b615a61615a5c82615a1a565b615a46565b82525050565b6000819050919050565b615a82615a7d826156ed565b615a67565b82525050565b6000615a948286615a03565b600a82019150615aa48285615a50565b600282019150615ab48284615a71565b601482019150819050949350505050565b6000615ad18251614314565b80915050919050565b6000615ae582614377565b82615aef846156dd565b9050615afa81615ac5565b92506020821015615b3a57615b357fffffffffffffffffffffffffffffffffffffffffffffffffffffffffffffffff836020036008026150d3565b831692505b5050919050565b615b4a81614314565b82525050565b6000604082019050615b656000830185615b41565b8181036020830152615b7781846143ac565b90509392505050565b6000615b93615b8e84613b8f565b613b74565b905082815260208101848484011115615baf57615bae613b0f565b5b615bba848285614382565b509392505050565b600082601f830112615bd757615bd6613b0a565b5b8151615be7848260208601615b80565b91505092915050565b600060208284031215615c0657615c05613987565b5b600082015167ffffffffffffffff811115615c2457615c2361398c565b5b615c3084828501615bc2565b91505092915050565b6000606082019050615c4e6000830186613a56565b615c5b60208301856147c0565b615c686040830184613a56565b949350505050565b6000606082019050615c856000830186613a56565b615c926020830185613a22565b8181036040830152615ca481846143ac565b9050949350505050565b7f4e487b7100000000000000000000000000000000000000000000000000000000600052603160045260246000fdfea264697066735822122018c51c686579725a99fa24ac1cbbe746fc6d6df3ee6db735d94038ceafcb184264736f6c63430008130033",
  "linkReferences": {},
  "deployedLinkReferences": {}
}