{
  "_format": "hh-sol-artifact-1",
  "contractName": "LYXRoyale",
  "sourceName": "contracts/battleroyale.sol",
  "abi": [
    {
      "inputs": [],
      "stateMutability": "nonpayable",
      "type": "constructor"
    },
    {
      "anonymous": false,
      "inputs": [
        {
          "indexed": false,
          "internalType": "uint256",
          "name": "newReserve",
          "type": "uint256"
        }
      ],
      "name": "ContractReserveUpdated",
      "type": "event"
    },
    {
      "anonymous": false,
      "inputs": [
        {
          "indexed": true,
          "internalType": "uint256",
          "name": "tournamentId",
          "type": "uint256"
        },
        {
          "indexed": true,
          "internalType": "uint256",
          "name": "tournamentPrizePool",
          "type": "uint256"
        },
        {
          "indexed": false,
          "internalType": "uint256",
          "name": "newEndTime",
          "type": "uint256"
        }
      ],
      "name": "ParticipantJoined",
      "type": "event"
    },
    {
      "anonymous": false,
      "inputs": [
        {
          "indexed": true,
          "internalType": "address",
          "name": "owner",
          "type": "address"
        },
        {
          "indexed": false,
          "internalType": "uint256",
          "name": "amount",
          "type": "uint256"
        }
      ],
      "name": "ReserveWithdrawn",
      "type": "event"
    },
    {
      "anonymous": false,
      "inputs": [
        {
          "indexed": true,
          "internalType": "uint256",
          "name": "tournamentId",
          "type": "uint256"
        },
        {
          "indexed": true,
          "internalType": "address",
          "name": "creator",
          "type": "address"
        },
        {
          "indexed": false,
          "internalType": "uint256",
          "name": "entryFee",
          "type": "uint256"
        },
        {
          "indexed": false,
          "internalType": "uint256",
          "name": "endTime",
          "type": "uint256"
        }
      ],
      "name": "TournamentCreated",
      "type": "event"
    },
    {
      "anonymous": false,
      "inputs": [
        {
          "indexed": true,
          "internalType": "uint256",
          "name": "tournamentId",
          "type": "uint256"
        },
        {
          "indexed": true,
          "internalType": "address",
          "name": "winner",
          "type": "address"
        },
        {
          "indexed": false,
          "internalType": "uint256",
          "name": "prizeAmount",
          "type": "uint256"
        }
      ],
      "name": "TournamentFinalized",
      "type": "event"
    },
    {
      "inputs": [
        {
          "internalType": "address",
          "name": "",
          "type": "address"
        }
      ],
      "name": "activeTournaments",
      "outputs": [
        {
          "internalType": "uint256",
          "name": "",
          "type": "uint256"
        }
      ],
      "stateMutability": "view",
      "type": "function"
    },
    {
      "inputs": [],
      "name": "contractReserve",
      "outputs": [
        {
          "internalType": "uint256",
          "name": "",
          "type": "uint256"
        }
      ],
      "stateMutability": "view",
      "type": "function"
    },
    {
      "inputs": [
        {
          "internalType": "uint256",
          "name": "_entryFee",
          "type": "uint256"
        },
        {
          "internalType": "uint256",
          "name": "_duration",
          "type": "uint256"
        }
      ],
      "name": "createTournament",
      "outputs": [],
      "stateMutability": "nonpayable",
      "type": "function"
    },
    {
      "inputs": [
        {
          "internalType": "uint256",
          "name": "tournamentId",
          "type": "uint256"
        }
      ],
      "name": "finalizeTournament",
      "outputs": [],
      "stateMutability": "nonpayable",
      "type": "function"
    },
    {
      "inputs": [
        {
          "internalType": "uint256",
          "name": "topN",
          "type": "uint256"
        }
      ],
      "name": "getLeaderboard",
      "outputs": [
        {
          "internalType": "address[]",
          "name": "",
          "type": "address[]"
        },
        {
          "internalType": "uint256[]",
          "name": "",
          "type": "uint256[]"
        }
      ],
      "stateMutability": "view",
      "type": "function"
    },
    {
      "inputs": [
        {
          "internalType": "uint256",
          "name": "tournamentId",
          "type": "uint256"
        }
      ],
      "name": "joinTournament",
      "outputs": [],
      "stateMutability": "payable",
      "type": "function"
    },
    {
      "inputs": [
        {
          "internalType": "address",
          "name": "",
          "type": "address"
        }
      ],
      "name": "leaderboard",
      "outputs": [
        {
          "internalType": "uint256",
          "name": "",
          "type": "uint256"
        }
      ],
      "stateMutability": "view",
      "type": "function"
    },
    {
      "inputs": [],
      "name": "owner",
      "outputs": [
        {
          "internalType": "address",
          "name": "",
          "type": "address"
        }
      ],
      "stateMutability": "view",
      "type": "function"
    },
    {
      "inputs": [],
      "name": "tournamentCount",
      "outputs": [
        {
          "internalType": "uint256",
          "name": "",
          "type": "uint256"
        }
      ],
      "stateMutability": "view",
      "type": "function"
    },
    {
      "inputs": [
        {
          "internalType": "uint256",
          "name": "",
          "type": "uint256"
        }
      ],
      "name": "tournaments",
      "outputs": [
        {
          "internalType": "uint256",
          "name": "id",
          "type": "uint256"
        },
        {
          "internalType": "address",
          "name": "creator",
          "type": "address"
        },
        {
          "internalType": "uint256",
          "name": "entryFee",
          "type": "uint256"
        },
        {
          "internalType": "uint256",
          "name": "prizePool",
          "type": "uint256"
        },
        {
          "internalType": "uint256",
          "name": "endTime",
          "type": "uint256"
        },
        {
          "internalType": "bool",
          "name": "active",
          "type": "bool"
        },
        {
          "internalType": "address",
          "name": "winner",
          "type": "address"
        }
      ],
      "stateMutability": "view",
      "type": "function"
    },
    {
      "inputs": [],
      "name": "withdrawReserve",
      "outputs": [],
      "stateMutability": "nonpayable",
      "type": "function"
    },
    {
      "stateMutability": "payable",
      "type": "receive"
    }
  ],
  "bytecode": "0x608060405234801561001057600080fd5b5033600460006101000a81548173ffffffffffffffffffffffffffffffffffffffff021916908373ffffffffffffffffffffffffffffffffffffffff160217905550612507806100616000396000f3fe6080604052600436106100a05760003560e01c8063a34b46fe11610064578063a34b46fe146101ab578063ace1fab1146101e9578063d115cac614610200578063d1d33d201461021c578063d1e8a36514610259578063fd42630214610282576100a7565b80631ba619a4146100ac5780636e2b2c7c146100d55780637503e1b7146101005780638da5cb5b1461014357806391b057361461016e576100a7565b366100a757005b600080fd5b3480156100b857600080fd5b506100d360048036038101906100ce9190611834565b6102ad565b005b3480156100e157600080fd5b506100ea61091d565b6040516100f79190611870565b60405180910390f35b34801561010c57600080fd5b5061012760048036038101906101229190611834565b610923565b60405161013a97969594939291906118e7565b60405180910390f35b34801561014f57600080fd5b506101586109b2565b6040516101659190611956565b60405180910390f35b34801561017a57600080fd5b506101956004803603810190610190919061199d565b6109d8565b6040516101a29190611870565b60405180910390f35b3480156101b757600080fd5b506101d260048036038101906101cd9190611834565b6109f0565b6040516101e0929190611b46565b60405180910390f35b3480156101f557600080fd5b506101fe610f7d565b005b61021a60048036038101906102159190611834565b6111dc565b005b34801561022857600080fd5b50610243600480360381019061023e919061199d565b61142d565b6040516102509190611870565b60405180910390f35b34801561026557600080fd5b50610280600480360381019061027b9190611b7d565b611445565b005b34801561028e57600080fd5b5061029761174c565b6040516102a49190611870565b60405180910390f35b600080600083815260200190815260200160002090508060010160009054906101000a900473ffffffffffffffffffffffffffffffffffffffff1673ffffffffffffffffffffffffffffffffffffffff163373ffffffffffffffffffffffffffffffffffffffff1614610355576040517f08c379a000000000000000000000000000000000000000000000000000000000815260040161034c90611c1a565b60405180910390fd5b806004015442101561039c576040517f08c379a000000000000000000000000000000000000000000000000000000000815260040161039390611c86565b60405180910390fd5b8060050160009054906101000a900460ff166103ed576040517f08c379a00000000000000000000000000000000000000000000000000000000081526004016103e490611cf2565b60405180910390fd5b600081600601805490500361051d5760008160050160016101000a81548173ffffffffffffffffffffffffffffffffffffffff021916908373ffffffffffffffffffffffffffffffffffffffff16021790555060008160050160006101000a81548160ff0219169083151502179055506000600260008360010160009054906101000a900473ffffffffffffffffffffffffffffffffffffffff1673ffffffffffffffffffffffffffffffffffffffff1673ffffffffffffffffffffffffffffffffffffffff16815260200190815260200160002081905550600073ffffffffffffffffffffffffffffffffffffffff16827fcd5519d1592919f2c62aab2d2cf839d435a03371a12798d4d35542f466d2730c600060405161050f9190611d57565b60405180910390a35061091a565b600081600601600183600601805490506105379190611da1565b8154811061054857610547611dd5565b5b9060005260206000200160009054906101000a900473ffffffffffffffffffffffffffffffffffffffff169050600060646001846003015461058a9190611e04565b6105949190611e75565b905060006064600a85600301546105ab9190611e04565b6105b59190611e75565b90506000818386600301546105ca9190611da1565b6105d49190611da1565b905082600360008282546105e89190611ea6565b925050819055507f49df4dfe3097401a1d2fa2aeb4bf63a37ef725d5efa0340b157299bb8d4b76916003546040516106209190611870565b60405180910390a1838560050160016101000a81548173ffffffffffffffffffffffffffffffffffffffff021916908373ffffffffffffffffffffffffffffffffffffffff16021790555060008560050160006101000a81548160ff02191690831515021790555080600160008673ffffffffffffffffffffffffffffffffffffffff1673ffffffffffffffffffffffffffffffffffffffff16815260200190815260200160002060008282546106d79190611ea6565b925050819055506000600260008760010160009054906101000a900473ffffffffffffffffffffffffffffffffffffffff1673ffffffffffffffffffffffffffffffffffffffff1673ffffffffffffffffffffffffffffffffffffffff1681526020019081526020016000208190555060008473ffffffffffffffffffffffffffffffffffffffff168260405161076d90611f0b565b60006040518083038185875af1925050503d80600081146107aa576040519150601f19603f3d011682016040523d82523d6000602084013e6107af565b606091505b50509050806107f3576040517f08c379a00000000000000000000000000000000000000000000000000000000081526004016107ea90611f6c565b60405180910390fd5b60008660010160009054906101000a900473ffffffffffffffffffffffffffffffffffffffff1673ffffffffffffffffffffffffffffffffffffffff168460405161083d90611f0b565b60006040518083038185875af1925050503d806000811461087a576040519150601f19603f3d011682016040523d82523d6000602084013e61087f565b606091505b50509050806108c3576040517f08c379a00000000000000000000000000000000000000000000000000000000081526004016108ba90611fd8565b60405180910390fd5b8573ffffffffffffffffffffffffffffffffffffffff16887fcd5519d1592919f2c62aab2d2cf839d435a03371a12798d4d35542f466d2730c8560405161090a9190611870565b60405180910390a3505050505050505b50565b60055481565b60006020528060005260406000206000915090508060000154908060010160009054906101000a900473ffffffffffffffffffffffffffffffffffffffff16908060020154908060030154908060040154908060050160009054906101000a900460ff16908060050160019054906101000a900473ffffffffffffffffffffffffffffffffffffffff16905087565b600460009054906101000a900473ffffffffffffffffffffffffffffffffffffffff1681565b60026020528060005260406000206000915090505481565b6060806000808467ffffffffffffffff811115610a1057610a0f611ff8565b5b604051908082528060200260200182016040528015610a3e5781602001602082028036833780820191505090505b50905060008567ffffffffffffffff811115610a5d57610a5c611ff8565b5b604051908082528060200260200182016040528015610a8b5781602001602082028036833780820191505090505b509050600060055467ffffffffffffffff811115610aac57610aab611ff8565b5b604051908082528060200260200182016040528015610ada5781602001602082028036833780820191505090505b509050600060055467ffffffffffffffff811115610afb57610afa611ff8565b5b604051908082528060200260200182016040528015610b295781602001602082028036833780820191505090505b5090506000600190505b6005548111610cd657600080600083815260200190815260200160002090506000600160008360050160019054906101000a900473ffffffffffffffffffffffffffffffffffffffff1673ffffffffffffffffffffffffffffffffffffffff1673ffffffffffffffffffffffffffffffffffffffff168152602001908152602001600020541115610cc2578060050160019054906101000a900473ffffffffffffffffffffffffffffffffffffffff16848881518110610bf657610bf5611dd5565b5b602002602001019073ffffffffffffffffffffffffffffffffffffffff16908173ffffffffffffffffffffffffffffffffffffffff1681525050600160008260050160019054906101000a900473ffffffffffffffffffffffffffffffffffffffff1673ffffffffffffffffffffffffffffffffffffffff1673ffffffffffffffffffffffffffffffffffffffff16815260200190815260200160002054838881518110610ca757610ca6611dd5565b5b6020026020010181815250508680610cbe90612027565b9750505b508080610cce90612027565b915050610b33565b5060005b85811015610ea0576000600182610cf19190611ea6565b90505b86811015610e8c57828181518110610d0f57610d0e611dd5565b5b6020026020010151838381518110610d2a57610d29611dd5565b5b60200260200101511015610e7957828181518110610d4b57610d4a611dd5565b5b6020026020010151838381518110610d6657610d65611dd5565b5b6020026020010151848481518110610d8157610d80611dd5565b5b60200260200101858481518110610d9b57610d9a611dd5565b5b6020026020010182815250828152505050838181518110610dbf57610dbe611dd5565b5b6020026020010151848381518110610dda57610dd9611dd5565b5b6020026020010151858481518110610df557610df4611dd5565b5b60200260200101868481518110610e0f57610e0e611dd5565b5b602002602001018273ffffffffffffffffffffffffffffffffffffffff1673ffffffffffffffffffffffffffffffffffffffff168152508273ffffffffffffffffffffffffffffffffffffffff1673ffffffffffffffffffffffffffffffffffffffff1681525050505b8080610e8490612027565b915050610cf4565b508080610e9890612027565b915050610cda565b5060005b8881108015610eb257508581105b15610f6c57828181518110610eca57610ec9611dd5565b5b6020026020010151858281518110610ee557610ee4611dd5565b5b602002602001019073ffffffffffffffffffffffffffffffffffffffff16908173ffffffffffffffffffffffffffffffffffffffff1681525050818181518110610f3257610f31611dd5565b5b6020026020010151848281518110610f4d57610f4c611dd5565b5b6020026020010181815250508080610f6490612027565b915050610ea4565b508383965096505050505050915091565b600460009054906101000a900473ffffffffffffffffffffffffffffffffffffffff1673ffffffffffffffffffffffffffffffffffffffff163373ffffffffffffffffffffffffffffffffffffffff161461100d576040517f08c379a0000000000000000000000000000000000000000000000000000000008152600401611004906120e1565b60405180910390fd5b600060035411611052576040517f08c379a00000000000000000000000000000000000000000000000000000000081526004016110499061214d565b60405180910390fd5b6000600354905060006003819055506000600460009054906101000a900473ffffffffffffffffffffffffffffffffffffffff1673ffffffffffffffffffffffffffffffffffffffff16826040516110a990611f0b565b60006040518083038185875af1925050503d80600081146110e6576040519150601f19603f3d011682016040523d82523d6000602084013e6110eb565b606091505b505090508061112f576040517f08c379a0000000000000000000000000000000000000000000000000000000008152600401611126906121b9565b60405180910390fd5b7f49df4dfe3097401a1d2fa2aeb4bf63a37ef725d5efa0340b157299bb8d4b76916003546040516111609190611870565b60405180910390a1600460009054906101000a900473ffffffffffffffffffffffffffffffffffffffff1673ffffffffffffffffffffffffffffffffffffffff167fcf3e2ed8c545de2d902ea60194df2faa514dad26e69937899d836f775b6973a8836040516111d09190611870565b60405180910390a25050565b6000806000838152602001908152602001600020905080600401544210611238576040517f08c379a000000000000000000000000000000000000000000000000000000000815260040161122f90612225565b60405180910390fd5b8060050160009054906101000a900460ff16611289576040517f08c379a000000000000000000000000000000000000000000000000000000000815260040161128090612291565b60405180910390fd5b806002015434146112cf576040517f08c379a00000000000000000000000000000000000000000000000000000000081526004016112c6906122fd565b60405180910390fd5b80600601339080600181540180825580915050600190039060005260206000200160009091909190916101000a81548173ffffffffffffffffffffffffffffffffffffffff021916908373ffffffffffffffffffffffffffffffffffffffff1602179055503460008084815260200190815260200160002060030160008282546113599190611ea6565b925050819055506000423344858560060180549050604051602001611382959493929190612386565b6040516020818303038152906040528051906020012060001c9050600060f1826113ac91906123e5565b603c6113b89190611ea6565b9050808360040160008282546113ce9190611ea6565b9250508190555060008085815260200190815260200160002060030154847f88532eaa3372cb2a2c735a13227c392cb593838a14da77f31bfacff03cf39e62856004015460405161141f9190611870565b60405180910390a350505050565b60016020528060005260406000206000915090505481565b6000600260003373ffffffffffffffffffffffffffffffffffffffff1673ffffffffffffffffffffffffffffffffffffffff16815260200190815260200160002054146114c7576040517f08c379a00000000000000000000000000000000000000000000000000000000081526004016114be90612488565b60405180910390fd5b60006005600081546114d890612027565b91905081905590506040518061010001604052808281526020013373ffffffffffffffffffffffffffffffffffffffff1681526020018481526020016000815260200183426115279190611ea6565b8152602001600115158152602001600073ffffffffffffffffffffffffffffffffffffffff168152602001600067ffffffffffffffff81111561156d5761156c611ff8565b5b60405190808252806020026020018201604052801561159b5781602001602082028036833780820191505090505b508152506000808381526020019081526020016000206000820151816000015560208201518160010160006101000a81548173ffffffffffffffffffffffffffffffffffffffff021916908373ffffffffffffffffffffffffffffffffffffffff16021790555060408201518160020155606082015181600301556080820151816004015560a08201518160050160006101000a81548160ff02191690831515021790555060c08201518160050160016101000a81548173ffffffffffffffffffffffffffffffffffffffff021916908373ffffffffffffffffffffffffffffffffffffffff16021790555060e08201518160060190805190602001906116a3929190611752565b5090505080600260003373ffffffffffffffffffffffffffffffffffffffff1673ffffffffffffffffffffffffffffffffffffffff168152602001908152602001600020819055503373ffffffffffffffffffffffffffffffffffffffff16817f65dbe49181e7cbde358d94595c5e9f8cc268e7109d3741d3e0c244bd4ae8f6dc8585426117319190611ea6565b60405161173f9291906124a8565b60405180910390a3505050565b60035481565b8280548282559060005260206000209081019282156117cb579160200282015b828111156117ca5782518260006101000a81548173ffffffffffffffffffffffffffffffffffffffff021916908373ffffffffffffffffffffffffffffffffffffffff16021790555091602001919060010190611772565b5b5090506117d891906117dc565b5090565b5b808211156117f55760008160009055506001016117dd565b5090565b600080fd5b6000819050919050565b611811816117fe565b811461181c57600080fd5b50565b60008135905061182e81611808565b92915050565b60006020828403121561184a576118496117f9565b5b60006118588482850161181f565b91505092915050565b61186a816117fe565b82525050565b60006020820190506118856000830184611861565b92915050565b600073ffffffffffffffffffffffffffffffffffffffff82169050919050565b60006118b68261188b565b9050919050565b6118c6816118ab565b82525050565b60008115159050919050565b6118e1816118cc565b82525050565b600060e0820190506118fc600083018a611861565b61190960208301896118bd565b6119166040830188611861565b6119236060830187611861565b6119306080830186611861565b61193d60a08301856118d8565b61194a60c08301846118bd565b98975050505050505050565b600060208201905061196b60008301846118bd565b92915050565b61197a816118ab565b811461198557600080fd5b50565b60008135905061199781611971565b92915050565b6000602082840312156119b3576119b26117f9565b5b60006119c184828501611988565b91505092915050565b600081519050919050565b600082825260208201905092915050565b6000819050602082019050919050565b6119ff816118ab565b82525050565b6000611a1183836119f6565b60208301905092915050565b6000602082019050919050565b6000611a35826119ca565b611a3f81856119d5565b9350611a4a836119e6565b8060005b83811015611a7b578151611a628882611a05565b9750611a6d83611a1d565b925050600181019050611a4e565b5085935050505092915050565b600081519050919050565b600082825260208201905092915050565b6000819050602082019050919050565b611abd816117fe565b82525050565b6000611acf8383611ab4565b60208301905092915050565b6000602082019050919050565b6000611af382611a88565b611afd8185611a93565b9350611b0883611aa4565b8060005b83811015611b39578151611b208882611ac3565b9750611b2b83611adb565b925050600181019050611b0c565b5085935050505092915050565b60006040820190508181036000830152611b608185611a2a565b90508181036020830152611b748184611ae8565b90509392505050565b60008060408385031215611b9457611b936117f9565b5b6000611ba28582860161181f565b9250506020611bb38582860161181f565b9150509250929050565b600082825260208201905092915050565b7f4f6e6c792063726561746f722063616e2066696e616c697a6500000000000000600082015250565b6000611c04601983611bbd565b9150611c0f82611bce565b602082019050919050565b60006020820190508181036000830152611c3381611bf7565b9050919050565b7f546f75726e616d656e74206e6f7420656e646564000000000000000000000000600082015250565b6000611c70601483611bbd565b9150611c7b82611c3a565b602082019050919050565b60006020820190508181036000830152611c9f81611c63565b9050919050565b7f546f75726e616d656e7420616c72656164792066696e616c697a656400000000600082015250565b6000611cdc601c83611bbd565b9150611ce782611ca6565b602082019050919050565b60006020820190508181036000830152611d0b81611ccf565b9050919050565b6000819050919050565b6000819050919050565b6000611d41611d3c611d3784611d12565b611d1c565b6117fe565b9050919050565b611d5181611d26565b82525050565b6000602082019050611d6c6000830184611d48565b92915050565b7f4e487b7100000000000000000000000000000000000000000000000000000000600052601160045260246000fd5b6000611dac826117fe565b9150611db7836117fe565b9250828203905081811115611dcf57611dce611d72565b5b92915050565b7f4e487b7100000000000000000000000000000000000000000000000000000000600052603260045260246000fd5b6000611e0f826117fe565b9150611e1a836117fe565b9250828202611e28816117fe565b91508282048414831517611e3f57611e3e611d72565b5b5092915050565b7f4e487b7100000000000000000000000000000000000000000000000000000000600052601260045260246000fd5b6000611e80826117fe565b9150611e8b836117fe565b925082611e9b57611e9a611e46565b5b828204905092915050565b6000611eb1826117fe565b9150611ebc836117fe565b9250828201905080821115611ed457611ed3611d72565b5b92915050565b600081905092915050565b50565b6000611ef5600083611eda565b9150611f0082611ee5565b600082019050919050565b6000611f1682611ee8565b9150819050919050565b7f4661696c656420746f2073656e64207072697a6520746f2077696e6e65720000600082015250565b6000611f56601e83611bbd565b9150611f6182611f20565b602082019050919050565b60006020820190508181036000830152611f8581611f49565b9050919050565b7f4661696c656420746f2073656e642066656520746f2063726561746f72000000600082015250565b6000611fc2601d83611bbd565b9150611fcd82611f8c565b602082019050919050565b60006020820190508181036000830152611ff181611fb5565b9050919050565b7f4e487b7100000000000000000000000000000000000000000000000000000000600052604160045260246000fd5b6000612032826117fe565b91507fffffffffffffffffffffffffffffffffffffffffffffffffffffffffffffffff820361206457612063611d72565b5b600182019050919050565b7f4f6e6c79206f776e65722063616e2063616c6c20746869732066756e6374696f60008201527f6e00000000000000000000000000000000000000000000000000000000000000602082015250565b60006120cb602183611bbd565b91506120d68261206f565b604082019050919050565b600060208201905081810360008301526120fa816120be565b9050919050565b7f4e6f2066756e647320746f207769746864726177000000000000000000000000600082015250565b6000612137601483611bbd565b915061214282612101565b602082019050919050565b600060208201905081810360008301526121668161212a565b9050919050565b7f4661696c656420746f2077697468647261772072657365727665000000000000600082015250565b60006121a3601a83611bbd565b91506121ae8261216d565b602082019050919050565b600060208201905081810360008301526121d281612196565b9050919050565b7f546f75726e616d656e7420686173206578706972656400000000000000000000600082015250565b600061220f601683611bbd565b915061221a826121d9565b602082019050919050565b6000602082019050818103600083015261223e81612202565b9050919050565b7f546f75726e616d656e7420696e61637469766500000000000000000000000000600082015250565b600061227b601383611bbd565b915061228682612245565b602082019050919050565b600060208201905081810360008301526122aa8161226e565b9050919050565b7f496e636f727265637420656e7472792066656500000000000000000000000000600082015250565b60006122e7601383611bbd565b91506122f2826122b1565b602082019050919050565b60006020820190508181036000830152612316816122da565b9050919050565b6000819050919050565b612338612333826117fe565b61231d565b82525050565b60008160601b9050919050565b60006123568261233e565b9050919050565b60006123688261234b565b9050919050565b61238061237b826118ab565b61235d565b82525050565b60006123928288612327565b6020820191506123a2828761236f565b6014820191506123b28286612327565b6020820191506123c28285612327565b6020820191506123d28284612327565b6020820191508190509695505050505050565b60006123f0826117fe565b91506123fb836117fe565b92508261240b5761240a611e46565b5b828206905092915050565b7f596f7520616c7265616479206861766520616e2061637469766520746f75726e60008201527f616d656e74000000000000000000000000000000000000000000000000000000602082015250565b6000612472602583611bbd565b915061247d82612416565b604082019050919050565b600060208201905081810360008301526124a181612465565b9050919050565b60006040820190506124bd6000830185611861565b6124ca6020830184611861565b939250505056fea264697066735822122037fd3d72c68e2c68d4b6e01ddb87063d6e86fd5e144e5c4318674ff0779b96e164736f6c63430008130033",
  "linkReferences": {},
  "deployedLinkReferences": {}
}